:03000000026F2A62
:106F2A00787FE4F6D8FD750D10750E007581210283
:026F3A006F776F
:04001E007F4EDFFE34
:0100220022BB
:107B55007D027C00ED1D70011C144C70F7EF1F7049
:067B6500011E144E70EA3F
:017B6B0022F7
:107B6C007D0B7C00ED1D70011C144C70F7EF1F7029
:067B7C00011E144E70EA28
:017B820022E0
:107B83007D167C00ED1D70011C144C70F7EF1F7007
:067B9300011E144E70EA11
:017B990022C9
:107B9A007DA37C08ED1D70011C144C70F7EF1F705B
:067BAA00011E144E70EAFA
:017BB00022B2
:104A6100EFD394077480948040037F012212385859
:104A7100FED394037480948040037F0222EF70443C
:104A8100EE700B900001123871F452935294123867
:104A9100586401700B9000011238714293F45294E2
:104AA100123858FE6402700A900001123871429364
:104AB1004294EE6403700D900001123871FEF452BD
:104AC10093EE4294EF64017046123858FE700B90D9
:104AD1000001123871F452915292EE6401700B9000
:104AE10000011238714291F45292123858640270E6
:104AF1000A900001123871429142921238586403AF
:104B0100700D900001123871FEF45291EE4292EF55
:104B110064027046123858FE700B90000112387111
:104B2100F452955296EE6401700B900001123871A7
:104B31004295F452961238586402700A900001129C
:104B41003871429542961238586403700D900001F5
:104B5100123871FEF45295EE4296EF6403704612DC
:104B61003858FE700B900001123871F452B152B2F4
:104B7100EE6401700B90000112387142B1F452B22F
:104B81001238586402700A90000112387142B14221
:104B9100B21238586403700D900001123871FEF49E
:104BA10052B1EE42B2EF64047046123858FE700BF7
:104BB100900001123871F452B352B4EE6401700BDB
:104BC10090000112387142B3F452B41238586402A1
:104BD100700A90000112387142B342B4123858641D
:104BE10003700D900001123871FEF452B3EE42B41D
:104BF100EF64057046123858FE700B9000011238B0
:104C010071F452C952CAEE6401700B90000112385E
:104C11007142C9F452CA1238586402700A900001F4
:104C210012387142C942CA1238586403700D90009B
:104C310001123871FEF452C9EE42CAEF64067046A1
:104C4100123858FE700B900001123871F452CB5299
:104C5100CCEE6401700B90000112387142CBF4521A
:104C6100CC1238586402700A90000112387142CB9C
:104C710042CC1238586403700D900001123871FE55
:104C8100F452CBEE42CCEF64077049123858FF7EE4
:104C910000700B900001123871F452E152E2EF649E
:104CA100014E700B90000112387142E1F452E21290
:104CB10038586402700A90000112387142E142E2F0
:104CC1001238586403700D900001123871FFF452CC
:074CD100E1EF42E27F002247
:03009B000200263A
:03002600B2EC3207
:0300A30002005EFA
:03005E00B2EB32D0
:1044B800AD07EDD394047480948040037F0122ED0E
:1044C800600302458DC28C9000021238716401703D
:1044D80004D2A98002C2A9900001123871FED394B7
:1044E800037480948040037F0222EEFF7E007005F3
:1044F80053B7FDC2B9EF64014E700553B7FDD2B989
:10450800EF64024E700543B702C2B9EF64034E7000
:104518000543B702D2B9123858FEC3940374809485
:104528008040037F0222E58954FC4EF58990000300
:10453800123871FF7E0064017003538E7FEF4E7056
:1045480003438E80EF64024E700543890480035351
:1045580089FB90000412387164017005438F018053
:1045680003538FFE900005123986E5F0F58C900014
:1045780005123986F58A90000712387164017002B5
:10458800D28C7F0022ED6401600302465AC28E90ED
:10459800000212387164017004D2AB8002C2AB9081
:1045A8000001123871FED394037480948040037F15
:1045B8000222EEFF7E00700553B7F7C2BBEF64011D
:1045C8004E700553B7F7D2BBEF64024E700543B780
:1045D80008C2BBEF64034E700543B708D2BB12385C
:1045E80058FEC394037480948040037F0222EEC473
:1045F80054F0FFE58954CF4FF589900003123871C4
:10460800FF7E0064017003538EBFEF4E7003438E2C
:1046180040EF64024E700543894080035389BF9080
:10462800000412387164017005438F028003538FB0
:10463800FD900005123986E5F0F58D9000051239D8
:1046480086F58B90000712387164017002D28E7F54
:104658000022ED6402707C538EEF900002123871D4
:104668006401700543AF04800353AFFB900003124D
:104678003871FED394027480948040037F0222EE46
:10468800FF7E0064017003538EFBEF4E7003438E70
:1046980004EF64024E7005438E088003538EF79032
:1046A800000412387164017005438F048003538F2E
:1046B800FB900005123986E5F0F5D6900005123911
:1046C80086F5D790000712387164017003438E1085
:1046D8007F0022ED6403707C53D1F79000021238FA
:1046E800716401700543AF20800353AFDF9000036E
:1046F800123871FED394027480948040037F0222A2
:10470800EEFF7E006401700353D1FDEF4E7003434A
:10471800D102EF64024E700543D104800353D1FBEC
:104728009000041238716401700543D1018003536D
:10473800D1FE900005123986E5F0F5D490000512F7
:104748003986F5D59000071238716401700343D19A
:10475800087F0022ED640460030247E653D17F908E
:1047680000021238716401700543AF40800353AFF3
:10477800BF900003123871FD7C00D39402748094BA
:104788008040037F0222ED64014C700353D1DF9017
:104798000003123871700343D1209000031238715E
:1047A8006402700543D140800353D1BF90000412C6
:1047B80038716401700543D110800353D1EF900024
:1047C80005123986FDACF0ECF5D2AF058FD3900019
:1047D800071238716401700343D1807F00227F0281
:0147E80022AE
:0B519A009005CDEBF0A3EAF0A3E9F0D4
:1051A500EF640160030253DD90040104F0E4A3F011
:1051B500A3F0A3F0A3F0A3F0A3F0FFEFC3948074D2
:1051C500809480500F74882FF582E43404F583E4CD
:1051D500F00F80E7E4FFEFC3948074809480500F54
:1051E50074082FF582E43404F583E4F00F80E7902A
:1051F50005CDE0FBA3E0FAA3E0F990000A123871AF
:10520500FD7C00D394037480948040037F0222EDDB
:105215004C700553B7EFC2BC9005CDE0FBA3E0FA97
:10522500A3E0F990000A1238716401700553B7EFD5
:10523500D2BC90000A123871FF7E006402700543EB
:10524500B710C2BCEF64034E700543B710D2BC1251
:105255003858FD7C00D394C07480948040037F024D
:1052650022123858FFE598543F4FF598ED64C04C2D
:105275006008EF64406003025360900002123AFF39
:105285007F007E607D547C00123A499005D0123B28
:105295002FE4FFFE7D01FC9005D0E0F8A3E0F9A323
:1052A500E0FAA3E0FBC3123ADB40037F022290053C
:1052B500D0E0F8A3E0F9A3E0FAA3E0FBC3E49BFF89
:1052C500E49AFE740199FDE498FC9005D0123B2FF9
:1052D5009005CDE0FBA3E0FAA3E0F99000011238B8
:1052E50071FB7A0064017038C28E538EFE5389BFFC
:1052F5005389CF438E409005D0E0FCA3E0FDA3E0A9
:10530500FEA3E0FF7808123AEC8F8D9005D0A3A399
:10531500A3E0F58BC2AB5389BF538FFDD28E807A44
:10532500EB64024A7032538EEF438E01538EF7437E
:105335008E049005D0E0FCA3E0FDA3E0FEA3E0FF12
:105345007808123AEC8FD69005D0A3A3A3E0F5D741
:1053550053AFFB438E1080427F02229005CDE0FBC8
:10536500A3E0FAA3E0F9123858FF7E00701490000C
:105375000812387164017005438E20801D538EDF3D
:105385008018EF64804E7012900008123871640125
:105395007005438780800353877F9005CDE0FBA38D
:1053A500E0FAA3E0F990000912387164017004D2A3
:1053B500AC8002C2AC90000712387164017004D24F
:1053C5009C8002C29C90000B12387154C0FFE5A26C
:0A53D500543F4FF5A27F00227F0233
:0153DF0022AB
:10792B00900403E02488F582E43404F583EFF090AF
:10793B000403E004F0C39480748094804002E4F06C
:0B794B00900404E0700404F0D29922C4
:107C1E00123858FF600C12792B740129F9E43AFAE4
:037C2E0080EE22C3
:10699D00900001123871FFE5DE54F04FF5DE9000E6
:1069AD00021238716401700543BC80800353BC7FB3
:1069BD009000031238716401700543DE208003538B
:1069CD00DEDF90000512387164017004D2AD8002D3
:1069DD00C2AD900004123871FF7E00D39403748011
:1069ED0094805072EF700553B7DFC2BDEF64014E56
:1069FD00700553B7DFD2BDEF64024E700543B7206B
:106A0D00C2BDEF64034E700543B720D2BD12385896
:106A1D00D3941F74809480503D900006123871FFFE
:106A2D00D3940174809480502D900007123871FE1C
:106A3D00D3940374809480501D43BA80EEC43354B4
:106A4D00E0FEEFC433333354804EFF1238584F906D
:076A5D00FEA8F053BA7F22EE
:0D000E00EF6401700443BC802253BC7F22CC
:105EDB00EFD3940F748094804003025FF1E4F5BD1F
:105EEB00F5BEE5BC54F044404FF5BC00000000008B
:105EFB000000000000000000000000000000000097
:105F0B000000000000000000000000000000000086
:105F1B000000000000000000000000000000000076
:105F2B000000000000000000000000000000000066
:105F3B000000000000000000000000000000000056
:105F4B000000000000000000000000000000000046
:105F5B000000000000000000000000000000000036
:105F6B000000000000000000000000000000000026
:105F7B000000000000000000000000000000000016
:105F8B000000000000000000000000E4FDEDC394E1
:105F9B00FA74809480504FE5BC30E54753BCDFE585
:105FAB00DEAFBD30E50DEFFEACBEECFBEBFF9006BC
:105FBB00D280229006D2E4F0A3EFF0E5BEC4540FDA
:105FCB00FBE0C4F8540FC868FF9006D2E0C454F04D
:105FDB0048FEEF4BFFEEF0A3EFF09006D2E0FEA3EE
:0A5FEB00E0FF220D80A77E107F006A
:015FF5002289
:105FF6004406910000000042068D000042068F0014
:016006000099
:10798000E49005C1F0A304F0A3F0E4A3F0A3F0A3F6
:1079900074B8F0A3E4F0A304F07B017A0579C1E4A4
:0779A000FF1244B8EF70F282
:0179A70022BD
:10795600E49005C1F0A304F0A3F0E4A3F0A3F0A320
:1079660074A9F0A3749AF0A37401F07B017A0579E7
:09797600C17F011244B8EF70F268
:01797F0022E5
:107A3E009005C37401F0E4A3F0A3F0A374CAF0A3FD
:107A4E00E4F0A304F07B017A0579C17F021244B8F9
:037A5E00EF70F2D4
:017A61002202
:0F7C410090064C741EF0127980127956027A3E2A
:03000B000273C7B6
:1073C700C0E0C0F0C083C082C0D075D000C000C08C
:0773D70004C005C006C00759
:1073DE0090068EE004F0700690068DE004F09006A4
:1073EE004CE0FD7C007E047FB0123905C390068E02
:1073FE00E09F90068DE09E400BE4F0A3F090064DCA
:04740E00E04401F065
:10741200D007D006D005D004D000D0D0D082D083FF
:05742200D0F0D0E032C3
:107C3100E49006CAF0A3F0758DA9758B9AD28E22B5
:03009500C28E22F6
:03001B00027ABDA9
:107ABD00C0E0C083C0829006CBE004F07006900653
:0B7ACD00CAE004F0D082D083D0E03289
:030063000272E73F
:1072E700C0E0C0F0C083C082C0D075D000C000C06D
:0772F70004C005C006C0073A
:1072FE00900690E004F0700690068FE004F0C390C4
:10730E000690E0944090068FE094064028E4F0A3A7
:10731E00F0A3E0FCA3E0FDA3E0FEA3E02401FFE464
:10732E003EFEE43DFDE43CFC900691123B2F9006A0
:05733E004DE04402F0E7
:10734300D007D006D005D004D000D0D0D082D083CF
:05735300D0F0D0E03293
:1079F4000D0A5354433848384B36345520554152B8
:107A0400543120546573742050726F6772616D6DC8
:057A140065210D0A00D0
:1060070043069501040142069A048842069804084B
:0460170041069C00A2
:0E7CC800900615EFF0120098900615E0FF22CE
:107BC8009005C27403F0E49005C1F07B017A057951
:067BD800C17F03024A61B7
:10002E009005C17440F0A37401F0A3123B3B000194
:10003E00C200E49005C7F0A304F0E4A3F0A304F01B
:10004E00E4A3F0A3F07B017A0579C17F0102519AF6
:0F7C5000127BC812002E7BFF7A7979F40241BEB5
:0300980002792BBF
:03009E00027C1EC3
:1070DC00900695E0FBA3E0FAA3E0F99000051238C6
:1070EC0071D3940074809480406C90000574FF12EE
:1070FC00389E7062900004123871FFD39400748033
:10710C009480405290069CEFF0E49006D6F09006E6
:10711C0095E0FBA3E0FAA3E0F9900004123871FFAC
:10712C009006D6E0FEC39F501B900698E0FCA3E0AF
:10713C002EF582E43CF583E0FF1200989006D6E031
:10714C0004F080CA900695E0FBA3E0FAA3E0F99066
:06715C000004E41238D12A
:01716200220A
:0300230002716304
:10716300C0E0C083C082C0D075D000C006C0073065
:107173009831C298900407E07029900405E0C39405
:1071830080748094804002E4F0900405E0FF04F0F2
:1071930074082FF582E43404F583E599F09004062E
:1071A3007405F0309934C299900403E0FF9004020F
:1071B300E0FE6F602074882EF582E43404F583E0EA
:1071C300F599900402E004F0C394807480948040A5
:1071D30009E4F08005900404E4F0D007D006D0D091
:0771E300D082D083D0E0321E
:1000A600000000000000000000000000000000004A
:1000B600000000000000000000000000000000003A
:1000C600000000000000000000000000000000002A
:1000D600000000000000000000000000000000001A
:1000E600000000000000000000000000000000000A
:1000F60000000000000000000000000000000000FA
:1001060000000000000000000000000000000000E9
:1001160000000000000000000000000000000000D9
:1001260000000000000000000000000000000000C9
:1001360000000000000000000000000000000000B9
:1001460000000000000000000000000000000000A9
:100156000000000000000000000000000000000099
:100166000000000000000000000000000000000089
:100176000000000000000000000000000000000079
:100186000000000000000000000000000000000069
:100196000000000000000000000000000000000059
:1001A6000000000000000000000000000000000049
:1001B6000000000000000000000000000000000039
:1001C6000000000000000000000000000000000029
:1001D6000000000000000000000000000000000019
:1001E600000000000003800000000000000FC000B7
:1001F60000000000007FE0000000000001FC60003D
:10020600000000000FE06000000000003F8060007A
:1002160000000000FC00600000000001FFC0E000DC
:100226000000000FFFFFC000000000FFFFFFF0000E
:10023600000007FE0007FE000000FFE000003F8010
:100246000001FE00000007800007E00000000180BA
:10025600001F800000000000003E000000000000BB
:10026600007800000000000000F000000000000020
:1002760001C0000000000000038000000000000034
:10028600070000000000000007000000000000005A
:100296000E000000000000001C000000000000002E
:1002A60038000000000000003C00000000000000D4
:1002B6001C000000000000000E000000000000000E
:1002C600060000000000000006000000000000001C
:1002D6000300000000000000030000000000000012
:1002E60003000800000000000300180000000000E2
:1002F60003000C000000000003000C0000000000DA
:1003060003060C000000000003060E0000000000BB
:1003160007060600000000000604070000000000B3
:1003260006000300000000000E00030000000000AD
:10033600060000000000000007008000000000002A
:100346000381C0000000000001C0C00000000000E2
:1003560000E0000000000000007000000000000047
:10036600003800000000000000380000C000000057
:10037600001C0000C0000000000C0000C0000000CF
:10038600000E0000C000000000070000C0000000D2
:1003960000070000C000000000038000C00000004D
:1003A60000018001C00000000001C00380000000C1
:1003B6000000C007800000000000E00F0000000001
:1003C6000000703E0000000000003FFC000000003E
:1003D60000001FFC00000000000007DF0000000016
:1003E60000000007C000000000000001F800000047
:1003F600000000007E000000000000001FC000009A
:100406000000000007FC00000000000001FF800063
:1004160000000000001FF800000000000003FF803D
:100426000000000000007FFC0000000000000FFE3E
:1004360000000000000001FE0000000000000000B7
:1004460000000000000000000000000000000000A6
:100456000000000000000000000000000000000096
:100466000000000000000000000000000000000086
:100476000000000000000000000000000000000076
:100486000000000000000000000000000000000066
:100496000000000000000000000000000000000056
:1004A6000000000000000000000000000000000046
:1004B6000000000000000000000000000000000036
:1004C6000000000000000000000000000000000026
:1004D6000000000000000000000000000000000016
:1004E60000000003C000000000000007E00000005C
:1004F6000000000F700000000000000E3000000039
:100506000000001C30000000000000383000000031
:100516000000007030000000000000707000000055
:10052600000000E060000000000001C0E0000000E4
:1005360000000181C000000000000383800000006D
:100546000000030300000000000007060000000092
:100556000000060C0000000000000C18000000005F
:1005660000000C300000000000000C30000000000D
:100576000000186000000000000018600000000085
:100586000000186000000000000018600000000075
:100596000000186000000000000018600000000065
:1005A6000000184000000000000018400000000095
:1005B6000001FFE000000000003FFFFFF800000020
:1005C60001FFFFFFFF00000007F80000FFE000004A
:1005D6001F80000003FC00003E000000007F0000BA
:1005E600F8000000001FC000E00000000003F0005B
:1005F600E000000000007C006000000000001E001B
:10060600600000000000070060000000000003001A
:100616003000000000000000300000000000000074
:100626003000000000000000300000000000000064
:100636003000000000000000300000000000000054
:1006460060000000000000006000000000000000E4
:10065600E000000000000000C000000000000000F4
:10066600C0030000000000008187000000000000B9
:100676000187000000000000018600000000000065
:100686008007000000000000800700000000000056
:10069600C003000000000000C003000000000000CE
:1006A600E0C380000000000060C100000000000000
:1006B60070C00000000000003000000000000000D4
:1006C60030000000000000003000000000000000C4
:1006D60018000000000000001800000000000000E4
:1006E60018000000000000000C00000000000000E0
:1006F6000C000000000000000C00000000000000DC
:100706000C000100000000000600030000000000CD
:1007160006000300000000000600030000000000C1
:1007260007000300000000000300060000000000B0
:1007360003800E000000000001C01E000000000043
:1007460001E0FC000000000000FFF80000000000CF
:10075600003FF8000000000000003C000000000020
:1007660000003E000000000000003F000000000006
:100776000000378000000000000033C000000000C9
:10078600000031F000000000000030F8000000001A
:10079600000070FC00000000000070DF0000000098
:1007A60000006087C000000000006183F8000000C0
:1007B60000006180FE000000000061801F800000D4
:1007C6000000618007F000000000618001FC00006D
:1007D60000006180003F800000006180000FE000A3
:1007E600000071800001FC000000308000007F00E6
:1007F600000030C000000FC0000030C0000003C081
:10080600000030C000000000000030400000000082
:1008160000003860000000000000186000000000C2
:100826000000186000000000000018300000000002
:10083600000018300000000000000C30000000002E
:1008460000000C300000000000000C30000000002A
:1008560000000C300000000000000E300000000018
:100866000000067000000000000007E00000000025
:10087600000003E00000000000000180000000000E
:100886000000000000000000000000000000000062
:100896000000000000000000000000000000000052
:1008A6000000000000000000000000000000000042
:1008B6000000000000000000000000000000000032
:1008C6000000000000000000000000000000000022
:1008D6000000000000000000000000000000000012
:1008E6003800000000000000FE00000000000000CC
:1008F600FF00000000000000C7C00000000000006C
:1009060081F0000000000000807800000000000078
:10091600803C000000000000C00F00000000000046
:10092600F007000000000000FC03C000000000000B
:100936001E01C000000000000780E000000000006B
:1009460003C070000000000000F038000000000046
:1009560000781C00000000000FFF8C000000000063
:100966001FFFFE00000000001F8FFF0000000000B8
:100976000C007FC0000000000C001FFC00000000FF
:100986000C0001FFC00000000C00001FF800000072
:1009960018000001FE000000180000001F80000083
:1009A6001800000007E000003800000000F8000012
:1009B60030000000007C000070000000001F0000F6
:1009C600E00000000007C000E00000000003F000A7
:1009D600C00000000000F8000000000000003E001B
:1009E6000000000000000F0000000000000007806B
:1009F6000600000000000180070000000000000063
:100A0600060C000000000000001C000000000000B2
:100A16000018000000000000003800000000000080
:100A2600003000000000000004300000000000005C
:100A36000C300000000000000C3800000000000030
:100A46000018000000000000001800000000000070
:100A56000000000000000000000000000000000090
:100A66000000000000000000000000000000000080
:100A76000000000000000000000000000000000070
:100A86000000000000000000000000000000000060
:100A96000000000000000000000000000000000050
:100AA6000000000000000000000000000000000040
:100AB600800000000000000080010000000000002F
:100AC600C001800000000000C0038000000000009C
:100AD600F0070000000000007C0E0000000000008F
:100AE6003FFE0000000000000FFC000000000000B8
:100AF60001FE000000000000E3E600000000000028
:100B0600FF870000000000007E0380000000000058
:100B160000018000000000000003C000000000008B
:100B26000007E00000000000001F70000000000049
:100B360001FC380000000000FFF01C00000000006F
:100B4600FFC01C00000000007C000E00000000003A
:100B56000000078000000000000003C00000000045
:100B6600000001E000000000000000F800000000A6
:100B76000000003E000000000000001F8000000092
:100B860000000007C000000000000001F0000000A7
:100B9600000000007C000000000000001F000000B4
:100BA600000000000FC000000000000003F000007D
:100BB6000000000000FC000000000000003F0000F4
:100BC60000000000000FC000000000000003F0005D
:100BD600000000000000FC000000000000003E00D5
:100BE60000000000000004000000000000000000FB
:100BF60000000000000000000000000000000000EF
:100C060000000000000000000000000000000000DE
:100C160000000000000000000000000000000000CE
:100C260000000000000000000000000000000000BE
:100C360000000000000000000000000000000000AE
:100C4600000000000000000000000000000000009E
:100C5600000000000000000000000000000000008E
:100C6600000000000000000000000000000000007E
:100C7600000000000000000000000000000000006E
:100C8600000000000000000000000000000000005E
:100C9600000000000000000000000000000000004E
:100CA600000000000000000000000000000000003E
:100CB600000000000000000000000000000000002E
:100CC600000000000000000000000000000000001E
:100CD600000000000000000000000000000000000E
:100CE60000000000000000000000000000000000FE
:100CF60000000000000000000000000000000000EE
:100D060000001FC00000000000007FE0000000009F
:100D16000003FC7000000000000FC0180000000077
:100D2600001F001C00000000001C001E0000000048
:100D36000038000E0000000000300F8700000000A1
:100D460000637E83000000000067FEC30000000011
:100D56000077FFE380000000003F0FF180000000F5
:100D6600003E00FF80000000000E003FC0000000B3
:100D76000006000FF000000000060003FF00000060
:100D8600000C00003FE00000000C000003F800002B
:100D9600001C0000007E000000180000000F80000C
:100DA600007800000003E00001F000000000F00001
:100DB60003E0000000007C000780000000001E0029
:100DC6000600000000000F8006000000000003C0BF
:100DD60006000000000001E00606000000000070AA
:100DE600060700000000003C060600000000001E8A
:100DF600020000000000000E03000C0000000006C8
:100E060003001C00000000020300180000000000A0
:100E16000308380000000000060C30000000000047
:100E2600060C30000000000006083000000000003C
:100E36000600300000000000060030000000000040
:100E46000600000000000000060000000000000090
:100E56000600000000000000060000000000000080
:100E66000C000000000000000C0000000000000064
:100E76000C000000000000000C0000000000000054
:100E86000C000000000000000C0000000000000044
:100E96000C0000000000000006000000000000003A
:100EA600060000000000000007000000000000002F
:100EB60007800C00000000000FC01C0000000000AE
:100EC6000DE01C00000000000CF8380000000000D7
:100ED6000C7FF000000000000C3FF0000000000056
:100EE6000C339800000000000C301C0000000000CD
:100EF6000E101C000000000006183E000000000056
:100F06000618670000000000030847000000000004
:100F1600030CC38000000000038581C000000000B0
:100F2600018703E00000000001C207E000000000A6
:100F360000C00F700000000000601C3800000000B8
:100F46000070F81C000000020039F00E00000002DC
:100F5600001FE007000000020006000380000002F8
:100F660000000001C000000200000000E0000006D2
:100F76000000000078000006000000003C000006AB
:100F8600000000001F0000020000000007800002B1
:100F96000000000003C000020000000001F0000293
:100FA600000000000078000000000000003C000087
:100FB60000000000001F0000000000000007800283
:100FC600000000000003E002000000000000F00442
:100FD6000000000000007C0C0000000000001E0C59
:100FE6000000000000000F0C000000000000030CD1
:100FF60000000000000000080000000000000038AB
:1010060000000000000000780000000000000078EA
:1010160000000000000000780000000000000070E2
:10102600000000000000007000000000000000F05A
:1010360000000000000000F000000000000000F0CA
:1010460000000000000000E000000000000000E0DA
:1010560000000000000001E000000000000001E0C8
:1010660000000000000001C000000000000001C0F8
:1010760000000000000001C000000000000003C0E6
:1010860000000000000003C0000000000000038014
:101096000000000000000380000000000000038044
:1010A600000000007800000000000000780000004A
:1010B600000000007000000000000000700000004A
:1010C60000000000F000000000000000F00000003A
:1010D60000000000F000000000000000E00000003A
:1010E60000000000E000000000000001E000000039
:1010F60000000001E000000000000001E000000028
:1011060000000001E000000000000001F8000000FF
:1011160000000003F800000000000003DC000000EF
:10112600000000078E0000000000000F0E00000007
:101136000000001C0F0000000000001C070000005B
:10114600000000384300000000000070A30000000B
:10115600000000E123000000000001C303000000BE
:10116600000001DB03800002000003FFE1800002B3
:1011760000001FFFF98000020000FF83FF800002CD
:101186000000F8003FF000020000E00003FE000649
:1011960000006000003FC006000060000007F00687
:1011A600000060000000FC060000600000003E0633
:1011B6000000600000000F0E00006000000003CE7B
:1011C60000006000000001EE00006000000000FE6C
:1011D6000000E0000000003E0000C0000000001E0D
:1011E6000001C0000000000E0003800000000006A1
:1011F6000007000000000002000E000000000000D2
:10120600000C000000000000000C060000000000BA
:10121600000C0E0600000000000C0C06000000008A
:1012260000060006000000000006000300000000A3
:101236000006000300000000000300070000000095
:10124600000304060000000000030C0E000000006E
:1012560000030C0C000000000003040C00000888CA
:101266000001800000003FF80001800000003FF010
:101276000001800000000100000180000000000065
:101286000001800000003C58000180000000205052
:101296000001800000003870000180000000294035
:1012A60000018000000027C00001800000003840D7
:1012B6000000C000000028700000C00000002010E0
:1012C6000000C00060003C480000C0006000000054
:1012D6000000E000C000000000007000C0000E101A
:1012E60000007001C00000E000003C0380003F8069
:1012F60000003FFF800006C000003FFF00000C60BA
:10130600000033FC00000010000070B80000080068
:10131600000070BC00002800000070FC00001800EF
:10132600000071EE00000800000070E700000800F1
:101336000000F0C3000038000000F08380002800A1
:101346000000F083C00008000000F007E000000085
:101356000000F00E700000000001F81C38000000CC
:101366000001F818380000000001F8701E000000A7
:101376000001CCF00F0000000001C7C0078000008C
:101386000003C30003C000000003C00000E000002B
:101396000003C0000078000000038000003C00004D
:1013A60000038000001E000000078000000F800080
:1013B600000780000003C000000780000001E00075
:1013C600000700000001F000000700000001FC001B
:1013D600000F00000001DE00000F00000003CF80B8
:1013E600000F00000003C3C0000E0000000381E0F0
:1013F600000E000000038060001E00000003802035
:10140600001E000000078000001E0000000780008C
:10141600001C000000070000001C00000007000080
:10142600003C000000070000003C0000000F000028
:10143600003C0000000F000000380000000E000015
:1014460000380000000E000000780000001E0000BA
:1014560000780000001E000000700000001E000062
:1014660000700000001C000000700000001C00005E
:1014760000F00000001C000000F00000003C00002E
:1014860000E00000003C000000E000000038000022
:1014960001E000000038000001E0000000780000D4
:1014A6000000000F000000020000000E0000000215
:1014B6000000000E000000020000001E00000002F6
:1014C6000000001E000000060000001E00000006CE
:1014D6000000001C000000060000001C00000006C2
:1014E6000000003C000000060000003C0000000E6A
:1014F6000000003C0000000E000000380000000E56
:10150600000000380000000E000000780000001EF9
:10151600000000780000001E000000780000001E99
:101526000000007E0000001C0000007E0000001C81
:10153600000000FF0000003C000000F38000003CBB
:10154600000000E38000003C000001C3C00000383A
:1015560000000381C000003800000700C0000078CA
:1015660000000618E000007800000E006000007819
:1015760000001C2060000070000038406000007011
:10158600000030C0600000F000007FF8600000F04E
:101596000003FFFFF00000F0001FFFFFFE0000E069
:1015A600003F0003FFF000E0003C00001FFE01E0EA
:1015B60000180000007F81E0001800000007E1E04D
:1015C600001800000000F9C00018000000003FC02D
:1015D6000018000000001FC000180000000007E00F
:1015E60000180000000001F000180000000000FCD8
:1015F600003800000000001E003000000000000E51
:1016060000700000000000020070000000000000F2
:1016160000E000000000000003C000000000000021
:10162600038000000000000003010000000000002D
:101636000303810000000000030381800000000016
:10164600038101800000000001800180000000008D
:10165600018001800000000000C0018000000988B0
:1016660000C0018000003FF800C1838000003FF009
:1016760000C18300000001000061030000000800B3
:101686000060000000003C5800600000000021508F
:1016960000600000000039700060000000002FC0EC
:1016A60000600000000027C0006000000000395004
:1016B60000300000000029700030000000002150BA
:1016C6000030000000003C48003000000000000030
:1016D60000300000000000000030000000000E1086
:1016E60000300000000002E00030001800003F80DB
:1016F60000180018000006C0001C003800000C602E
:10170600001E003000000010000E007000000810DF
:10171600000FC1E000002810000FFFC000001810E5
:10172600000FFFC000000810001F1FE00000181087
:10173600001F0BE000003810001F0F70000028107B
:10174600001F0E3800000810001F0C1C00000000CF
:10175600003F0C1E00000000003F183F0000000084
:10176600003F007380000000003B00E1C000000065
:10177600003B80C1E000000000798180F00000009D
:10178600007987803C0000000078CF001E00000032
:1017960000707C000F8000000070300003E0000045
:1017A60000F0000001F8000000F00000007E0000DC
:1017B60000F00000003F000000E00000003FC00015
:1017C60000E000000039F00001E0000000387C0075
:1017D60001E0000000781F0001E0000000780FC063
:1017E60001C00000007003F801C000000070007C1A
:1017F60003C000000070001E03C0000000F00004DB
:1018060003C0000000F000000380000000E00000BC
:101816000380000000E000000780000001E00000F7
:101826000780000001E000000700000001E0000062
:101836000700000001C000000700000001C0000012
:101846000F00000003C000000F00000003C00000EE
:101856000E00000003C000000E0000000380000020
:101866001E000000038000001E000000078000002C
:101876001E000000078000001C000000078000001A
:101886001C000000070000001C000000070000000C
:101896003C0000000F0000003C0000000F000000AC
:1018A6000000000F000000020000000E0000000211
:1018B6000000000E000000020000001E00000002F2
:1018C6000000001E000000060000001E00000006CA
:1018D6000000001C000000060000001C00000006BE
:1018E6000000003C000000060000003C0000000E66
:1018F6000000003C0000000E000000380000000E52
:10190600000000380000000E000000780000001EF5
:10191600000000780000001E000000780000001E95
:10192600000000700000001C000000700000001C99
:10193600000000F00000003C000000F00000003C49
:10194600000001F80000003C000001FC0000003827
:101956000000039E000000380000070E000000781B
:1019660000000E0F0000007800000C070000007851
:1019760000001C03000000700000386300000070C7
:10198600000070E1800000F0000061C1800000F0FE
:101996000000E1A1800000F00001C3A1C00000E04A
:1019A6000001FFF9C00000E00003FFFFFC0001E0BA
:1019B600001FFFFFFFF001E0007F0000FFFE01E0D7
:1019C60000F80000007F81C000F000000007E1C0C1
:1019D600007000000001FFC00030000000003FC0A2
:1019E6000030000000000FC000300000000003F0CF
:1019F60000300000000001F8003000000000003C4C
:101A0600003000000000000E006000000000000032
:101A16000060000000000000006000000000000000
:101A260000E000000000000001C00000000000000F
:101A360003C0000000000000078000000000000056
:101A4600070000000000000006030200000000007E
:101A560006070700000000000602030000000988D0
:101A66000700030000003FF80300030000003FF0FA
:101A7600038003000000010001800300000008004D
:101A86000182070000003C5801C3070000002150F6
:101A960000C306000000397000C0000000002FC01F
:101AA60000C00000000027C000C000000000395040
:101AB60000C000000000297000C000000000215096
:101AC6000060000000003C480060000000000000CC
:101AD60000600000000000000060000000000E1022
:101AE60000600000000002E00060000000003F808F
:101AF60000700000000006C00030001800000C60F6
:101B060000300018000000100030003800000810F7
:101B16000038003000002810001C0070000018106B
:101B2600001E007000000810001F81E00000181061
:101B3600001FFFC000003810001FFFC00000281063
:101B4600001E3FE000000810001E16700000000096
:101B5600003E163800000000003E1C1C000000007D
:101B6600003E181E00000000003E183F0000000066
:101B7600003F007780000000007F00E3C000000007
:101B8600007B01C0E0000000007B038078000000BD
:101B9600007387003C0000000071DE001F0000009B
:101BA60000F0FC0007E0000000F0700001F8000003
:101BB60000F00000007E000000E00000003FC000D2
:101BC60000E00000003FF00001E000000038FE00E9
:101BD60001E0000000783F8001E00000007807F097
:101BE60001C00000007001FE01C000000070003E50
:101BF60003C000000070000603C0000000F00000F3
:101C060003C0000000F000000380000000E00000B8
:101C16000380000000E000000780000001E00000F3
:101C26000780000001E000000700000001E000005E
:101C36000700000001C000000700000001C000000E
:101C46000F00000003C000000F00000003C00000EA
:101C56000E00000003C000000E000000038000001C
:101C66001E000000038000001E0000000780000028
:101C76001E000000078000001C0000000780000016
:101C86001C000000070000001C0000000700000008
:101C96003C0000000F0000003C0000000F000000A8
:10601B00602305516D656E750000000000000000E7
:10602B000000000000000000000000000000000065
:10603B000000000000000060230574736372656547
:10604B006E000000000000000000000000000001D6
:10605B0000010000000000000000000000006023B1
:10606B00059A6672657100000000000000000000D8
:10607B000000000000000201010000000000000011
:10608B0000000000006046050B73686F7720667296
:10609B00657100000000000000000000000301011A
:1060AB00000000000000000000FF7CEF736574200F
:1060BB006672657100000000000000000000000027
:0F60CB00030102000000000000000000FF75F557
:106E9700127C50127C41127D40127D46127CB91241
:106EA70071EA90064C741EF09005C47401F0A37447
:106EB70005F0A37474F07B017A0579511253E090C1
:106EC70005C47401F0A37405F0A3749AF07B017AEA
:106ED7000579511253E09005C47401F0A37405F0CD
:106EE700A3740BF07B017A0579511253E09005C426
:106EF7007401F0A37405F0A3742EF07B017A057971
:106F0700511253E09006AF7401F0A37405F0A37417
:106F170051F0F99006AC7401F0A37405F0A3E9F001
:036F2700D2AF22C4
:105B2500E49005BDF0F9A3C9F0A3F0A3E9F0900551
:105B35009774FFF0A3747CF0A3745FF0900508746C
:105B4500FFF0A3747CF0A3746EF0126E979005C7F6
:105B5500E4F0A37402F0A3E4F0A37440F0A3E4F02E
:105B6500A37420F07B027A007D407C007F807E005C
:105B75001276999005BEEBF0A3EAF0A3E9025C2842
:105B850090064DE030E00654FEF0127AA1900678BA
:105B9500E06012900597A3E0FAA3E0F9123BF590B7
:105BA5000678E014F0900679E06012900508A3E00D
:105BB500FAA3E0F9123BF5900679E014F0E4FF1240
:105BC50073589005BDEFF06401706A9006AFE0FB75
:105BD500A3E0FAA3E0F990001D123B6CE94A4B6083
:105BE5001E127BF49006ACE0FBA3E0FAA3E0F9906B
:105BF5000020123B6CE94A4B602A12777480817B46
:105C0500017A057951126FBC90059774FFF0A37462
:105C15007CF0A3745FF090050874FFF0A3747CF02A
:105C2500A3746EF09006AFE0FBA3E0FAA3E0F912CF
:105C3500651E025B859005BDE064026003025B851D
:105C45007B017A057951126E0290059774FFF0A3D6
:105C5500747CF0A3745FF090050874FFF0A3747C66
:105C6500F0A3746EF09006AFE0FBA3E0FAA3E0F9B1
:065C750012651E025B85B2
:0F7C5F007B017A05795112660D126B267F002288
:0F7C6E007B017A0579511266F5126B267F002291
:107A820073657420667265713A20002877696C6CA0
:0F7A9200206469736170706561722E2E2E290059
:097CEF001278261277EC7F0022C6
:1075F50090059774FFF0A3747CF0A3747DF090055B
:107605000874FFF0A3747CF0A3748CF01278261232
:1076150077EC7BFF7A7A79829005CE7408F0A374B3
:1076250001F07D10E4FF126D4D7BFF7A7A798D9024
:1076350005CE7408F0A37401F07D18E4FF126D4DBA
:037645007F0022A1
:080003004E6F6E6521003E0006
:0C60DA004306AF0000004306AC000000CD
:0B651E009005C1EBF0A3EAF0A3E9F048
:10652900E4A3F0A3F0A3EBF0A3EAF0A3E9F0127857
:10653900269005C6E0FBA3E0FAA3E0F990001D123E
:106549003B6CE94A4B70030265EA9005C6E0FBA380
:10655900E0FAA3E0F990001D123B6C9005C6EBF040
:10656900A3EAF0A3E9F0127CF8EF24F8FFEE34FF78
:10657900FEEF7803CEC313CE13D8F99005CEF09071
:1065890005C4E075F008A4FD9005C6E0FBA3E0FA98
:10659900A3E0F99005CF7408F0A37401F07F081205
:1065A9006A649005C4E004F09005C6E0FBA3E0FA34
:1065B900A3E0F990001A123B6C9005C6EBF0A3EA30
:1065C900F0A3E9F09005C6E0FBA3E0FAA3E04A4B8B
:1065D90060269005C4E0C394087480948040878045
:1065E900177BFF7A0079039005CE7408F0A3740134
:1065F900F0E4FD7F08126D4D9005C1E0FBA3E0FAC0
:03660900A3E0F912
:01660C00226B
:106B2600E49005C1F0127D01EF7803CEC313CE13B6
:106B3600D8F99005C2F09006AFE0F9A3E0FAA3E019
:106B46009005C3C9F0A3EAF0A3E9F09006ACE0F91A
:106B5600A3E0FAA3E09005C6C9F0A3EAF0A3E9F022
:106B66009005C3E0FBA3E0FAA3E0F9900014123805
:106B7600712401FFE433FE9005C6E0FBA3E0FAA30F
:106B8600E0F99000141238716F7001EE70421275C0
:106B96003F9005C1EFF0127D019005CCEFF0E4A324
:106BA600F07B08FDFF1278D19005C2E0FF9005C189
:106BB600E08FF084E5F075F008A4FD7BFF7A00799C
:106BC600099005CE7408F0A37401F0E4FF126D4D30
:0B6BD6009006ACE0FBA3E0FAA3E0F99E
:016BE1002291
:0B660D009005C1EBF0A3EAF0A3E9F058
:10661800A3E4F0A3F0A3F09006ACE0FBA3E0FAA398
:10662800E04A4B6074A3E0FBA3E0FAA3E04A4B60A6
:10663800689006AFA3A3E0F9900014123871240102
:10664800FFE433FE9006ACE0FBA3E0FAA3E0F99088
:1066580000141238716F7001EE703E90FFFD123B0E
:10666800FBEBF0A3EAF0A3E9F09005C1E0FBA3E09F
:10667800FAA3E0F9124CD89005C4EBF0A3EAF0A312
:10668800E9F09005C4E0FBA3E0FAA3E04A4B6051AF
:106698009005C4A3A3E0F9803D9006ACE0FBA3E01D
:1066A800FAA3E04A4B603AA3E0FBA3E0FAA3E04A6E
:1066B8004B602E9006AFA3A3E0F990001D123B6C2F
:1066C800E94A4B601C9006AFE0FBA3E0FAA3E0F9AF
:1066D80090001D123B6C9006ACEBF0A3EAF0A3E926
:0C66E800F09006ACE0FBA3E0FAA3E0F9A0
:0166F4002283
:0B66F5009005C1EBF0A3EAF0A3E9F070
:10670000A3E4F0A3F0A3F09006ACE0FBA3E0FAA3AF
:10671000E04A4B6074A3E0FBA3E0FAA3E04A4B60BD
:10672000689006AFA3A3E0F9900014123871240119
:10673000FFE433FE9006ACE0FBA3E0FAA3E0F9909F
:1067400000141238716F7001EE703E90FFFD123B25
:10675000FBEBF0A3EAF0A3E9F09005C1E0FBA3E0B6
:10676000FAA3E0F91247E99005C4EBF0A3EAF0A31D
:10677000E9F09005C4E0FBA3E0FAA3E04A4B6051C6
:106780009005C4A3A3E0F9803D9006ACE0FBA3E034
:10679000FAA3E04A4B603AA3E0FBA3E0FAA3E04A85
:1067A0004B602E9006AFA3A3E0F990001D123B6C46
:1067B000E94A4B601C9006AFE0FBA3E0FAA3E0F9C6
:1067C00090001D123B6C9006ACEBF0A3EAF0A3E93D
:0C67D000F09006ACE0FBA3E0FAA3E0F9B7
:0167DC00229A
:107BF4009006ACE0FBA3E0FAA3E0F9A3EBF0A3EA60
:057C0400F0A3E9F022ED
:0B6FBC009005C1EBF0A3EAF0A3E9F0A0
:106FC700A3E4F0A3F0A3F09006AFE0FBA3E0FAA3DD
:106FD700E0F990001D123B6CE94A4B705D9006ACDE
:106FE700E0FBA3E0FAA3E0F990FFFD123BFBEBF017
:106FF700A3EAF0A3E9F09005C1E0FBA3E0FAA3E060
:10700700F91256209005C4EBF0A3EAF0A3E9F0903B
:1070170005C4E0FBA3E0FAA3E04A4B601D9005C45A
:10702700A3A3E0F99006AFEBF0A3EAF0A3E9F09091
:1070370006ACEBF0A3EAF0A3E9F09006AFE0FBA300
:05704700E0FAA3E0F9EE
:01704C002221
:0B6E02009005C1EBF0A3EAF0A3E9F05B
:106E0D00A3E4F0A3F0A3F09006ACE0FBA3E0FAA39B
:106E1D00E0F9900014123871D3940074809480407E
:106E2D005D9006AFE0FBA3E0FAA3E0F990FFFD1241
:106E3D003BFBEBF0A3EAF0A3E9F09005C1E0FBA367
:106E4D00E0FAA3E0F91256209005C4EBF0A3EAF0A6
:106E5D00A3E9F09005C4E0FBA3E0FAA3E04A4B6080
:106E6D001D9005C4A3A3E0F99006AFEBF0A3EAF0E3
:106E7D00A3E9F09006ACEBF0A3EAF0A3E9F09006DD
:096E8D00AFE0FBA3E0FAA3E0F979
:016E960022D9
:10777400127BF49006AFE0FBA3E0FAA3E0F99000DB
:1077840020123B6CE94A4B60171278269006AFE052
:10779400FBA3E0FAA3E0F9900020123B6C123BF546
:0C77A4009006AFE0FBA3E0FAA3E0F9229E
:106429002564202564202564206E616D653A202548
:10643900730D0A00746865206D656E7520222573D9
:1064490022206469646E27742068617665207375FB
:10645900624D656E75210D0A003D3D3D3D3D3D3D59
:106469003D3D3D3D3D3D3D3D3D3D3D3D3D3D3D3D53
:106479003D3D3D3D3D3D3D3D3D3D3D3D3D3D3D3D43
:106489003D3D3D0D0A0025642E2025730D0A00634C
:10649900616E277420636F6E6E6563742069662070
:1064A900746F2073797374656D2C206279206E6F17
:1064B900742066696E64206974277320707265762A
:1064C900206D656E75210D0A0063616E2774206465
:1064D900656C6574652C206279206572726F722013
:1064E9006D656E755F44656C657465207061726178
:1064F9006D210D0A0063616E27742064656C6574F3
:10650900652C206279206E6F742066696E6420693B
:0565190074210D0A00D1
:1063330090FFFD123BFBEBF0A3EAF0A3E9F090FF23
:04634300FD123BFB11
:10634700900003123C1FE0F9A3E0FAA3E0850D8358
:10635700850E82C9F0A3EAF0A3E9F0850D83850EC7
:1063670082E0FBA3E0FAA3E04A4B700302642385B3
:106377000D83850E82E0FBA3E0FAA3E0F9900014F9
:10638700123871FF9005F0E4F0A3EFF090001512BA
:106397003871FF9005F2E4F0A3EFF0900016123881
:1063A70071FF9005F4E4F0A3EFF0A3EBF0A3EAF09C
:1063B700A3E9F07BFF7A6479291241BE850D8385B5
:1063C7000E82E0FBA3E0FAA3E0F990001D123B6CFC
:1063D700E94A4B6017850D83850E82E0FBA3E0FA3F
:1063E700A3E0F990001D123B6C126333850D838582
:1063F7000E82E0FBA3E0FAA3E0F990001A123B6CCF
:10640700E94A4B6017850D83850E82E0FBA3E0FA0E
:0C641700A3E0F990001A123B6C126333F2
:06642300900006023BFBA5
:107648009006CCEBF0A3EAF0A3E9F090001D123B02
:107658006CE94A4B9006CC601CE0FBA3E0FAA3E07F
:10766800F990001D123B6C9006CCEBF0A3EAF0A356
:10767800E9F0026333E0F9A3E0FAA3E09005F0C96A
:10768800F0A3EAF0A3E9F07BFF7A64793D1241BEEA
:0176980022CF
:0B68C3009006A5EBF0A3EAF0A3E9F0BB
:1068CE00E4A3F0A3EBF0A3EAF0A3E9F07BFF7A6474
:1068DE0079621241BE9006A9E0FBA3E0FAA3E0F9AB
:1068EE0090001D123B6CE94A4B60719006A9E0FBCB
:1068FE00A3E0FAA3E0F990001D123B6C9006A9EB01
:10690E00F0A3EAF0A3E9F09006A8E004F0E0900509
:10691E00F0F09006A9E0F9A3E0FAA3E09005F1C922
:10692E00F0A3EAF0A3E9F07BFF7A64798F1241BEFF
:10693E009006A9E0FBA3E0FAA3E0F990001A123B3F
:10694E006C9006A9EBF0A3EAF0A3E9F09006A9E09B
:10695E00FBA3E0FAA3E04A4B70AD801E9006A9E0BF
:10696E00F9A3E0FAA3E09005F0C9F0A3EAF0A3E9D9
:10697E00F07BFF7A64793D1241BE7BFF7A647962C7
:0E698E001241BE9006A5E0FBA3E0FAA3E0F9DB
:01699C0022D8
:08597E00E0FBA3E0FAA3E0F94D
:1059860090FFFD123BFBEBF0A3EAF0A3E9F090FFDA
:04599600FA123BFBCB
:10599A00900006123C1FE0F9A3E0FAA3E0850D830C
:1059AA00850E82C9F0A3EAF0A3E9F07B007A0079B8
:1059BA0000900003123C1FEBF0A3EAF0A3E9F08584
:1059CA000D83850E82E0FBA3E0FAA3E04A4B700642
:1059DA00FBFAF9025B1F900009123C1FE0FBA3E0EF
:1059EA00FAA3E0F9900014123871FF850D83850E31
:1059FA0082E0FBA3E0FAA3E0F9900014123871FEEA
:105A0A00D39F40097B007A007900025B1FEEB5073D
:105A1A002F900009123C1FE0FBA3E0FAA3E0F990E3
:105A2A000016123871FF850D83850E82E0FBA3E014
:105A3A00FAA3E0F9900016123871B50703025B1F4A
:105A4A00850D83850E82E0FBA3E0FAA3E0F99000BE
:105A5A001D123B6CE94A4B6041900009123C1FE061
:105A6A00FBA3E0FAA3E0F990FFFD123BFBEBF0A3E6
:105A7A00EAF0A3E9F0900003123C1FE0FBA3E0FA6E
:105A8A00A3E0F990001D123B6C1259869000031294
:105A9A003C1FEBF0A3EAF0A3E9F0900003123C1FCD
:105AAA00E0FBA3E0FAA3E04A4B6002805A850D832B
:105ABA00850E82E0FBA3E0FAA3E0F990001A123BFC
:105ACA006CE94A4B6041900009123C1FE0FBA3E0DD
:105ADA00FAA3E0F990FFFD123BFBEBF0A3EAF0A377
:105AEA00E9F0900003123C1FE0FBA3E0FAA3E0F9FF
:105AFA0090001A123B6C125986900003123C1FEB5D
:105B0A00F0A3EAF0A3E9F0900003123C1FE0FBA324
:055B1A00E0FAA3E0F930
:065B1F0090000C023BFBAC
:1056200090FFFD123BFBEBF0A3EAF0A3E9F090FF43
:04563000FA123BFB34
:10563400900006123C1FE0F9A3E0FAA3E0850D8375
:10564400850E82C9F0A3EAF0A3E9F07B007A007921
:1056540000900003123C1FEBF0A3EAF0A3E9F085ED
:105664000D83850E82E0FBA3E0FAA3E04A4B7006AB
:10567400FBFAF90257CB900009123C1FE0FBA3E0B0
:10568400FAA3E0F9900014123871FF14FE850D831B
:10569400850E82E0FBA3E0FAA3E0F990001412382F
:1056A40071FDD39E40097B007A0079000257CBD369
:1056B400EF9400748094804039900009123C1FE0FC
:1056C400FBA3E0FAA3E0F990001412387114B505B5
:1056D40021900015123871FF850D83850E82E0FB41
:1056E400A3E0FAA3E0F9900016123871B50703029B
:1056F40057CB850D83850E82E0FBA3E0FAA3E0F986
:1057040090001D123B6CE94A4B6041900009123C29
:105714001FE0FBA3E0FAA3E0F990FFFD123BFBEBD3
:10572400F0A3EAF0A3E9F0900003123C1FE0FBA30E
:10573400E0FAA3E0F990001D123B6C125620900091
:1057440003123C1FEBF0A3EAF0A3E9F0900003126C
:105754003C1FE0FBA3E0FAA3E04A4B6002805A85B9
:105764000D83850E82E0FBA3E0FAA3E0F990001A12
:10577400123B6CE94A4B6041900009123C1FE0FB6C
:10578400A3E0FAA3E0F990FFFD123BFBEBF0A3EAE0
:10579400F0A3E9F0900003123C1FE0FBA3E0FAA39E
:1057A400E0F990001A123B6C125620900003123C50
:1057B4001FEBF0A3EAF0A3E9F0900003123C1FE012
:0757C400FBA3E0FAA3E0F9EA
:0657CB0090000C023BFB04
:104CD80090FFFD123BFBEBF0A3EAF0A3E9F090FF95
:044CE800FA123BFB86
:104CEC00900006123C1FE0F9A3E0FAA3E0850D83C7
:104CFC00850E82C9F0A3EAF0A3E9F07B007A007973
:104D0C0000900003123C1FEBF0A3EAF0A3E9F0853E
:104D1C000D83850E82E0FBA3E0FAA3E04A4B7006FC
:104D2C00FBFAF9024F3C900009123C1FE0FBA3E098
:104D3C00FAA3E0F9900014123871FF14FE850D836C
:104D4C00850E82E0FBA3E0FAA3E0F9900014123880
:104D5C0071FDD39E40028068D3EF940074809480E0
:104D6C005003024E67900009123C1FE0FBA3E0FACF
:104D7C00A3E0F9900014123871146D6003024E67B1
:104D8C00900015123871FF850D83850E82E0FBA310
:104D9C00E0FAA3E0F99000161238716F6003024E2E
:104DAC006790001D123B6CE94A4B6014850D83859E
:104DBC000E82E0FBA3E0FAA3E0F990001D024E5333
:104DCC007B007A007900024F3C850D83850E82E0D2
:104DDC00FBA3E0FAA3E0F990001A123B6CE94A4BF2
:104DEC007003024F2E850D83850E82E0FBA3E0FA43
:104DFC00A3E0F990001A123B6C900016123871FF68
:104E0C00900009123C1FE0FBA3E0FAA3E0F990002C
:104E1C0016123871B5071F850D83850E82E0FBA332
:104E2C00E0FAA3E0F9900003123C1FEBF0A3EAF0C8
:104E3C00A3E9F0024F2E850D83850E82E0FBA3E0E3
:104E4C00FAA3E0F990001A123B6C850D83850E8253
:104E5C00EBF0A3EAF0A3E9F0024DD5850D83850EA6
:104E6C0082E0FBA3E0FAA3E0F990001D123B6CE991
:104E7C004A4B6041900009123C1FE0FBA3E0FAA3EF
:104E8C00E0F990FFFD123BFBEBF0A3EAF0A3E9F095
:104E9C00900003123C1FE0FBA3E0FAA3E0F99000A2
:104EAC001D123B6C124CD8900003123C1FEBF0A36C
:104EBC00EAF0A3E9F0900003123C1FE0FBA3E0FA38
:104ECC00A3E04A4B6002805A850D83850E82E0FB7D
:104EDC00A3E0FAA3E0F990001A123B6CE94A4B608C
:104EEC0041900009123C1FE0FBA3E0FAA3E0F9900B
:104EFC00FFFD123BFBEBF0A3EAF0A3E9F0900003FB
:104F0C00123C1FE0FBA3E0FAA3E0F990001A123B5D
:104F1C006C124CD8900003123C1FEBF0A3EAF0A3E8
:104F2C00E9F0900003123C1FE0FBA3E0FAA3E0F9C8
:064F3C0090000C023BFB9B
:1047E90090FFFD123BFBEBF0A3EAF0A3E9F090FF89
:0447F900FA123BFB7A
:1047FD00900006123C1FE0F9A3E0FAA3E0850D83BB
:10480D00850E82C9F0A3EAF0A3E9F07B007A007966
:10481D0000900003123C1FEBF0A3EAF0A3E9F08532
:10482D000D83850E82E0FBA3E0FAA3E04A4B7006F0
:10483D00FBFAF9024A5B900009123C1FE0FBA3E072
:10484D00FAA3E0F9900014123871FF14FE850D8360
:10485D00850E82E0FBA3E0FAA3E0F9900014123874
:10486D0071FDD39E40028068D3EF940074809480D4
:10487D005003024986900009123C1FE0FBA3E0FAA9
:10488D00A3E0F9900014123871146D60030249868B
:10489D00900015123871FF850D83850E82E0FBA304
:1048AD00E0FAA3E0F99000161238716F6003024927
:1048BD008690001D123B6CE94A4B6014850D838573
:1048CD000E82E0FBA3E0FAA3E0F990001D02496F10
:1048DD007B007A007900024A5B850D83850E82E0AC
:1048ED00FBA3E0FAA3E0F990001A123B6CE94A4BE6
:1048FD007003024A4D900009123C1FE0FBA3E0FA41
:10490D00A3E0F9900016123871FF850D83850E8294
:10491D00E0FBA3E0FAA3E0F9900016123871B50799
:10492D003090001A123B6CE94A4B604A850D838525
:10493D000E82E0FBA3E0FAA3E0F990001A123B6CA3
:10494D00900003123C1FEBF0A3EAF0A3E9F0024A3A
:10495D004D850D83850E82E0FBA3E0FAA3E0F9906F
:10496D00001A123B6C850D83850E82EBF0A3EAF0E5
:10497D00A3E9F00248E6024A4D850D83850E82E0DB
:10498D00FBA3E0FAA3E0F990001D123B6CE94A4B42
:10499D006041900009123C1FE0FBA3E0FAA3E0F98F
:1049AD0090FFFD123BFBEBF0A3EAF0A3E9F09000C2
:1049BD0003123C1FE0FBA3E0FAA3E0F990001D12E7
:1049CD003B6C1247E9900003123C1FEBF0A3EAF099
:1049DD00A3E9F0900003123C1FE0FBA3E0FAA3E073
:1049ED004A4B6002805A850D83850E82E0FBA3E061
:1049FD00FAA3E0F990001A123B6CE94A4B60419022
:104A0D000009123C1FE0FBA3E0FAA3E0F990FFFDC3
:104A1D00123BFBEBF0A3EAF0A3E9F0900003123C8C
:104A2D001FE0FBA3E0FAA3E0F990001A123B6C1211
:104A3D0047E9900003123C1FEBF0A3EAF0A3E9F065
:0E4A4D00900003123C1FE0FBA3E0FAA3E0F987
:064A5B0090000C023BFB81
:10742700E4FF9006CFEBF0A3EAF0A3E9F090001D8C
:10743700123B6CE94A4B60460F9006CFE0FBA3E096
:10744700FAA3E0F990001D80259006CFE0FBA3E0AA
:10745700FAA3E0F990001A123B6CE94A4B601F0F40
:107467009006CFE0FBA3E0FAA3E0F990001A123BE5
:0E7477006C9006CFEBF0A3EAF0A3E9F080CB17
:0174850022E4
:10753F00E4FF80499005C9E0FBA3E0FAA3E0F990CE
:10754F000017123B6CE94A4B60409005C9E0FBA362
:10755F00E0FAA3E0F9900017123B6C900014123878
:10756F0071FE9005C9E0FBA3E0FAA3E0F9900014C7
:10757F00123871B506140F900017123B6C9005C9A5
:0A758F00EBF0A3EAF0A3E9F080AAF4
:0175990022CF
:0B53E0009005C1EBF0A3EAF0A3E9F098
:1053EB009005EAE4F0A3F0A3F09005C4E0FBA3E082
:1053FB00FAA3E0F9900014123871149005DBF090C9
:10540B0000151238719005DDF07B017A0579C79094
:10541B00FFFD123BFBEBF0A3EAF0A3E9F09005C113
:10542B0012597E9005EAEBF0A3EAF0A3E9F09005A0
:10543B00EAE0FBA3E0FAA3E04A4B700302560B90A1
:10544B0005EAA3A3E0F990001D123B6CE94A4B70EF
:10545B00229005C4E0FBA3E0FAA3E0F9C003C0026D
:10546B00C0019005EAE0FBA3E0FAA3E0F990001D70
:10547B000255E49005EAE0FBA3E0FAA3E0F9900003
:10548B001D80419005C4E0FBA3E0FAA3E0F9900076
:10549B0016123871FF9005EAE0FBA3E0FAA3E0F9DE
:1054AB00900016123871FED39F502990001A123BB0
:1054BB006CE94A4B601E9005EAE0FBA3E0FAA3E01F
:1054CB00F990001A123B6C9005EAEBF0A3EAF0A3FB
:1054DB00E9F080AFEFC39E40030255C59005EAE0AB
:1054EB00FBA3E0FAA3E0F9900017123B6C900014B9
:1054FB00123871FF9005C4E0FBA3E0FAA3E0F9902A
:10550B000014123871FEEFC39E501CC003C002C0C2
:10551B00019005EAE0FBA3E0FAA3E0F99000171273
:10552B003B6C90001D80259005C4E0FBA3E0FAA323
:10553B00E0F9C003C002C0019005EAE0FBA3E0FA6A
:10554B00A3E0F9900017123B6C90001A123B9C9051
:10555B0005EAE0FBA3E0FAA3E0F9900017123B6C1D
:10556B00C003C002C0019005C4E0FBA3E0FAA3E0B6
:10557B00F9900017123B9C9005C4E0FBA3E0FAA343
:10558B00E0F9C003C002C0019005EAE0FBA3E0FA1A
:10559B00A3E0F9900017123B9C9005EAE0FBA3E017
:1055AB00FAA3E0F9C003C002C0019005C4E0FBA35D
:1055BB00E0FAA3E0F990001A80419005C4E0FBA348
:1055CB00E0FAA3E0F9C003C002C0019005EAE0FBDA
:1055DB00A3E0FAA3E0F990001A123B9C9005EAE0D5
:1055EB00FBA3E0FAA3E0F9C003C002C0019005C41D
:1055FB00E0FBA3E0FAA3E0F9900017123B9C8009B3
:10560B007BFF7A6479981241BE9005C1E0FBA3E061
:04561B00FAA3E0F915
:01561F002268
:0B4F420090067BEBF0A3EAF0A3E9F07F
:104F4D00900681E4F0A3F0A3F090067EE0FBA3E0D1
:104F5D00FAA3E0F990FFFD123BFBEBF0A3EAF0A3FF
:104F6D00E9F090067B12597E900681EBF0A3EAF0F2
:104F7D00A3E9F0900681E0FBA3E0FAA3E04A4B70B1
:104F8D000302515090067BE0FBA3E0FAA3E0F9C0C9
:104F9D0003C002C001900681E0FBA3E0FAA3E0F993
:104FAD00D082D083D0E06B7008E965827003EA652A
:104FBD00837003025150900681E0FBA3E0FAA3E059
:104FCD00F990001A123B6CE94A4B6003025067904E
:104FDD000681E0FBA3E0FAA3E0F9900017123B6C09
:104FED00900014123871FF900681E0FBA3E0FAA344
:104FFD00E0F9900014123871FEEFC39E7B007A0029
:10500D007900501CC003C002C001900681E0FBA3D3
:10501D00E0FAA3E0F9900017123B6C90001D801A86
:10502D00C003C002C001900681E0FBA3E0FAA3E03B
:10503D00F9900017123B6C90001A123B9C7B007A82
:10504D00007900C003C002C001900681E0FBA3E01F
:10505D00FAA3E0F990001702514B900681E0FBA3F3
:10506D00E0FAA3E0F9900017123B6C90001412388F
:10507D0071FF900681E0FBA3E0FAA3E0F990001424
:10508D00123871FEEFC39E502290001A123B6CC075
:10509D0003C002C001900681E0FBA3E0FAA3E0F992
:1050AD00900017123B6C90001D802B900681E0FB49
:1050BD00A3E0FAA3E0F990001A123B6CC003C00202
:1050CD00C001900681E0FBA3E0FAA3E0F990001780
:1050DD00123B6C90001A123B9C900681E0FBA3E002
:1050ED00FAA3E0F9900017123B6CC003C002C00197
:1050FD00900681E0FBA3E0FAA3E0F990001A123BC1
:10510D006C900017123B9C7B007A007900C003C0A5
:10511D0002C001900681E0FBA3E0FAA3E0F9900044
:10512D0017123B9C7B007A007900C003C002C001BE
:10513D00900681E0FBA3E0FAA3E0F990001A123B80
:10514D009C803E90067BE0FBA3E0FAA3E0F9C00350
:10515D00C002C001900681E0FBA3E0FAA3E0F9D004
:10516D0082D083D0E06B7008E965827003EA6583B5
:10517D007BFF70067A6479D280047A6479FE1241DD
:0C518D00BE90067BE0FBA3E0FAA3E0F973
:0151990022F3
:107AF30048656C6C6F204335312100736372656593
:097B03006E20667265713A2000E3
:0860E60041064D0041064C1E6D
:107BDE007BFF7A7A79F39005CE7408F0A37401F0E6
:067BEE00E4FDFF026D4DF5
:1077EC007BFF7A7A79FE9005CE7408F0A37401F0D1
:1077FC00E4FDFF126D4D90064CE0FFE4FCFDFE90A5
:10780C0005BF123B2F9005C37403F0A37408F0A3BB
:0A781C007401F0E4FD7F6802622CA5
:107AD800EFFDC3940A74809480400FD3ED943C74F6
:0B7AE800809480500590064CEFF022C7
:0F7C7D0012782690064CE004FF127AD80277ECBA
:0F7C8C0012782690064CE014FF127AD80277EC9B
:1076990090064EEEF0A3EFF0AF05A3ECF0A3EFF0E8
:1076A900AF03A3EAF0A3EFF09005C7E0FFA3E090D2
:1076B9000654CFF0A3EFF09005C9E0FFA3E09006D0
:1076C90056CFF0A3EFF09005CBE0FFA3E09006586A
:0C76D900CFF0A3EFF07B017A06794E227F
:066C9800900684123B2F60
:106C9E00E4900688F0900684E0FCA3E0FDA3E0FEFD
:106CAE00A3E0FF900689123B2F900689E0FCA3E03B
:106CBE00FDA3E0FEA3E0FFE47B0AFAF9F8123A49DD
:106CCE00900689123B2F900688E004F0A3E0FCA307
:106CDE00E0FDA3E0FEA3E0FFEC4D4E4F70CB90061F
:106CEE0088E0FD75F008A4C39480E5F0648094807C
:106CFE005011ED75F008A4FB9005CC7420F0E4A3C0
:106D0E00F0800B9005CC7420F0E4A3F07B7F7D180F
:106D1E00FF1278D1900684E0FCA3E0FDA3E0FEA371
:106D2E00E0FF9005BF123B2F900688E09005C3F060
:0F6D3E00A37408F0A37401F07D10E4FF02622C2F
:10726D00900656E0FEA3E0FFC390069EE09F9006B9
:10727D009DE09E5015900658E0FEA3E0FFC39006DA
:10728D00A0E09F90069FE09E40037FFF2290069D09
:10729D00E0FCA3E0FD900652E0FEA3E0FF1238F300
:1072AD009006A1EEF0A3EFF090069FE0FCA3E0FDA9
:1072BD00900654E0FEA3E0FF1238F39006A3EEF023
:1072CD00A3EFF0FD9006A1A3E0FF127486EFFD7C05
:0972DD0000BCFF05BDFF02E4FF47
:0172E6002285
:097CF80090064EE0FEA3E0FF221D
:097D0100900650E0FEA3E0FF2211
:097D0A00900652E0FEA3E0FF2206
:097D1300900654E0FEA3E0FF22FB
:097D1C00900656E0FEA3E0FF22F0
:097D2500900658E0FEA3E0FF22E5
:10611100900656E0FEA3E0FFC390062CE09F900698
:106121002BE09E400302622B900658E0FEA3E0FFA5
:10613100C390062EE09F90062DE09E400302622B45
:1061410090062BE0FAA3E0FB900652E0FEA3E0FFED
:10615100AD03AC021238F3900638EEF0A3EFF090E5
:10616100062DE0FCA3E0FD900654E0FEA3E0FF1243
:1061710038F390063AEEF0A3EFF0EB2401FFE43A96
:10618100FE900652E0FCA3E0FD1238F3900634EED7
:10619100F0A3EFF090062EE02401FF90062DE034ED
:1061A10000FE900654E0FCA3E0FD1238F3900636A1
:1061B100EEF0A3EFF0A3E0FFA3E0900630CFF0A351
:1061C100EFF0900634E0FEA3E0FFC3900631E09FBC
:1061D100900630E09E505390063AE0FFA3E090060F
:1061E10032CFF0A3EFF0900636E0FEA3E0FF900679
:1061F10032E0FCA3E0FDC39FEC9E501E900630A34D
:10620100E0FF90062FE0FB126BF4900633E004F000
:106211007006900632E004F080CC900631E004F084
:0A6221007006900630E004F080984B
:01622B002250
:101CA6000000000000000000000060FAFA6000007A
:101CB60000C0C000C0C0000028FEFE28FEFE2800AE
:101CC6002474D6D65C48000062660C18306646005E
:101CD6000C5EF2BEEA5E12002070C000000000003A
:101CE600001C3E63410000000041633E1C000000F2
:101CF600082A3E1C1C3E2A0808083E3E080800002A
:101D0600000107060000000008080808080800008F
:101D16000000060600000000060C183060C08000B7
:101D26007CFEE2B29AFE7C003262FEFE02020000F7
:101D360046CE9A92F666000044C69292FE6C000069
:101D4600183868CAFEFE0A00E4E6A2A2AE9C0000AD
:101D56003C7ED2929E1C0000C0C08E9EF0E0000029
:101D66006CFE9292FE6C000060F29296FC78000087
:101D760000006666000000000001676600000000C3
:101D860010386CC6820000004242424242420000C5
:101D96000082C66C3810000040C08A9AF0600000CD
:101DA6007CFE82BABAF878003FFFC8C8FF3F000041
:101DB60082FEFE9292FE6C00387CC68282C6440089
:101DC60082FEFE82C67C380082FEFE92BA82C60081
:101DD60082FEFE92B880C00038FEC6828ACE4E00D1
:101DE600FEFE1818FEFE00000082FEFE82000000C5
:101DF6000C0E0282FEFC800082FEFE1038EEC6004B
:101E060082FEFE8202060E00FEFE703870FEFE00A6
:101E1600FEFE601806FEFE00387CC682C67C3800D0
:101E260082FEFE9290F0600078FC848EFE7A0000BE
:101E3600FEFE9098FE66000064F6B29ACE4C000054
:101E4600C082FEFE82C00000FEFE0202FEFE000010
:101E5600F8FC0606FCF80000FEFE0C180CFEFE0060
:101E6600C2E63C183CE6C200E0F21E1EF2E00000AC
:101E7600E2C68E9AB2E6CE0000FEFE828200000026
:101E860080C06030180C0600008282FEFE00000052
:101E9600103060C060301000010101010101010134
:101EA6000000C0E020000000042E6A4A6A3E0200DC
:101EB60082FEFC12121E0C001C3E2222361400006A
:101EC6000C1E1292FCFE02001C3E2A2A3A18000042
:101ED60012FEFE92C0400000193D25251F3E20003F
:101EE60082FEFE10203E1E000022BEBE0200000042
:101EF60006070101BFBE000082FEFE081C36220056
:101F06000082FEFE020000003E3E181C383E1E0007
:101F16003E3E20203E1E00001C3E22223E1C0000AB
:101F2600213F1F25253C1800183C24251F3F210072
:101F3600243E1E3220381800123A2A2A2E24000087
:101F460000207CFE222400003C3E02023C3E0200B1
:101F5600383C06063C3800003C3E0E1C0E3E3C005B
:101F660022361C081C362200393D05053F3E00007E
:101F760032262E3A3226000010107CEE82820000B5
:101F86000000007E7E0000008282EE7C10100000C1
:101F960040C080C040C0800000000000000000007B
:101FA60000000000000000003F40000000000000AC
:101FB60000003000400030004000000009000BC067
:101FC6003D000BC03D00090018C024407FE02240C0
:101FD60031800000180024C01B000D8032400180B3
:101FE60003801C4027401C80074000401000600012
:101FF60000000000000000000000000000001F803C
:10200600204040200000402020401F8000000000AB
:10201600090006001F8006000900000004000400F5
:102026003F80040004000000001000600000000073
:102036000000000004000400040004000400000086
:10204600000000400000000000000000002001C069
:1020560006003800400000001F802040204020403D
:102066001F800000000010403FC00040000000003C
:1020760018C0214022402440184000001080204013
:10208600244024401B80000002000D0011003FC0C8
:10209600014000003C80244024402440238000006E
:1020A6001F8024402440344003800000300020007C
:1020B60027C03800200000001B8024402440244014
:1020C6001B8000001C0022C0224022401F8000000E
:1020D60000000000084000000000000000000000B2
:1020E6000460000000000000000004000A00110067
:1020F600208040400900090009000900090000008D
:1021060000004040208011000A0004001800200052
:1021160023402400180000001F802040274029404B
:102126001F400000004007C039000F0001C00040FA
:1021360020403FC0244024401B8000001F802040D8
:10214600204020403080000020403FC020402040FA
:102156001F80000020403FC024402E4030C00000B9
:1021660020403FC024402E00300000000F001080A9
:10217600204022403380020020403FC0040004007B
:102186003FC02040204020403FC02040204000006B
:102196000060202020203FC02000200020403FC0BB
:1021A60024400B0030C0204020403FC0204000406B
:1021B600004000C03FC03C0003C03C003FC00000E0
:1021C60020403FC00C4023003FC020001F8020401D
:1021D600204020401F80000020403FC024402400B3
:1021E600180000001F802140214020E01FA00000B1
:1021F60020403FC02440260019C0004018C024409B
:102206002440224031800000300020403FC0204062
:102216003000000020003F80004000403F8020004A
:1022260020003E0001C0070038002000380007C02B
:102236003C0007C038000000204039C0060039C005
:10224600204000002000384007C038402000000031
:10225600304021C02640384020C000000000000069
:102266007FE0402040200000000070000C0003804A
:10227600004000000000402040207FE000000000F9
:1022860000002000400020000000000000100010A8
:1022960000100010001000100000000040000000B8
:1022A60000000000000002800540054003C0004019
:1022B60020003FC00440044003800000000003806B
:1022C600044004400640000000000380044024400F
:1022D6003FC0004000000380054005400340000069
:1022E600000004401FC0244024402000000002E0FB
:1022F600055005500650042020403FC0044004000D
:1023060003C000400000044027C000400000000059
:1023160000100010041027E00000000020403FC01D
:102326000140070004C00440204020403FC0004058
:102336000040000007C0040007C0040003C00000FE
:10234600044007C00440040003C0004000000380AE
:102356000440044003800000041007F004500440C9
:1023660003800000000003800440045007F00010C2
:10237600044007C0024004000400000000000640BC
:102386000540054004C00000000004001F80044012
:1023960000400000040007800040044007C00040E1
:1023A6000400070004C0018006000400060001C006
:1023B600070001C006000000044006C0010006C078
:1023C600044000000410071004E001800600040029
:1023D6000000044005C00640044000000000000064
:1023E60004007BE040200000000000000000FFF039
:1023F60000000000000040207BE004000000000018
:102406004000800040002000200040000000000046
:1024160000000000000000000000000000000000B6
:1024260000001FCC000C00000000000000000800A7
:10243600300060000800300060000000022003FC4D
:102446001E20022003FC1E200220000000000E18A1
:1024560011043FFF10840C78000000000F00108468
:102466000F3800C0077818840078000000780F84C1
:1024760010C411240E9800E40084000808006800C7
:1024860070000000000000000000000000000000D6
:10249600000007E018182004400200000000400277
:1024A6002004181807E00000000000000240024067
:1024B60001800FF001800240024000000080008091
:1024C60000800FF800800080008000000001000DF1
:1024D600000E000000000000000000000000008068
:1024E6000080008000800080008000800000000CDA
:1024F600000C0000000000000000000000000006C4
:10250600001800600180060018002000000007F097
:10251600080810041004080807F00000000008046A
:1025260008041FFC000400040000000000000E0C5C
:1025360010141024104411840E0C000000000C1816
:1025460010041104110412880C700000000000E051
:102556000320042408241FFC0024000000001F9808
:10256600108411041104108810700000000007F098
:1025760008881104110418880070000000001C006F
:10258600100010FC13001C001000000000000E38A4
:1025960011441084108411440E3800000000070016
:1025A600088C10441044088807F000000000000062
:1025B6000000030C030C00000000000000000000F7
:1025C600000101060000000000000000000000807D
:1025D6000140022004100808100400000220022016
:1025E6000220022002200220022000000000100427
:1025F60008080410022001400080000000000E00C0
:102606001200100C106C10800F00000003E00C1874
:1026160013E4142417C4082807D000000004003C63
:1026260003C41C40074000E4001C000410041FFC07
:102636001104110411040E880070000003E00C1848
:1026460010041004100410081C10000010041FFCD5
:10265600100410041004080807F0000010041FFC02
:102666001104110417C410040818000010041FFCFC
:102676001104110017C010000800000003E00C1838
:102686001004100410441C780040000010041FFCC5
:1026960010840080008010841FFC100400001004C9
:1026A60010041FFC100410040000000000030001C9
:1026B600100110011FFE10001000000010041FFC86
:1026C600110403801464181C1004000010041FFC7D
:1026D6001004000400040004000C000010041FFC99
:1026E6001F0000FC1F001FFC1004000010041FFC4C
:1026F6000C04030000E010181FFC100007F0080887
:10270600100410041004080807F0000010041FFC51
:1027160010841080108010800F00000007F0081849
:1027260010241024101C080A07F2000010041FFCD5
:102736001104110011C011300E0C000400000E1C13
:1027460011041084108410441C3800001800100076
:1027560010041FFC100410001800000010001FF8E1
:1027660010040004000410041FF8100010001E00DE
:1027760011E0001C007013801C0010001FC0103CEC
:1027860000E01F0000E0103C1FC000001004180C01
:10279600163401C001C01634180C100410001C00B9
:1027A600130400FC13041C00100000000804101C95
:1027B6001064108413041C041018000000000000AC
:1027C60000007FFE40024002400200000000300090
:1027D6000C0003800060001C0003000000004002A3
:1027E600400240027FFE00000000000000000000E2
:1027F60020004000400040002000000000010001D1
:10280600000100010001000100010001000040007C
:1028160040002000000000000000000000000098BA
:10282600012401440144014400FC000410001FFC83
:102836000088010401040088007000000000007098
:1028460000880104010401040088000000000070F3
:1028560000880104010411081FFC0004000000F8B0
:10286600014401440144014400C800000000010481
:1028760001040FFC1104110411001800000000D619
:1028860001290129012901C90106000010041FFCC4
:10289600008401000100010400FC000400000104A2
:1028A600190419FC000400040000000000000003E5
:1028B60000010101190119FE0000000010041FFCAF
:1028C6000024004001B4010C0104000000001004C3
:1028D60010041FFC0004000400000000010401FCB9
:1028E6000104010001FC0104010000FC010401FCDB
:1028F600008401000100010400FC0004000000F84F
:10290600010401040104010400F80000010101FFB3
:1029160000850104010400880070000000000070BA
:10292600008801040104010501FF000101040104FE
:1029360001FC00840104010001800000000000CCBD
:102946000124012401240124019800000000010053
:10295600010007F80104010400000000010001F86D
:10296600000400040004010801FC000401000180C9
:102976000170000C001001600180010001F0010CE3
:10298600003001C00030010C01F00100000001041C
:10299600018C00740170018C0104000001010181A9
:1029A6000171000E00180160018001000000018421
:1029B600010C013401440184010C000000000000F8
:1029C6000000000001003EFC400240020000000042
:1029D60000000000FFFF00000000000000004002B1
:1029E60040023EFC01000000000000000000600004
:1029F6008000800040004000200020000000000011
:102A060000000000000000000000000000000000C0
:102A160000000000000000000000000000000000B0
:102A26000000000000000000000000000000000F91
:102A360080380FFE380F80380000000000000000CC
:102A46000000000000000000000001000006000079
:102A56000C00003800003100000600000C000038B1
:102A660000003000000000000000000061800067E8
:102A7600F807F98000618000618000618000618054
:102A86000067F807F9800061800000000000000080
:102A9600000001C0E003E0F00630080418081FFF3C
:102AA600FE040E080787F00381E000000000000026
:102AB60001F000060C00040408060C7001F9C000C1
:102AC6000E00003BE000EC18070808040C18000391
:102AD600E00000000001E00007F003F818041C08FD
:102AE60004170807E1D003C0E00023B0003C08004B
:102AF6002008000010000000000000010000310066
:102B0600003200001C000000000000000000000071
:102B160000000000000000000000000000000000AF
:102B26000000000000000000000000007F0001FF20
:102B3600C00780F00C0018100004200002000000FE
:102B46000000002000021000040C00180780F001AD
:102B5600FFC0007F00000000000000000000000031
:102B66000000000000000000420000660000660051
:102B7600003C0000180003FFC0001800003C0000E5
:102B86006600006600004200000000000800000821
:102B96000000080000080000080001FFC00008004F
:102BA60000080000080000080000080000000000FF
:102BB600000100003100003200001C00000000008F
:102BC60000000000000000000000000000000000FF
:102BD60000000000080000080000080000080000CF
:102BE60008000008000008000008000008000008AF
:102BF600000000000000000000000000380000385F
:102C06000000380000000000000000000000000086
:102C160000000000000000000000000000060000A8
:102C26001C000070000180000E0000380000C0008B
:102C36000700001C0000300000000000000000003B
:102C46007F8001FFE003807006001804000804007E
:102C56000806001803807001FFE0007F8000000076
:102C66000000000000000100080100080100080340
:102C7600FFF807FFF8000008000008000008000041
:102C86000000000000000001C03802C0580400988F
:102C9600040118040218040418061C1803F8180185
:102CA600E0F800000000000000000001C0E003C0E2
:102CB600F004000804080804080806180803F418B5
:102CC60001E7F00001E00000000000000000000045
:102CD6000300000D000011000061000081080301DF
:102CE6000807FFF80FFFF8000108000108000000C0
:102CF6000000000000E007FCD006080806100806E1
:102D06001008061008061838060FF00607C000005F
:102D160000000000000000003F8001FFE003843057
:102D260002081804100804100804100807181003F5
:102D36000FF00007C000000000000000000003C004
:102D4600000700000600000600F80607F80618004F
:102D560006E0000700000600000000000000000179
:102D6600E1E003F7F0063410041808041808040C10
:102D760008040C0806161803F3F001C1E000000071
:102D860000000000F80003FC3003063804020804C3
:102D960002080402080404100308F001FFC0007FC3
:102DA600000000000000000000000000000000001D
:102DB6000000000070380070380070380000000015
:102DC60000000000000000000000000000000000FD
:102DD6000000000000000000301A00301C00000057
:102DE60000000000000000000000000000000000DD
:102DF60000000008000014000022000041000080CE
:102E060080010040020020040010080008000000B5
:102E16000000000021000021000021000021000028
:102E260021000021000021000021000021000021D6
:102E36000000000000000000000008000804001068
:102E460002002001004000808000410000220000B6
:102E5600140000080000000000000003C00004C0C9
:102E660000040000080038080F3808083808100069
:102E76000C300007E00003C0000000000000000066
:102E86003F8000FFE0038070020F1006708804C0C8
:102E960088048308047F8802C09003012000FE4056
:102EA6000000080000180001F8003E0801C20007F3
:102EB600020007E20000FE00001FC80001F8000043
:102EC6003800000804000807FFF807FFF8040808A0
:102ED60004080804080804080806180803F418017A
:102EE600E7F00001E0000000000000003F8001FF65
:102EF600E0038070020018040008040008040008BB
:102F06000400100600200780C00000000400080727
:102F1600FFF807FFF804000804000804000804008E
:102F26001802001003807001FFE0007F800000009F
:102F360004000807FFF807FFF80408080408080457
:102F46000808040808043E080400080600180100E2
:102F56006000000004000807FFF807FFF8040808EF
:102F6600040800040800040800043E0006000006E9
:102F76000000018000000000000000003F8001FF0B
:102F8600E003807006001804000804020804020822
:102F96000203F00783F000020000020004000807A5
:102FA600FFF807FFF80408080008000008000008FA
:102FB6000000080004080807FFF807FFF8040008E7
:102FC60000000000000004000804000804000807D0
