:03000000026B7B15
:106B7B00787FE4F6D8FD750D10750E007581210236
:026B8B006BC8D5
:04001E007F4EDFFE34
:0100220022BB
:107624007D027C00ED1D70011C144C70F7EF1F707F
:06763400011E144E70EA75
:01763A00222D
:10763B007D0B7C00ED1D70011C144C70F7EF1F705F
:06764B00011E144E70EA5E
:017651002216
:107652007D167C00ED1D70011C144C70F7EF1F703D
:06766200011E144E70EA47
:0176680022FF
:107669007DA37C08ED1D70011C144C70F7EF1F7091
:06767900011E144E70EA30
:01767F0022E8
:104A5B00EFD394077480948040037F01221238585F
:104A6B00FED394037480948040037F0222EF704442
:104A7B00EE700B900001123871F45293529412386D
:104A8B00586401700B9000011238714293F45294E8
:104A9B00123858FE6402700A90000112387142936A
:104AAB004294EE6403700D900001123871FEF452C3
:104ABB0093EE4294EF64017046123858FE700B90DF
:104ACB000001123871F452915292EE6401700B9006
:104ADB0000011238714291F45292123858640270EC
:104AEB000A900001123871429142921238586403B5
:104AFB00700D900001123871FEF45291EE4292EF5C
:104B0B0064027046123858FE700B90000112387117
:104B1B00F452955296EE6401700B900001123871AD
:104B2B004295F452961238586402700A90000112A2
:104B3B003871429542961238586403700D900001FB
:104B4B00123871FEF45295EE4296EF6403704612E2
:104B5B003858FE700B900001123871F452B152B2FA
:104B6B00EE6401700B90000112387142B1F452B235
:104B7B001238586402700A90000112387142B14227
:104B8B00B21238586403700D900001123871FEF4A4
:104B9B0052B1EE42B2EF64047046123858FE700BFD
:104BAB00900001123871F452B352B4EE6401700BE1
:104BBB0090000112387142B3F452B41238586402A7
:104BCB00700A90000112387142B342B41238586423
:104BDB0003700D900001123871FEF452B3EE42B423
:104BEB00EF64057046123858FE700B9000011238B6
:104BFB0071F452C952CAEE6401700B900001123865
:104C0B007142C9F452CA1238586402700A900001FA
:104C1B0012387142C942CA1238586403700D9000A1
:104C2B0001123871FEF452C9EE42CAEF64067046A7
:104C3B00123858FE700B900001123871F452CB529F
:104C4B00CCEE6401700B90000112387142CBF45220
:104C5B00CC1238586402700A90000112387142CBA2
:104C6B0042CC1238586403700D900001123871FE5B
:104C7B00F452CBEE42CCEF64077049123858FF7EEA
:104C8B0000700B900001123871F452E152E2EF64A4
:104C9B00014E700B90000112387142E1F452E21296
:104CAB0038586402700A90000112387142E142E2F6
:104CBB001238586403700D900001123871FFF452D2
:074CCB00E1EF42E27F00224D
:03001B00020026BA
:03002600B2EE3205
:03009B0002005E02
:03005E00B2EC32CF
:0300A300020095C3
:03009500B2EB3299
:1044B200AD07EDD394047480948040037F0122ED14
:1044C2006003024587C28C90000212387164017049
:1044D20004D2A98002C2A9900001123871FED394BD
:1044E200037480948040037F0222EEFF7E007005F9
:1044F20053B7FDC2B9EF64014E700553B7FDD2B98F
:10450200EF64024E700543B702C2B9EF64034E7006
:104512000543B702D2B9123858FEC394037480948B
:104522008040037F0222E58954FC4EF58990000306
:10453200123871FF7E0064017003538E7FEF4E705C
:1045420003438E80EF64024E700543890480035357
:1045520089FB90000412387164017005438F018059
:1045620003538FFE900005123986E5F0F58C90001A
:1045720005123986F58A90000712387164017002BB
:10458200D28C7F0022ED64016003024654C28E90F9
:10459200000212387164017004D2AB8002C2AB9087
:1045A2000001123871FED394037480948040037F1B
:1045B2000222EEFF7E00700553B7F7C2BBEF640123
:1045C2004E700553B7F7D2BBEF64024E700543B786
:1045D20008C2BBEF64034E700543B708D2BB123862
:1045E20058FEC394037480948040037F0222EEC479
:1045F20054F0FFE58954CF4FF589900003123871CA
:10460200FF7E0064017003538EBFEF4E7003438E32
:1046120040EF64024E700543894080035389BF9086
:10462200000412387164017005438F028003538FB6
:10463200FD900005123986E5F0F58D9000051239DE
:1046420086F58B90000712387164017002D28E7F5A
:104652000022ED6402707C538EEF900002123871DA
:104662006401700543AF04800353AFFB9000031253
:104672003871FED394027480948040037F0222EE4C
:10468200FF7E0064017003538EFBEF4E7003438E76
:1046920004EF64024E7005438E088003538EF79038
:1046A200000412387164017005438F048003538F34
:1046B200FB900005123986E5F0F5D6900005123917
:1046C20086F5D790000712387164017003438E108B
:1046D2007F0022ED6403707C53D1F7900002123800
:1046E200716401700543AF20800353AFDF90000374
:1046F200123871FED394027480948040037F0222A8
:10470200EEFF7E006401700353D1FDEF4E70034350
:10471200D102EF64024E700543D104800353D1FBF2
:104722009000041238716401700543D10180035373
:10473200D1FE900005123986E5F0F5D490000512FD
:104742003986F5D59000071238716401700343D1A0
:10475200087F0022ED640460030247E053D17F909A
:1047620000021238716401700543AF40800353AFF9
:10477200BF900003123871FD7C00D39402748094C0
:104782008040037F0222ED64014C700353D1DF901D
:104792000003123871700343D12090000312387164
:1047A2006402700543D140800353D1BF90000412CC
:1047B20038716401700543D110800353D1EF90002A
:1047C20005123986FDACF0ECF5D2AF058FD390001F
:1047D200071238716401700343D1807F00227F0287
:0147E20022B4
:0B5194009005C6EBF0A3EAF0A3E9F0E1
:10519F00EF640160030253D790040104F0E4A3F01D
:1051AF00A3F0A3F0A3F0A3F0A3F0FFEFC3948074D8
:1051BF00809480500F74882FF582E43404F583E4D3
:1051CF00F00F80E7E4FFEFC3948074809480500F5A
:1051DF0074082FF582E43404F583E4F00F80E79030
:1051EF0005C6E0FBA3E0FAA3E0F990000A123871BC
:1051FF00FD7C00D394037480948040037F0222EDE2
:10520F004C700553B7EFC2BC9005C6E0FBA3E0FAA4
:10521F00A3E0F990000A1238716401700553B7EFDB
:10522F00D2BC90000A123871FF7E006402700543F1
:10523F00B710C2BCEF64034E700543B710D2BC1257
:10524F003858FD7C00D394C07480948040037F0253
:10525F0022123858FFE598543F4FF598ED64C04C33
:10526F006008EF6440600302535A900002123AFF45
:10527F007F007E607D547C00123A499005C9123B35
:10528F002FE4FFFE7D01FC9005C9E0F8A3E0F9A330
:10529F00E0FAA3E0FBC3123ADB40037F0222900542
:1052AF00C9E0F8A3E0F9A3E0FAA3E0FBC3E49BFF96
:1052BF00E49AFE740199FDE498FC9005C9123B2F06
:1052CF009005C6E0FBA3E0FAA3E0F99000011238C5
:1052DF0071FB7A0064017038C28E538EFE5389BF02
:1052EF005389CF438E409005C9E0FCA3E0FDA3E0B6
:1052FF00FEA3E0FF7808123AEC8F8D9005C9A3A3A7
:10530F00A3E0F58BC2AB5389BF538FFDD28E807A4A
:10531F00EB64024A7032538EEF438E01538EF74384
:10532F008E049005C9E0FCA3E0FDA3E0FEA3E0FF1F
:10533F007808123AEC8FD69005C9A3A3A3E0F5D74E
:10534F0053AFFB438E1080427F02229005C6E0FBD5
:10535F00A3E0FAA3E0F9123858FF7E007014900012
:10536F000812387164017005438E20801D538EDF43
:10537F008018EF64804E701290000812387164012B
:10538F007005438780800353877F9005C6E0FBA39A
:10539F00E0FAA3E0F990000912387164017004D2A9
:1053AF00AC8002C2AC90000712387164017004D255
:1053BF009C8002C29C90000B12387154C0FFE5A272
:0A53CF00543F4FF5A27F00227F0239
:0153D90022B1
:10745900900403E02488F582E43404F583EFF09086
:107469000403E004F0C39480748094804002E4F043
:0B747900900404E0700404F0D299229B
:1076D800123858FF600C127459740129F9E43AFA07
:0376E80080EE220F
:10673A00900001123871FFE5DE54F04FF5DE90004B
:10674A00021238716401700543BC80800353BC7F18
:10675A009000031238716401700543DE20800353F0
:10676A00DEDF90000512387164017004D2AD800238
:10677A00C2AD900004123871FF7E00D39403748076
:10678A0094805072EF700553B7DFC2BDEF64014EBB
:10679A00700553B7DFD2BDEF64024E700543B720D0
:1067AA00C2BDEF64034E700543B720D2BD123858FC
:1067BA00D3941F74809480503D900006123871FF64
:1067CA00D3940174809480502D900007123871FE82
:1067DA00D3940374809480501D43BA80EEC433541A
:1067EA00E0FEEFC433333354804EFF1238584F90D3
:0767FA00FEA8F053BA7F2254
:0D000E00EF6401700443BC802253BC7F22CC
:105D7F00EFD3940F748094804003025E95E4F5BDD9
:105D8F00F5BEE5BC54F044404FF5BC0000000000E8
:105D9F0000000000000000000000000000000000F4
:105DAF0000000000000000000000000000000000E4
:105DBF0000000000000000000000000000000000D4
:105DCF0000000000000000000000000000000000C4
:105DDF0000000000000000000000000000000000B4
:105DEF0000000000000000000000000000000000A4
:105DFF000000000000000000000000000000000094
:105E0F000000000000000000000000000000000083
:105E1F000000000000000000000000000000000073
:105E2F000000000000000000000000E4FDEDC3943E
:105E3F00FA74809480504FE5BC30E54753BCDFE5E2
:105E4F00DEAFBD30E50DEFFEACBEECFBEBFF900619
:105E5F00C480229006C4E4F0A3EFF0E5BEC4540F53
:105E6F00FBE0C4F8540FC868FF9006C4E0C454F0B8
:105E7F0048FEEF4BFFEEF0A3EFF09006C4E0FEA359
:0A5E8F00E0FF220D80A77E107F00C7
:015E990022E6
:105FB50044068A000000004206860000420688006A
:015FC50000DB
:10748400E49005BAF0A304F0A3F0E4A3F0A3F0A3FE
:1074940074B8F0A3E4F0A304F07B017A0579BAE4AC
:0774A400FF1244B2EF70F289
:0174AB0022BE
:107542009005BC7401F0E4A3F0A3F0A374CAF0A305
:10755200E4F0A304F07B017A0579BA7F021244B207
:03756200EF70F2D5
:017565002203
:0C775300900645741EF01274840275420A
:03000B00026FFE83
:106FFE00C0E0C0F0C083C082C0D075D000C000C059
:07700E0004C005C006C00725
:10701500900687E004F07006900686E004F090067E
:1070250045E0FD7C007E047FB0123905C3900687DC
:10703500E09F900686E09E400BE4F0A3F0900646A4
:04704500E04401F032
:10704900D007D006D005D004D000D0D0D082D083CC
:05705900D0F0D0E03290
:03006300026F8D9C
:106F8D00C0E0C0F0C083C082C0D075D000C000C0CA
:076F9D0004C005C006C00797
:106FA400900689E004F07006900688E004F0C3902F
:106FB4000689E09440900688E094064028E4F0A313
:106FC400F0A3E0FCA3E0FDA3E0FEA3E02401FFE4C2
:106FD4003EFEE43DFDE43CFC90068A123B2F900605
:056FE40046E04402F04C
:106FE900D007D006D005D004D000D0D0D082D0832D
:056FF900D0F0D0E032F1
:1074F8000D0A5354433848384B36345520554152B9
:10750800543120546573742050726F6772616D6DC9
:0575180065210D0A00D1
:105FC60043068E01040142069304884206910408A2
:045FD60041069500EB
:0E77370090060EEFF012009890060EE0FF2272
:107697009005BB7403F0E49005BAF07B017A057995
:0676A700BA7F03024A5BFA
:10002E009005BA7440F0A37401F0A3123B3B00019B
:10003E00C200E49005C0F0A304F0E4A3F0A304F022
:10004E00E4A3F0A3F07B017A0579BA7F0102519403
:0F76FB0012769712002E7BFF7A7479F80241B84D
:0300980002745996
:03009E000276D80F
:106C9C0090068EE0FBA3E0FAA3E0F9900005123811
:106CAC0071D3940074809480406C90000574FF1232
:106CBC00389E7062900004123871FFD39400748077
:106CCC0094804052900695EFF0E49006C8F0900640
:106CDC008EE0FBA3E0FAA3E0F9900004123871FFF8
:106CEC009006C8E0FEC39F501B900691E0FCA3E009
:106CFC002EF582E43CF583E0FF1200989006C8E084
:106D0C0004F080CA90068EE0FBA3E0FAA3E0F990B1
:066D1C000004E41238D16E
:016D2200224E
:03002300026D2348
:106D2300C0E0C083C082C0D075D000C006C00730A9
:106D33009831C298900407E07029900405E0C39449
:106D430080748094804002E4F0900405E0FF04F036
:106D530074082FF582E43404F583E599F090040672
:106D63007405F0309934C299900403E0FF90040253
:106D7300E0FE6F602074882EF582E43404F583E02E
:106D8300F599900402E004F0C394807480948040E9
:106D930009E4F08005900404E4F0D007D006D0D0D5
:076DA300D082D083D0E03262
:1000A600000000000000000000000000000000004A
:1000B600000000000000000000000000000000003A
:1000C600000000000000000000000000000000002A
:1000D600000000000000000000000000000000001A
:1000E600000000000000000000000000000000000A
:1000F60000000000000000000000000000000000FA
:1001060000000000000000000000000000000000E9
:1001160000000000000000000000000000000000D9
:1001260000000000000000000000000000000000C9
:1001360000000000000000000000000000000000B9
:1001460000000000000000000000000000000000A9
:100156000000000000000000000000000000000099
:100166000000000000000000000000000000000089
:100176000000000000000000000000000000000079
:100186000000000000000000000000000000000069
:100196000000000000000000000000000000000059
:1001A6000000000000000000000000000000000049
:1001B6000000000000000000000000000000000039
:1001C6000000000000000000000000000000000029
:1001D6000000000000000000000000000000000019
:1001E600000000000003800000000000000FC000B7
:1001F60000000000007FE0000000000001FC60003D
:10020600000000000FE06000000000003F8060007A
:1002160000000000FC00600000000001FFC0E000DC
:100226000000000FFFFFC000000000FFFFFFF0000E
:10023600000007FE0007FE000000FFE000003F8010
:100246000001FE00000007800007E00000000180BA
:10025600001F800000000000003E000000000000BB
:10026600007800000000000000F000000000000020
:1002760001C0000000000000038000000000000034
:10028600070000000000000007000000000000005A
:100296000E000000000000001C000000000000002E
:1002A60038000000000000003C00000000000000D4
:1002B6001C000000000000000E000000000000000E
:1002C600060000000000000006000000000000001C
:1002D6000300000000000000030000000000000012
:1002E60003000800000000000300180000000000E2
:1002F60003000C000000000003000C0000000000DA
:1003060003060C000000000003060E0000000000BB
:1003160007060600000000000604070000000000B3
:1003260006000300000000000E00030000000000AD
:10033600060000000000000007008000000000002A
:100346000381C0000000000001C0C00000000000E2
:1003560000E0000000000000007000000000000047
:10036600003800000000000000380000C000000057
:10037600001C0000C0000000000C0000C0000000CF
:10038600000E0000C000000000070000C0000000D2
:1003960000070000C000000000038000C00000004D
:1003A60000018001C00000000001C00380000000C1
:1003B6000000C007800000000000E00F0000000001
:1003C6000000703E0000000000003FFC000000003E
:1003D60000001FFC00000000000007DF0000000016
:1003E60000000007C000000000000001F800000047
:1003F600000000007E000000000000001FC000009A
:100406000000000007FC00000000000001FF800063
:1004160000000000001FF800000000000003FF803D
:100426000000000000007FFC0000000000000FFE3E
:1004360000000000000001FE0000000000000000B7
:1004460000000000000000000000000000000000A6
:100456000000000000000000000000000000000096
:100466000000000000000000000000000000000086
:100476000000000000000000000000000000000076
:100486000000000000000000000000000000000066
:100496000000000000000000000000000000000056
:1004A6000000000000000000000000000000000046
:1004B6000000000000000000000000000000000036
:1004C6000000000000000000000000000000000026
:1004D6000000000000000000000000000000000016
:1004E60000000003C000000000000007E00000005C
:1004F6000000000F700000000000000E3000000039
:100506000000001C30000000000000383000000031
:100516000000007030000000000000707000000055
:10052600000000E060000000000001C0E0000000E4
:1005360000000181C000000000000383800000006D
:100546000000030300000000000007060000000092
:100556000000060C0000000000000C18000000005F
:1005660000000C300000000000000C30000000000D
:100576000000186000000000000018600000000085
:100586000000186000000000000018600000000075
:100596000000186000000000000018600000000065
:1005A6000000184000000000000018400000000095
:1005B6000001FFE000000000003FFFFFF800000020
:1005C60001FFFFFFFF00000007F80000FFE000004A
:1005D6001F80000003FC00003E000000007F0000BA
:1005E600F8000000001FC000E00000000003F0005B
:1005F600E000000000007C006000000000001E001B
:10060600600000000000070060000000000003001A
:100616003000000000000000300000000000000074
:100626003000000000000000300000000000000064
:100636003000000000000000300000000000000054
:1006460060000000000000006000000000000000E4
:10065600E000000000000000C000000000000000F4
:10066600C0030000000000008187000000000000B9
:100676000187000000000000018600000000000065
:100686008007000000000000800700000000000056
:10069600C003000000000000C003000000000000CE
:1006A600E0C380000000000060C100000000000000
:1006B60070C00000000000003000000000000000D4
:1006C60030000000000000003000000000000000C4
:1006D60018000000000000001800000000000000E4
:1006E60018000000000000000C00000000000000E0
:1006F6000C000000000000000C00000000000000DC
:100706000C000100000000000600030000000000CD
:1007160006000300000000000600030000000000C1
:1007260007000300000000000300060000000000B0
:1007360003800E000000000001C01E000000000043
:1007460001E0FC000000000000FFF80000000000CF
:10075600003FF8000000000000003C000000000020
:1007660000003E000000000000003F000000000006
:100776000000378000000000000033C000000000C9
:10078600000031F000000000000030F8000000001A
:10079600000070FC00000000000070DF0000000098
:1007A60000006087C000000000006183F8000000C0
:1007B60000006180FE000000000061801F800000D4
:1007C6000000618007F000000000618001FC00006D
:1007D60000006180003F800000006180000FE000A3
:1007E600000071800001FC000000308000007F00E6
:1007F600000030C000000FC0000030C0000003C081
:10080600000030C000000000000030400000000082
:1008160000003860000000000000186000000000C2
:100826000000186000000000000018300000000002
:10083600000018300000000000000C30000000002E
:1008460000000C300000000000000C30000000002A
:1008560000000C300000000000000E300000000018
:100866000000067000000000000007E00000000025
:10087600000003E00000000000000180000000000E
:100886000000000000000000000000000000000062
:100896000000000000000000000000000000000052
:1008A6000000000000000000000000000000000042
:1008B6000000000000000000000000000000000032
:1008C6000000000000000000000000000000000022
:1008D6000000000000000000000000000000000012
:1008E6003800000000000000FE00000000000000CC
:1008F600FF00000000000000C7C00000000000006C
:1009060081F0000000000000807800000000000078
:10091600803C000000000000C00F00000000000046
:10092600F007000000000000FC03C000000000000B
:100936001E01C000000000000780E000000000006B
:1009460003C070000000000000F038000000000046
:1009560000781C00000000000FFF8C000000000063
:100966001FFFFE00000000001F8FFF0000000000B8
:100976000C007FC0000000000C001FFC00000000FF
:100986000C0001FFC00000000C00001FF800000072
:1009960018000001FE000000180000001F80000083
:1009A6001800000007E000003800000000F8000012
:1009B60030000000007C000070000000001F0000F6
:1009C600E00000000007C000E00000000003F000A7
:1009D600C00000000000F8000000000000003E001B
:1009E6000000000000000F0000000000000007806B
:1009F6000600000000000180070000000000000063
:100A0600060C000000000000001C000000000000B2
:100A16000018000000000000003800000000000080
:100A2600003000000000000004300000000000005C
:100A36000C300000000000000C3800000000000030
:100A46000018000000000000001800000000000070
:100A56000000000000000000000000000000000090
:100A66000000000000000000000000000000000080
:100A76000000000000000000000000000000000070
:100A86000000000000000000000000000000000060
:100A96000000000000000000000000000000000050
:100AA6000000000000000000000000000000000040
:100AB600800000000000000080010000000000002F
:100AC600C001800000000000C0038000000000009C
:100AD600F0070000000000007C0E0000000000008F
:100AE6003FFE0000000000000FFC000000000000B8
:100AF60001FE000000000000E3E600000000000028
:100B0600FF870000000000007E0380000000000058
:100B160000018000000000000003C000000000008B
:100B26000007E00000000000001F70000000000049
:100B360001FC380000000000FFF01C00000000006F
:100B4600FFC01C00000000007C000E00000000003A
:100B56000000078000000000000003C00000000045
:100B6600000001E000000000000000F800000000A6
:100B76000000003E000000000000001F8000000092
:100B860000000007C000000000000001F0000000A7
:100B9600000000007C000000000000001F000000B4
:100BA600000000000FC000000000000003F000007D
:100BB6000000000000FC000000000000003F0000F4
:100BC60000000000000FC000000000000003F0005D
:100BD600000000000000FC000000000000003E00D5
:100BE60000000000000004000000000000000000FB
:100BF60000000000000000000000000000000000EF
:100C060000000000000000000000000000000000DE
:100C160000000000000000000000000000000000CE
:100C260000000000000000000000000000000000BE
:100C360000000000000000000000000000000000AE
:100C4600000000000000000000000000000000009E
:100C5600000000000000000000000000000000008E
:100C6600000000000000000000000000000000007E
:100C7600000000000000000000000000000000006E
:100C8600000000000000000000000000000000005E
:100C9600000000000000000000000000000000004E
:100CA600000000000000000000000000000000003E
:100CB600000000000000000000000000000000002E
:100CC600000000000000000000000000000000001E
:100CD600000000000000000000000000000000000E
:100CE60000000000000000000000000000000000FE
:100CF60000000000000000000000000000000000EE
:100D060000001FC00000000000007FE0000000009F
:100D16000003FC7000000000000FC0180000000077
:100D2600001F001C00000000001C001E0000000048
:100D36000038000E0000000000300F8700000000A1
:100D460000637E83000000000067FEC30000000011
:100D56000077FFE380000000003F0FF180000000F5
:100D6600003E00FF80000000000E003FC0000000B3
:100D76000006000FF000000000060003FF00000060
:100D8600000C00003FE00000000C000003F800002B
:100D9600001C0000007E000000180000000F80000C
:100DA600007800000003E00001F000000000F00001
:100DB60003E0000000007C000780000000001E0029
:100DC6000600000000000F8006000000000003C0BF
:100DD60006000000000001E00606000000000070AA
:100DE600060700000000003C060600000000001E8A
:100DF600020000000000000E03000C0000000006C8
:100E060003001C00000000020300180000000000A0
:100E16000308380000000000060C30000000000047
:100E2600060C30000000000006083000000000003C
:100E36000600300000000000060030000000000040
:100E46000600000000000000060000000000000090
:100E56000600000000000000060000000000000080
:100E66000C000000000000000C0000000000000064
:100E76000C000000000000000C0000000000000054
:100E86000C000000000000000C0000000000000044
:100E96000C0000000000000006000000000000003A
:100EA600060000000000000007000000000000002F
:100EB60007800C00000000000FC01C0000000000AE
:100EC6000DE01C00000000000CF8380000000000D7
:100ED6000C7FF000000000000C3FF0000000000056
:100EE6000C339800000000000C301C0000000000CD
:100EF6000E101C000000000006183E000000000056
:100F06000618670000000000030847000000000004
:100F1600030CC38000000000038581C000000000B0
:100F2600018703E00000000001C207E000000000A6
:100F360000C00F700000000000601C3800000000B8
:100F46000070F81C000000020039F00E00000002DC
:100F5600001FE007000000020006000380000002F8
:100F660000000001C000000200000000E0000006D2
:100F76000000000078000006000000003C000006AB
:100F8600000000001F0000020000000007800002B1
:100F96000000000003C000020000000001F0000293
:100FA600000000000078000000000000003C000087
:100FB60000000000001F0000000000000007800283
:100FC600000000000003E002000000000000F00442
:100FD6000000000000007C0C0000000000001E0C59
:100FE6000000000000000F0C000000000000030CD1
:100FF60000000000000000080000000000000038AB
:1010060000000000000000780000000000000078EA
:1010160000000000000000780000000000000070E2
:10102600000000000000007000000000000000F05A
:1010360000000000000000F000000000000000F0CA
:1010460000000000000000E000000000000000E0DA
:1010560000000000000001E000000000000001E0C8
:1010660000000000000001C000000000000001C0F8
:1010760000000000000001C000000000000003C0E6
:1010860000000000000003C0000000000000038014
:101096000000000000000380000000000000038044
:1010A600000000007800000000000000780000004A
:1010B600000000007000000000000000700000004A
:1010C60000000000F000000000000000F00000003A
:1010D60000000000F000000000000000E00000003A
:1010E60000000000E000000000000001E000000039
:1010F60000000001E000000000000001E000000028
:1011060000000001E000000000000001F8000000FF
:1011160000000003F800000000000003DC000000EF
:10112600000000078E0000000000000F0E00000007
:101136000000001C0F0000000000001C070000005B
:10114600000000384300000000000070A30000000B
:10115600000000E123000000000001C303000000BE
:10116600000001DB03800002000003FFE1800002B3
:1011760000001FFFF98000020000FF83FF800002CD
:101186000000F8003FF000020000E00003FE000649
:1011960000006000003FC006000060000007F00687
:1011A600000060000000FC060000600000003E0633
:1011B6000000600000000F0E00006000000003CE7B
:1011C60000006000000001EE00006000000000FE6C
:1011D6000000E0000000003E0000C0000000001E0D
:1011E6000001C0000000000E0003800000000006A1
:1011F6000007000000000002000E000000000000D2
:10120600000C000000000000000C060000000000BA
:10121600000C0E0600000000000C0C06000000008A
:1012260000060006000000000006000300000000A3
:101236000006000300000000000300070000000095
:10124600000304060000000000030C0E000000006E
:1012560000030C0C000000000003040C00000888CA
:101266000001800000003FF80001800000003FF010
:101276000001800000000100000180000000000065
:101286000001800000003C58000180000000205052
:101296000001800000003870000180000000294035
:1012A60000018000000027C00001800000003840D7
:1012B6000000C000000028700000C00000002010E0
:1012C6000000C00060003C480000C0006000000054
:1012D6000000E000C000000000007000C0000E101A
:1012E60000007001C00000E000003C0380003F8069
:1012F60000003FFF800006C000003FFF00000C60BA
:10130600000033FC00000010000070B80000080068
:10131600000070BC00002800000070FC00001800EF
:10132600000071EE00000800000070E700000800F1
:101336000000F0C3000038000000F08380002800A1
:101346000000F083C00008000000F007E000000085
:101356000000F00E700000000001F81C38000000CC
:101366000001F818380000000001F8701E000000A7
:101376000001CCF00F0000000001C7C0078000008C
:101386000003C30003C000000003C00000E000002B
:101396000003C0000078000000038000003C00004D
:1013A60000038000001E000000078000000F800080
:1013B600000780000003C000000780000001E00075
:1013C600000700000001F000000700000001FC001B
:1013D600000F00000001DE00000F00000003CF80B8
:1013E600000F00000003C3C0000E0000000381E0F0
:1013F600000E000000038060001E00000003802035
:10140600001E000000078000001E0000000780008C
:10141600001C000000070000001C00000007000080
:10142600003C000000070000003C0000000F000028
:10143600003C0000000F000000380000000E000015
:1014460000380000000E000000780000001E0000BA
:1014560000780000001E000000700000001E000062
:1014660000700000001C000000700000001C00005E
:1014760000F00000001C000000F00000003C00002E
:1014860000E00000003C000000E000000038000022
:1014960001E000000038000001E0000000780000D4
:1014A6000000000F000000020000000E0000000215
:1014B6000000000E000000020000001E00000002F6
:1014C6000000001E000000060000001E00000006CE
:1014D6000000001C000000060000001C00000006C2
:1014E6000000003C000000060000003C0000000E6A
:1014F6000000003C0000000E000000380000000E56
:10150600000000380000000E000000780000001EF9
:10151600000000780000001E000000780000001E99
:101526000000007E0000001C0000007E0000001C81
:10153600000000FF0000003C000000F38000003CBB
:10154600000000E38000003C000001C3C00000383A
:1015560000000381C000003800000700C0000078CA
:1015660000000618E000007800000E006000007819
:1015760000001C2060000070000038406000007011
:10158600000030C0600000F000007FF8600000F04E
:101596000003FFFFF00000F0001FFFFFFE0000E069
:1015A600003F0003FFF000E0003C00001FFE01E0EA
:1015B60000180000007F81E0001800000007E1E04D
:1015C600001800000000F9C00018000000003FC02D
:1015D6000018000000001FC000180000000007E00F
:1015E60000180000000001F000180000000000FCD8
:1015F600003800000000001E003000000000000E51
:1016060000700000000000020070000000000000F2
:1016160000E000000000000003C000000000000021
:10162600038000000000000003010000000000002D
:101636000303810000000000030381800000000016
:10164600038101800000000001800180000000008D
:10165600018001800000000000C0018000000988B0
:1016660000C0018000003FF800C1838000003FF009
:1016760000C18300000001000061030000000800B3
:101686000060000000003C5800600000000021508F
:1016960000600000000039700060000000002FC0EC
:1016A60000600000000027C0006000000000395004
:1016B60000300000000029700030000000002150BA
:1016C6000030000000003C48003000000000000030
:1016D60000300000000000000030000000000E1086
:1016E60000300000000002E00030001800003F80DB
:1016F60000180018000006C0001C003800000C602E
:10170600001E003000000010000E007000000810DF
:10171600000FC1E000002810000FFFC000001810E5
:10172600000FFFC000000810001F1FE00000181087
:10173600001F0BE000003810001F0F70000028107B
:10174600001F0E3800000810001F0C1C00000000CF
:10175600003F0C1E00000000003F183F0000000084
:10176600003F007380000000003B00E1C000000065
:10177600003B80C1E000000000798180F00000009D
:10178600007987803C0000000078CF001E00000032
:1017960000707C000F8000000070300003E0000045
:1017A60000F0000001F8000000F00000007E0000DC
:1017B60000F00000003F000000E00000003FC00015
:1017C60000E000000039F00001E0000000387C0075
:1017D60001E0000000781F0001E0000000780FC063
:1017E60001C00000007003F801C000000070007C1A
:1017F60003C000000070001E03C0000000F00004DB
:1018060003C0000000F000000380000000E00000BC
:101816000380000000E000000780000001E00000F7
:101826000780000001E000000700000001E0000062
:101836000700000001C000000700000001C0000012
:101846000F00000003C000000F00000003C00000EE
:101856000E00000003C000000E0000000380000020
:101866001E000000038000001E000000078000002C
:101876001E000000078000001C000000078000001A
:101886001C000000070000001C000000070000000C
:101896003C0000000F0000003C0000000F000000AC
:1018A6000000000F000000020000000E0000000211
:1018B6000000000E000000020000001E00000002F2
:1018C6000000001E000000060000001E00000006CA
:1018D6000000001C000000060000001C00000006BE
:1018E6000000003C000000060000003C0000000E66
:1018F6000000003C0000000E000000380000000E52
:10190600000000380000000E000000780000001EF5
:10191600000000780000001E000000780000001E95
:10192600000000700000001C000000700000001C99
:10193600000000F00000003C000000F00000003C49
:10194600000001F80000003C000001FC0000003827
:101956000000039E000000380000070E000000781B
:1019660000000E0F0000007800000C070000007851
:1019760000001C03000000700000386300000070C7
:10198600000070E1800000F0000061C1800000F0FE
:101996000000E1A1800000F00001C3A1C00000E04A
:1019A6000001FFF9C00000E00003FFFFFC0001E0BA
:1019B600001FFFFFFFF001E0007F0000FFFE01E0D7
:1019C60000F80000007F81C000F000000007E1C0C1
:1019D600007000000001FFC00030000000003FC0A2
:1019E6000030000000000FC000300000000003F0CF
:1019F60000300000000001F8003000000000003C4C
:101A0600003000000000000E006000000000000032
:101A16000060000000000000006000000000000000
:101A260000E000000000000001C00000000000000F
:101A360003C0000000000000078000000000000056
:101A4600070000000000000006030200000000007E
:101A560006070700000000000602030000000988D0
:101A66000700030000003FF80300030000003FF0FA
:101A7600038003000000010001800300000008004D
:101A86000182070000003C5801C3070000002150F6
:101A960000C306000000397000C0000000002FC01F
:101AA60000C00000000027C000C000000000395040
:101AB60000C000000000297000C000000000215096
:101AC6000060000000003C480060000000000000CC
:101AD60000600000000000000060000000000E1022
:101AE60000600000000002E00060000000003F808F
:101AF60000700000000006C00030001800000C60F6
:101B060000300018000000100030003800000810F7
:101B16000038003000002810001C0070000018106B
:101B2600001E007000000810001F81E00000181061
:101B3600001FFFC000003810001FFFC00000281063
:101B4600001E3FE000000810001E16700000000096
:101B5600003E163800000000003E1C1C000000007D
:101B6600003E181E00000000003E183F0000000066
:101B7600003F007780000000007F00E3C000000007
:101B8600007B01C0E0000000007B038078000000BD
:101B9600007387003C0000000071DE001F0000009B
:101BA60000F0FC0007E0000000F0700001F8000003
:101BB60000F00000007E000000E00000003FC000D2
:101BC60000E00000003FF00001E000000038FE00E9
:101BD60001E0000000783F8001E00000007807F097
:101BE60001C00000007001FE01C000000070003E50
:101BF60003C000000070000603C0000000F00000F3
:101C060003C0000000F000000380000000E00000B8
:101C16000380000000E000000780000001E00000F3
:101C26000780000001E000000700000001E000005E
:101C36000700000001C000000700000001C000000E
:101C46000F00000003C000000F00000003C00000EA
:101C56000E00000003C000000E000000038000001C
:101C66001E000000038000001E0000000780000028
:101C76001E000000078000001C0000000780000016
:101C86001C000000070000001C0000000700000008
:101C96003C0000000F0000003C0000000F000000A8
:105FDA006023054E6D656E7500000000000000002C
:105FEA0000000000000000000000000000000000A7
:105FFA00000000000000006023057173637265658C
:10600A006E00000000000000000000000000000117
:10601A0000010000000000000000000000006023F2
:10602A00059473637265656E20667265710000007F
:10603A000000000000000201010000000000000052
:10604A0000000000006046050873637265656E20F3
:10605A0073686F77206672657100000000030101A2
:10606A00000000000000000000FF776A7363726599
:10607A00656E207365742066726571000000000009
:0F608A00030102000000000000000000FF758607
:106AE8001276FB1277531277BB1277C112772812EE
:106AF8006DAA900645741EF09005BD7401F0A3744C
:106B080005F0A37471F07B017A05794E1253DA907F
:106B180005BD7401F0A37405F0A37494F07B017AA9
:106B280005794E1253DA9005BD7401F0A37405F08F
:106B3800A37408F07B017A05794E1253DA9005BDEB
:106B48007401F0A37405F0A3742BF07B017A057926
:106B58004E1253DA9006A87401F0A37405F0A374DA
:106B68004EF09006A57401F0A37405F0A37471F0BB
:036B7800D2AF2277
:10649F009005B7E4F0A3F0A3F0126AE89005C0E40A
:1064AF00F0A37402F0A3E4F0A37440F0A3E4F0A30C
:1064BF007420F07B027A007D407C007F807E00128A
:1064CF0071C39005B7EBF0A3EAF0A3E9F09006A82B
:1064DF00E0FBA3E0FAA3E0F9126581900646E030F5
:1064EF00E00654FEF01275A4900671E0600F7B0178
:1064FF007A05794E126EA7900671E014F09006722D
:10650F00E0600F7B017A05794E126F1A900672E0E8
:10651F0014F0E4FF12729EEF640170BF9006A5E0C5
:10652F00FBA3E0FAA3E0F990001D123B6CE94A4B84
:10653F00602F9006A5E0F9A3E0FAA3E09006A8C9A2
:10654F00F0A3EAF0A3E9F09006A5E0FBA3A3E0F91E
:10655F0090001D123B6C9006A5EBF0A3EAF0A3E9A7
:10656F00F09006A8E0FBA3E0FAA3E0F91265810220
:02657F0064EACC
:09776A001272DC1273547F00223C
:1075860090FFFF123BF5EFF01272DC850D83850E3E
:0E75960082E0FF1276EB7F00900001023BF5D1
:080003004E6F6E6521003E0006
:0C6099004306A80000004306A50000001C
:0B6581009005BAEBF0A3EAF0A3E9F0EC
:10658C00E4A3F0A3EBF0A3EAF0A3E9F01272DC9021
:10659C0005BEE0FBA3E0FAA3E0F990001D123B6CF2
:1065AC00E94A4B607A9005BEE0FBA3E0FAA3E0F960
:1065BC0090001D123B6C9005BEEBF0A3EAF0A3E932
:1065CC00F09005BDE075F008A4FDA3E0FBA3E0FA94
:1065DC00A3E0F99005CA7408F0A37401F07F0812C7
:1065EC006A339005BDE004F0A3E0FBA3E0FAA3E05E
:1065FC00F990001A123B6C9005BEEBF0A3EAF0A3E5
:10660C00E9F09005BEE0FBA3E0FAA3E04A4B60265C
:10661C009005BDE0C394087480948040A480177BDF
:10662C00FF7A0079039005CA7408F0A37401F0E4B2
:10663C00FD7F08126A3312777C9005C8EFF0E4A353
:10664C00F07B08FDFF1273FF9005BAE0FBA3E0FAA4
:03665C00A3E0F9BF
:01665F002218
:10680100E49005C0F012777CEF7803CEC313CE136A
:10681100D8F99005C1F09006A5E0F9A3E0FAA3E04C
:106821009005C2C980529005C2E0FBA3E0FAA3E043
:10683100F9900017123B6CE94A4B60459005C2E0A4
:10684100FBA3E0FAA3E0F9900017123B6C9000144F
:10685100123871FF9005C2E0FBA3E0FAA3E0F990C2
:106861000014123871B507199005C0E004F09000CA
:1068710017123B6C9005C2EBF0A3EAF0A3E9F0809C
:10688100A512777C9005C8EFF0E4A3F07B08FDFF2B
:106891001273FF9005C1E0FF9005C0E08FF084E521
:1068A100F075F008A4FD7BFF7A0079099005CA74A0
:1068B10008F0A37401F0E4FF126A339006A5E0FB2F
:0668C100A3E0FAA3E0F9D8
:0168C70022AE
:0B6EA7009005BAEBF0A3EAF0A3E9F0BD
:106EB200A3E4F0A3F0A3F09006A5E0FBA3E0FAA3FD
:106EC200E0F990FFFD123BF5EBF0A3EAF0A3E9F045
:106ED2009005BAE0FBA3E0FAA3E0F9124CD29005C8
:106EE200BDEBF0A3EAF0A3E9F09005BDE0FBA3E05F
:106EF200FAA3E04A4B60129005BDA3A3E0F9900605
:106F0200A5EBF0A3EAF0A3E9F01268019006A5E070
:076F1200FBA3E0FAA3E0F984
:016F19002255
:0B6F1A009005BAEBF0A3EAF0A3E9F049
:106F2500A3E4F0A3F0A3F09006A5E0FBA3E0FAA389
:106F3500E0F990FFFD123BF5EBF0A3EAF0A3E9F0D1
:106F45009005BAE0FBA3E0FAA3E0F91247E3900548
:106F5500BDEBF0A3EAF0A3E9F09005BDE0FBA3E0EB
:106F6500FAA3E04A4B60129005BDA3A3E0F9900691
:106F7500A5EBF0A3EAF0A3E9F01268019006A5E0FD
:076F8500FBA3E0FAA3E0F911
:016F8C0022E2
:1062C4002564202564202564206E616D653A2025AF
:1062D400730D0A00746865206D656E752022257340
:1062E40022206469646E2774206861766520737562
:1062F400624D656E75210D0A003D3D3D3D3D3D3DC0
:106304003D3D3D3D3D3D3D3D3D3D3D3D3D3D3D3DB9
:106314003D3D3D3D3D3D3D3D3D3D3D3D3D3D3D3DA9
:106324003D3D3D0D0A0025642E2025730D0A0063B2
:10633400616E277420636F6E6E65637420696620D6
:10634400746F2073797374656D2C206279206E6F7D
:10635400742066696E642069742773207072657690
:10636400206D656E75210D0A0063616E27742064CB
:10637400656C6574652C206279206572726F722079
:106384006D656E755F44656C6574652070617261DE
:106394006D210D0A0063616E27742064656C657459
:1063A400652C206279206E6F742066696E642069A2
:0563B40074210D0A0038
:1061CE0090FFFD123BF5EBF0A3EAF0A3E9F090FF90
:0461DE00FD123BF57E
:1061E200900003123C19E0F9A3E0FAA3E0850D83C5
:1061F200850E82C9F0A3EAF0A3E9F0850D83850E2E
:1062020082E0FBA3E0FAA3E04A4B70030262BE8580
:106212000D83850E82E0FBA3E0FAA3E0F99000145F
:10622200123871FF9005E9E4F0A3EFF09000151227
:106232003871FF9005EBE4F0A3EFF09000161238EE
:1062420071FF9005EDE4F0A3EFF0A3EBF0A3EAF009
:10625200A3E9F07BFF7A6279C41241B8850D838588
:106262000E82E0FBA3E0FAA3E0F990001D123B6C62
:10627200E94A4B6017850D83850E82E0FBA3E0FAA5
:10628200A3E0F990001D123B6C1261CE850D83854F
:106292000E82E0FBA3E0FAA3E0F990001A123B6C35
:1062A200E94A4B6017850D83850E82E0FBA3E0FA75
:0C62B200A3E0F990001A123B6C1261CEC0
:0662BE00900006023BF512
:107172009006C1EBF0A3EAF0A3E9F090001D123BE8
:107182006CE94A4B9006C1601CE0FBA3E0FAA3E065
:10719200F990001D123B6C9006C1EBF0A3EAF0A33C
:1071A200E9F00261CEE0F9A3E0FAA3E09005E9C9B3
:1071B200F0A3EAF0A3E9F07BFF7A6279D81241B832
:0171C20022AA
:0B66600090069EEBF0A3EAF0A3E9F027
:10666B00E4A3F0A3EBF0A3EAF0A3E9F07BFF7A62DB
:10667B0079FD1241B89006A2E0FBA3E0FAA3E0F982
:10668B0090001D123B6CE94A4B60719006A2E0FB37
:10669B00A3E0FAA3E0F990001D123B6C9006A2EB6D
:1066AB00F0A3EAF0A3E9F09006A1E004F0E0900576
:1066BB00E9F09006A2E0F9A3E0FAA3E09005EAC99D
:1066CB00F0A3EAF0A3E9F07BFF7A63792A1241B8D1
:1066DB009006A2E0FBA3E0FAA3E0F990001A123BAC
:1066EB006C9006A2EBF0A3EAF0A3E9F09006A2E00F
:1066FB00FBA3E0FAA3E04A4B70AD801E9006A2E02C
:10670B00F9A3E0FAA3E09005E9C9F0A3EAF0A3E945
:10671B00F07BFF7A6279D81241B87BFF7A6279FD00
:0E672B001241B890069EE0FBA3E0FAA3E0F94D
:01673900223D
:08597800E0FBA3E0FAA3E0F953
:1059800090FFFD123BF5EBF0A3EAF0A3E9F090FFE6
:04599000FA123BF5D7
:10599400900006123C19E0F9A3E0FAA3E0850D8318
:1059A400850E82C9F0A3EAF0A3E9F07B007A0079BE
:1059B40000900003123C19EBF0A3EAF0A3E9F08590
:1059C4000D83850E82E0FBA3E0FAA3E04A4B700648
:1059D400FBFAF9025B19900009123C19E0FBA3E001
:1059E400FAA3E0F9900014123871FF850D83850E37
:1059F40082E0FBA3E0FAA3E0F9900014123871FEF0
:105A0400D39F40097B007A007900025B19EEB50749
:105A14002F900009123C19E0FBA3E0FAA3E0F990EF
:105A24000016123871FF850D83850E82E0FBA3E01A
:105A3400FAA3E0F9900016123871B50703025B1956
:105A4400850D83850E82E0FBA3E0FAA3E0F99000C4
:105A54001D123B6CE94A4B6041900009123C19E06D
:105A6400FBA3E0FAA3E0F990FFFD123BF5EBF0A3F2
:105A7400EAF0A3E9F0900003123C19E0FBA3E0FA7A
:105A8400A3E0F990001D123B6C12598090000312A0
:105A94003C19EBF0A3EAF0A3E9F0900003123C19DF
:105AA400E0FBA3E0FAA3E04A4B6002805A850D8331
:105AB400850E82E0FBA3E0FAA3E0F990001A123B02
:105AC4006CE94A4B6041900009123C19E0FBA3E0E9
:105AD400FAA3E0F990FFFD123BF5EBF0A3EAF0A383
:105AE400E9F0900003123C19E0FBA3E0FAA3E0F90B
:105AF40090001A123B6C125980900003123C19EB6F
:105B0400F0A3EAF0A3E9F0900003123C19E0FBA330
:055B1400E0FAA3E0F936
:065B190090000C023BF5B8
:10561A0090FFFD123BF5EBF0A3EAF0A3E9F090FF4F
:04562A00FA123BF540
:10562E00900006123C19E0F9A3E0FAA3E0850D8381
:10563E00850E82C9F0A3EAF0A3E9F07B007A007927
:10564E0000900003123C19EBF0A3EAF0A3E9F085F9
:10565E000D83850E82E0FBA3E0FAA3E04A4B7006B1
:10566E00FBFAF90257C5900009123C19E0FBA3E0C2
:10567E00FAA3E0F9900014123871FF14FE850D8321
:10568E00850E82E0FBA3E0FAA3E0F9900014123835
:10569E0071FDD39E40097B007A0079000257C5D375
:1056AE00EF9400748094804039900009123C19E008
:1056BE00FBA3E0FAA3E0F990001412387114B505BB
:1056CE0021900015123871FF850D83850E82E0FB47
:1056DE00A3E0FAA3E0F9900016123871B5070302A1
:1056EE0057C5850D83850E82E0FBA3E0FAA3E0F992
:1056FE0090001D123B6CE94A4B6041900009123C30
:10570E0019E0FBA3E0FAA3E0F990FFFD123BF5EBE5
:10571E00F0A3EAF0A3E9F0900003123C19E0FBA31A
:10572E00E0FAA3E0F990001D123B6C12561A90009D
:10573E0003123C19EBF0A3EAF0A3E9F09000031278
:10574E003C19E0FBA3E0FAA3E04A4B6002805A85C5
:10575E000D83850E82E0FBA3E0FAA3E0F990001A18
:10576E00123B6CE94A4B6041900009123C19E0FB78
:10577E00A3E0FAA3E0F990FFFD123BF5EBF0A3EAEC
:10578E00F0A3E9F0900003123C19E0FBA3E0FAA3AA
:10579E00E0F990001A123B6C12561A900003123C5C
:1057AE0019EBF0A3EAF0A3E9F0900003123C19E024
:0757BE00FBA3E0FAA3E0F9F0
:0657C50090000C023BF510
:104CD20090FFFD123BF5EBF0A3EAF0A3E9F090FFA1
:044CE200FA123BF592
:104CE600900006123C19E0F9A3E0FAA3E0850D83D3
:104CF600850E82C9F0A3EAF0A3E9F07B007A007979
:104D060000900003123C19EBF0A3EAF0A3E9F0854A
:104D16000D83850E82E0FBA3E0FAA3E04A4B700602
:104D2600FBFAF9024F36900009123C19E0FBA3E0AA
:104D3600FAA3E0F9900014123871FF14FE850D8372
:104D4600850E82E0FBA3E0FAA3E0F9900014123886
:104D560071FDD39E40028068D3EF940074809480E6
:104D66005003024E61900009123C19E0FBA3E0FAE1
:104D7600A3E0F9900014123871146D6003024E61BD
:104D8600900015123871FF850D83850E82E0FBA316
:104D9600E0FAA3E0F99000161238716F6003024E34
:104DA6006190001D123B6CE94A4B6014850D8385AA
:104DB6000E82E0FBA3E0FAA3E0F990001D024E4D3F
:104DC6007B007A007900024F36850D83850E82E0DE
:104DD600FBA3E0FAA3E0F990001A123B6CE94A4BF8
:104DE6007003024F28850D83850E82E0FBA3E0FA4F
:104DF600A3E0F990001A123B6C900016123871FF6E
:104E0600900009123C19E0FBA3E0FAA3E0F9900038
:104E160016123871B5071F850D83850E82E0FBA338
:104E2600E0FAA3E0F9900003123C19EBF0A3EAF0D4
:104E3600A3E9F0024F28850D83850E82E0FBA3E0EF
:104E4600FAA3E0F990001A123B6C850D83850E8259
:104E5600EBF0A3EAF0A3E9F0024DCF850D83850EB2
:104E660082E0FBA3E0FAA3E0F990001D123B6CE997
:104E76004A4B6041900009123C19E0FBA3E0FAA3FB
:104E8600E0F990FFFD123BF5EBF0A3EAF0A3E9F0A1
:104E9600900003123C19E0FBA3E0FAA3E0F99000AE
:104EA6001D123B6C124CD2900003123C19EBF0A37E
:104EB600EAF0A3E9F0900003123C19E0FBA3E0FA44
:104EC600A3E04A4B6002805A850D83850E82E0FB83
:104ED600A3E0FAA3E0F990001A123B6CE94A4B6092
:104EE60041900009123C19E0FBA3E0FAA3E0F99017
:104EF600FFFD123BF5EBF0A3EAF0A3E9F090000307
:104F0600123C19E0FBA3E0FAA3E0F990001A123B69
:104F16006C124CD2900003123C19EBF0A3EAF0A3FA
:104F2600E9F0900003123C19E0FBA3E0FAA3E0F9D4
:064F360090000C023BF5A7
:1047E30090FFFD123BF5EBF0A3EAF0A3E9F090FF95
:0447F300FA123BF586
:1047F700900006123C19E0F9A3E0FAA3E0850D83C7
:10480700850E82C9F0A3EAF0A3E9F07B007A00796C
:1048170000900003123C19EBF0A3EAF0A3E9F0853E
:104827000D83850E82E0FBA3E0FAA3E04A4B7006F6
:10483700FBFAF9024A55900009123C19E0FBA3E084
:10484700FAA3E0F9900014123871FF14FE850D8366
:10485700850E82E0FBA3E0FAA3E0F990001412387A
:1048670071FDD39E40028068D3EF940074809480DA
:104877005003024980900009123C19E0FBA3E0FABB
:10488700A3E0F9900014123871146D600302498097
:10489700900015123871FF850D83850E82E0FBA30A
:1048A700E0FAA3E0F99000161238716F600302492D
:1048B7008090001D123B6CE94A4B6014850D83857F
:1048C7000E82E0FBA3E0FAA3E0F990001D0249691C
:1048D7007B007A007900024A55850D83850E82E0B8
:1048E700FBA3E0FAA3E0F990001A123B6CE94A4BEC
:1048F7007003024A47900009123C19E0FBA3E0FA53
:10490700A3E0F9900016123871FF850D83850E829A
:10491700E0FBA3E0FAA3E0F9900016123871B5079F
:104927003090001A123B6CE94A4B604A850D83852B
:104937000E82E0FBA3E0FAA3E0F990001A123B6CA9
:10494700900003123C19EBF0A3EAF0A3E9F0024A46
:1049570047850D83850E82E0FBA3E0FAA3E0F9907B
:10496700001A123B6C850D83850E82EBF0A3EAF0EB
:10497700A3E9F00248E0024A47850D83850E82E0ED
:10498700FBA3E0FAA3E0F990001D123B6CE94A4B48
:104997006041900009123C19E0FBA3E0FAA3E0F99B
:1049A70090FFFD123BF5EBF0A3EAF0A3E9F09000CE
:1049B70003123C19E0FBA3E0FAA3E0F990001D12F3
:1049C7003B6C1247E3900003123C19EBF0A3EAF0AB
:1049D700A3E9F0900003123C19E0FBA3E0FAA3E07F
:1049E7004A4B6002805A850D83850E82E0FBA3E067
:1049F700FAA3E0F990001A123B6CE94A4B60419028
:104A07000009123C19E0FBA3E0FAA3E0F990FFFDCF
:104A1700123BF5EBF0A3EAF0A3E9F0900003123C98
:104A270019E0FBA3E0FAA3E0F990001A123B6C121D
:104A370047E3900003123C19EBF0A3EAF0A3E9F077
:0E4A4700900003123C19E0FBA3E0FAA3E0F993
:064A550090000C023BF58D
:0B53DA009005BAEBF0A3EAF0A3E9F0A5
:1053E5009005E3E4F0A3F0A3F09005BDE0FBA3E096
:1053F500FAA3E0F9900014123871149005D4F090D6
:1054050000151238719005D6F07B017A0579C090A8
:10541500FFFD123BF5EBF0A3EAF0A3E9F09005BA26
:105425001259789005E3EBF0A3EAF0A3E9F09005B3
:10543500E3E0FBA3E0FAA3E04A4B700302560590B4
:1054450005E3A3A3E0F990001D123B6CE94A4B70FC
:10545500229005BDE0FBA3E0FAA3E0F9C003C0027A
:10546500C0019005E3E0FBA3E0FAA3E0F990001D7D
:105475000255DE9005E3E0FBA3E0FAA3E0F9900016
:105485001D80419005BDE0FBA3E0FAA3E0F9900083
:1054950016123871FF9005E3E0FBA3E0FAA3E0F9EB
:1054A500900016123871FED39F502990001A123BB6
:1054B5006CE94A4B601E9005E3E0FBA3E0FAA3E02C
:1054C500F990001A123B6C9005E3EBF0A3EAF0A308
:1054D500E9F080AFEFC39E40030255BF9005E3E0BE
:1054E500FBA3E0FAA3E0F9900017123B6C900014BF
:1054F500123871FF9005BDE0FBA3E0FAA3E0F99037
:105505000014123871FEEFC39E501CC003C002C0C8
:10551500019005E3E0FBA3E0FAA3E0F99000171280
:105525003B6C90001D80259005BDE0FBA3E0FAA330
:10553500E0F9C003C002C0019005E3E0FBA3E0FA77
:10554500A3E0F9900017123B6C90001A123B9C9057
:1055550005E3E0FBA3E0FAA3E0F9900017123B6C2A
:10556500C003C002C0019005BDE0FBA3E0FAA3E0C3
:10557500F9900017123B9C9005BDE0FBA3E0FAA350
:10558500E0F9C003C002C0019005E3E0FBA3E0FA27
:10559500A3E0F9900017123B9C9005E3E0FBA3E024
:1055A500FAA3E0F9C003C002C0019005BDE0FBA36A
:1055B500E0FAA3E0F990001A80419005BDE0FBA355
:1055C500E0FAA3E0F9C003C002C0019005E3E0FBE7
:1055D500A3E0FAA3E0F990001A123B9C9005E3E0E2
:1055E500FBA3E0FAA3E0F9C003C002C0019005BD2A
:1055F500E0FBA3E0FAA3E0F9900017123B9C8009B9
:105605007BFF7A6379331241B89005BAE0FBA3E0DA
:04561500FAA3E0F91B
:01561900226E
:0B4F3C00900674EBF0A3EAF0A3E9F08C
:104F470090067AE4F0A3F0A3F0900677E0FBA3E0E5
:104F5700FAA3E0F990FFFD123BF5EBF0A3EAF0A30B
:104F6700E9F090067412597890067AEBF0A3EAF00C
:104F7700A3E9F090067AE0FBA3E0FAA3E04A4B70BE
:104F87000302514A900674E0FBA3E0FAA3E0F9C0DC
:104F970003C002C00190067AE0FBA3E0FAA3E0F9A0
:104FA700D082D083D0E06B7008E965827003EA6530
:104FB70083700302514A90067AE0FBA3E0FAA3E06C
:104FC700F990001A123B6CE94A4B6003025061905A
:104FD700067AE0FBA3E0FAA3E0F9900017123B6C16
:104FE700900014123871FF90067AE0FBA3E0FAA351
:104FF700E0F9900014123871FEEFC39E7B007A002F
:105007007900501CC003C002C00190067AE0FBA3E0
:10501700E0FAA3E0F9900017123B6C90001D801A8C
:10502700C003C002C00190067AE0FBA3E0FAA3E048
:10503700F9900017123B6C90001A123B9C7B007A88
:10504700007900C003C002C00190067AE0FBA3E02C
:10505700FAA3E0F990001702514590067AE0FBA306
:10506700E0FAA3E0F9900017123B6C900014123895
:1050770071FF90067AE0FBA3E0FAA3E0F990001431
:10508700123871FEEFC39E502290001A123B6CC07B
:1050970003C002C00190067AE0FBA3E0FAA3E0F99F
:1050A700900017123B6C90001D802B90067AE0FB56
:1050B700A3E0FAA3E0F990001A123B6CC003C00208
:1050C700C00190067AE0FBA3E0FAA3E0F99000178D
:1050D700123B6C90001A123B9C90067AE0FBA3E00F
:1050E700FAA3E0F9900017123B6CC003C002C0019D
:1050F70090067AE0FBA3E0FAA3E0F990001A123BCE
:105107006C900017123B9C7B007A007900C003C0AB
:1051170002C00190067AE0FBA3E0FAA3E0F9900051
:1051270017123B9C7B007A007900C003C002C001C4
:1051370090067AE0FBA3E0FAA3E0F990001A123B8D
:105147009C803E900674E0FBA3E0FAA3E0F9C0035D
:10515700C002C00190067AE0FBA3E0FAA3E0F9D011
:1051670082D083D0E06B7008E965827003EA6583BB
:105177007BFF70067A63796D80047A6379991241AF
:0C518700B8900674E0FBA3E0FAA3E0F986
:0151930022F9
:1075C00048656C6C6F20576F726C64210073637236
:0B75D00065656E20667265713A200050
:0860A500410646004106451EBC
:1076AD007BFF7A7579C09005CA7408F0A37401F058
:0676BD00E4FDFF026A3348
:107354007BFF7A7579CD9005CA7408F0A37401F0A7
:10736400E4FDFF126A33900645E0FFE4FCFDFE9065
:1073740005B9123B2F9005BD7403F0A37408F0A364
:0A7384007401F0E4FD7F680260C7A9
:1076EB00900645E0D3943C748094805002EFF022D6
:1071C300900647EEF0A3EFF0AF05A3ECF0A3EFF0CA
:1071D300AF03A3EAF0A3EFF09005C0E0FFA3E090B4
:1071E300064DCFF0A3EFF09005C2E0FFA3E09006B9
:1071F3004FCFF0A3EFF09005C4E0FFA3E09006515A
:0C720300CFF0A3EFF07B017A0679472260
:06697E0090067D123B2F84
:10698400E4900681F090067DE0FCA3E0FDA3E0FE28
:10699400A3E0FF900682123B2F900682E0FCA3E066
:1069A400FDA3E0FEA3E0FFE47B0AFAF9F8123A49FA
:1069B400900682123B2F900681E004F0A3E0FCA332
:1069C400E0FDA3E0FEA3E0FFEC4D4E4F70CB90063C
:1069D40081E0FD75F008A4C39480E5F064809480A0
:1069E4005011ED75F008A4FB9005C87420F0E4A3E1
:1069F400F0800B9005C87420F0E4A3F07B7F7D1831
:106A0400FF1273FF90067DE0FCA3E0FDA3E0FEA36C
:106A1400E0FF9005B9123B2F900681E09005BDF090
:0F6A2400A37408F0A37401F07D10E4FF0260C7B3
:106E2D0090064FE0FEA3E0FFC3900697E09F90060B
:106E3D0096E09E5015900651E0FEA3E0FFC390062C
:106E4D0099E09F900698E09E40037FFF2290069662
:106E5D00E0FCA3E0FD90064BE0FEA3E0FF1238F34B
:106E6D0090069AEEF0A3EFF0900698E0FCA3E0FDFB
:106E7D0090064DE0FEA3E0FF1238F390069CEEF075
:106E8D00A3EFF0FD90069AA3E0FF12705EEFFD7C7C
:096E9D0000BCFF05BDFF02E4FF8B
:016EA60022C9
:09777300900647E0FEA3E0FF22AE
:09777C00900649E0FEA3E0FF22A3
:0977850090064BE0FEA3E0FF2298
:09778E0090064DE0FEA3E0FF228D
:0977970090064FE0FEA3E0FF2282
:0977A000900651E0FEA3E0FF2277
:105E9A0090064FE0FEA3E0FFC3900625E09F900620
:105EAA0024E09E4003025FB4900651E0FEA3E0FFA7
:105EBA00C3900627E09F900626E09E4003025FB447
:105ECA00900624E0FAA3E0FB90064BE0FEA3E0FF75
:105EDA00AD03AC021238F3900631EEF0A3EFF09066
:105EEA000626E0FCA3E0FD90064DE0FEA3E0FF12CB
:105EFA0038F3900633EEF0A3EFF0EB2401FFE43A17
:105F0A00FE90064BE0FCA3E0FD1238F390062DEE5E
:105F1A00F0A3EFF0900627E02401FF900626E03474
:105F2A0000FE90064DE0FCA3E0FD1238F390062F28
:105F3A00EEF0A3EFF0A3E0FFA3E0900629CFF0A3D1
:105F4A00EFF090062DE0FEA3E0FFC390062AE09F43
:105F5A00900629E09E5053900633E0FFA3E0900696
:105F6A002BCFF0A3EFF090062FE0FEA3E0FF900600
:105F7A002BE0FCA3E0FDC39FEC9E501E900629A3D4
:105F8A00E0FF900628E0FB1268DA90062CE004F0A5
:105F9A00700690062BE004F080CC90062AE004F00C
:0A5FAA007006900629E004F08098CC
:015FB40022CA
:101CA6000000000000000000000060FAFA6000007A
:101CB60000C0C000C0C0000028FEFE28FEFE2800AE
:101CC6002474D6D65C48000062660C18306646005E
:101CD6000C5EF2BEEA5E12002070C000000000003A
:101CE600001C3E63410000000041633E1C000000F2
:101CF600082A3E1C1C3E2A0808083E3E080800002A
:101D0600000107060000000008080808080800008F
:101D16000000060600000000060C183060C08000B7
:101D26007CFEE2B29AFE7C003262FEFE02020000F7
:101D360046CE9A92F666000044C69292FE6C000069
:101D4600183868CAFEFE0A00E4E6A2A2AE9C0000AD
:101D56003C7ED2929E1C0000C0C08E9EF0E0000029
:101D66006CFE9292FE6C000060F29296FC78000087
:101D760000006666000000000001676600000000C3
:101D860010386CC6820000004242424242420000C5
:101D96000082C66C3810000040C08A9AF0600000CD
:101DA6007CFE82BABAF878003FFFC8C8FF3F000041
:101DB60082FEFE9292FE6C00387CC68282C6440089
:101DC60082FEFE82C67C380082FEFE92BA82C60081
:101DD60082FEFE92B880C00038FEC6828ACE4E00D1
:101DE600FEFE1818FEFE00000082FEFE82000000C5
:101DF6000C0E0282FEFC800082FEFE1038EEC6004B
:101E060082FEFE8202060E00FEFE703870FEFE00A6
:101E1600FEFE601806FEFE00387CC682C67C3800D0
:101E260082FEFE9290F0600078FC848EFE7A0000BE
:101E3600FEFE9098FE66000064F6B29ACE4C000054
:101E4600C082FEFE82C00000FEFE0202FEFE000010
:101E5600F8FC0606FCF80000FEFE0C180CFEFE0060
:101E6600C2E63C183CE6C200E0F21E1EF2E00000AC
:101E7600E2C68E9AB2E6CE0000FEFE828200000026
:101E860080C06030180C0600008282FEFE00000052
:101E9600103060C060301000010101010101010134
:101EA6000000C0E020000000042E6A4A6A3E0200DC
:101EB60082FEFC12121E0C001C3E2222361400006A
:101EC6000C1E1292FCFE02001C3E2A2A3A18000042
:101ED60012FEFE92C0400000193D25251F3E20003F
:101EE60082FEFE10203E1E000022BEBE0200000042
:101EF60006070101BFBE000082FEFE081C36220056
:101F06000082FEFE020000003E3E181C383E1E0007
:101F16003E3E20203E1E00001C3E22223E1C0000AB
:101F2600213F1F25253C1800183C24251F3F210072
:101F3600243E1E3220381800123A2A2A2E24000087
:101F460000207CFE222400003C3E02023C3E0200B1
:101F5600383C06063C3800003C3E0E1C0E3E3C005B
:101F660022361C081C362200393D05053F3E00007E
:101F760032262E3A3226000010107CEE82820000B5
:101F86000000007E7E0000008282EE7C10100000C1
:101F960040C080C040C0800000000000000000007B
:101FA60000000000000000003F40000000000000AC
:101FB60000003000400030004000000009000BC067
:101FC6003D000BC03D00090018C024407FE02240C0
:101FD60031800000180024C01B000D8032400180B3
:101FE60003801C4027401C80074000401000600012
:101FF60000000000000000000000000000001F803C
:10200600204040200000402020401F8000000000AB
:10201600090006001F8006000900000004000400F5
:102026003F80040004000000001000600000000073
:102036000000000004000400040004000400000086
:10204600000000400000000000000000002001C069
:1020560006003800400000001F802040204020403D
:102066001F800000000010403FC00040000000003C
:1020760018C0214022402440184000001080204013
:10208600244024401B80000002000D0011003FC0C8
:10209600014000003C80244024402440238000006E
:1020A6001F8024402440344003800000300020007C
:1020B60027C03800200000001B8024402440244014
:1020C6001B8000001C0022C0224022401F8000000E
:1020D60000000000084000000000000000000000B2
:1020E6000460000000000000000004000A00110067
:1020F600208040400900090009000900090000008D
:1021060000004040208011000A0004001800200052
:1021160023402400180000001F802040274029404B
:102126001F400000004007C039000F0001C00040FA
:1021360020403FC0244024401B8000001F802040D8
:10214600204020403080000020403FC020402040FA
:102156001F80000020403FC024402E4030C00000B9
:1021660020403FC024402E00300000000F001080A9
:10217600204022403380020020403FC0040004007B
:102186003FC02040204020403FC02040204000006B
:102196000060202020203FC02000200020403FC0BB
:1021A60024400B0030C0204020403FC0204000406B
:1021B600004000C03FC03C0003C03C003FC00000E0
:1021C60020403FC00C4023003FC020001F8020401D
:1021D600204020401F80000020403FC024402400B3
:1021E600180000001F802140214020E01FA00000B1
:1021F60020403FC02440260019C0004018C024409B
:102206002440224031800000300020403FC0204062
:102216003000000020003F80004000403F8020004A
:1022260020003E0001C0070038002000380007C02B
:102236003C0007C038000000204039C0060039C005
:10224600204000002000384007C038402000000031
:10225600304021C02640384020C000000000000069
:102266007FE0402040200000000070000C0003804A
:10227600004000000000402040207FE000000000F9
:1022860000002000400020000000000000100010A8
:1022960000100010001000100000000040000000B8
:1022A60000000000000002800540054003C0004019
:1022B60020003FC00440044003800000000003806B
:1022C600044004400640000000000380044024400F
:1022D6003FC0004000000380054005400340000069
:1022E600000004401FC0244024402000000002E0FB
:1022F600055005500650042020403FC0044004000D
:1023060003C000400000044027C000400000000059
:1023160000100010041027E00000000020403FC01D
:102326000140070004C00440204020403FC0004058
:102336000040000007C0040007C0040003C00000FE
:10234600044007C00440040003C0004000000380AE
:102356000440044003800000041007F004500440C9
:1023660003800000000003800440045007F00010C2
:10237600044007C0024004000400000000000640BC
:102386000540054004C00000000004001F80044012
:1023960000400000040007800040044007C00040E1
:1023A6000400070004C0018006000400060001C006
:1023B600070001C006000000044006C0010006C078
:1023C600044000000410071004E001800600040029
:1023D6000000044005C00640044000000000000064
:1023E60004007BE040200000000000000000FFF039
:1023F60000000000000040207BE004000000000018
:102406004000800040002000200040000000000046
:1024160000000000000000000000000000000000B6
:1024260000001FCC000C00000000000000000800A7
:10243600300060000800300060000000022003FC4D
:102446001E20022003FC1E200220000000000E18A1
:1024560011043FFF10840C78000000000F00108468
:102466000F3800C0077818840078000000780F84C1
:1024760010C411240E9800E40084000808006800C7
:1024860070000000000000000000000000000000D6
:10249600000007E018182004400200000000400277
:1024A6002004181807E00000000000000240024067
:1024B60001800FF001800240024000000080008091
:1024C60000800FF800800080008000000001000DF1
:1024D600000E000000000000000000000000008068
:1024E6000080008000800080008000800000000CDA
:1024F600000C0000000000000000000000000006C4
:10250600001800600180060018002000000007F097
:10251600080810041004080807F00000000008046A
:1025260008041FFC000400040000000000000E0C5C
:1025360010141024104411840E0C000000000C1816
:1025460010041104110412880C700000000000E051
:102556000320042408241FFC0024000000001F9808
:10256600108411041104108810700000000007F098
:1025760008881104110418880070000000001C006F
:10258600100010FC13001C001000000000000E38A4
:1025960011441084108411440E3800000000070016
:1025A600088C10441044088807F000000000000062
:1025B6000000030C030C00000000000000000000F7
:1025C600000101060000000000000000000000807D
:1025D6000140022004100808100400000220022016
:1025E6000220022002200220022000000000100427
:1025F60008080410022001400080000000000E00C0
:102606001200100C106C10800F00000003E00C1874
:1026160013E4142417C4082807D000000004003C63
:1026260003C41C40074000E4001C000410041FFC07
:102636001104110411040E880070000003E00C1848
:1026460010041004100410081C10000010041FFCD5
:10265600100410041004080807F0000010041FFC02
:102666001104110417C410040818000010041FFCFC
:102676001104110017C010000800000003E00C1838
:102686001004100410441C780040000010041FFCC5
:1026960010840080008010841FFC100400001004C9
:1026A60010041FFC100410040000000000030001C9
:1026B600100110011FFE10001000000010041FFC86
:1026C600110403801464181C1004000010041FFC7D
:1026D6001004000400040004000C000010041FFC99
:1026E6001F0000FC1F001FFC1004000010041FFC4C
:1026F6000C04030000E010181FFC100007F0080887
:10270600100410041004080807F0000010041FFC51
:1027160010841080108010800F00000007F0081849
:1027260010241024101C080A07F2000010041FFCD5
:102736001104110011C011300E0C000400000E1C13
:1027460011041084108410441C3800001800100076
:1027560010041FFC100410001800000010001FF8E1
:1027660010040004000410041FF8100010001E00DE
:1027760011E0001C007013801C0010001FC0103CEC
:1027860000E01F0000E0103C1FC000001004180C01
:10279600163401C001C01634180C100410001C00B9
:1027A600130400FC13041C00100000000804101C95
:1027B6001064108413041C041018000000000000AC
:1027C60000007FFE40024002400200000000300090
:1027D6000C0003800060001C0003000000004002A3
:1027E600400240027FFE00000000000000000000E2
:1027F60020004000400040002000000000010001D1
:10280600000100010001000100010001000040007C
:1028160040002000000000000000000000000098BA
:10282600012401440144014400FC000410001FFC83
:102836000088010401040088007000000000007098
:1028460000880104010401040088000000000070F3
:1028560000880104010411081FFC0004000000F8B0
:10286600014401440144014400C800000000010481
:1028760001040FFC1104110411001800000000D619
:1028860001290129012901C90106000010041FFCC4
:10289600008401000100010400FC000400000104A2
:1028A600190419FC000400040000000000000003E5
:1028B60000010101190119FE0000000010041FFCAF
:1028C6000024004001B4010C0104000000001004C3
:1028D60010041FFC0004000400000000010401FCB9
:1028E6000104010001FC0104010000FC010401FCDB
:1028F600008401000100010400FC0004000000F84F
:10290600010401040104010400F80000010101FFB3
:1029160000850104010400880070000000000070BA
:10292600008801040104010501FF000101040104FE
:1029360001FC00840104010001800000000000CCBD
:102946000124012401240124019800000000010053
:10295600010007F80104010400000000010001F86D
:10296600000400040004010801FC000401000180C9
:102976000170000C001001600180010001F0010CE3
:10298600003001C00030010C01F00100000001041C
:10299600018C00740170018C0104000001010181A9
:1029A6000171000E00180160018001000000018421
:1029B600010C013401440184010C000000000000F8
:1029C6000000000001003EFC400240020000000042
:1029D60000000000FFFF00000000000000004002B1
:1029E60040023EFC01000000000000000000600004
:1029F6008000800040004000200020000000000011
:102A060000000000000000000000000000000000C0
:102A160000000000000000000000000000000000B0
:102A26000000000000000000000000000000000F91
:102A360080380FFE380F80380000000000000000CC
:102A46000000000000000000000001000006000079
:102A56000C00003800003100000600000C000038B1
:102A660000003000000000000000000061800067E8
:102A7600F807F98000618000618000618000618054
:102A86000067F807F9800061800000000000000080
:102A9600000001C0E003E0F00630080418081FFF3C
:102AA600FE040E080787F00381E000000000000026
:102AB60001F000060C00040408060C7001F9C000C1
:102AC6000E00003BE000EC18070808040C18000391
:102AD600E00000000001E00007F003F818041C08FD
:102AE60004170807E1D003C0E00023B0003C08004B
:102AF6002008000010000000000000010000310066
:102B0600003200001C000000000000000000000071
:102B160000000000000000000000000000000000AF
:102B26000000000000000000000000007F0001FF20
:102B3600C00780F00C0018100004200002000000FE
:102B46000000002000021000040C00180780F001AD
:102B5600FFC0007F00000000000000000000000031
:102B66000000000000000000420000660000660051
:102B7600003C0000180003FFC0001800003C0000E5
:102B86006600006600004200000000000800000821
:102B96000000080000080000080001FFC00008004F
:102BA60000080000080000080000080000000000FF
:102BB600000100003100003200001C00000000008F
:102BC60000000000000000000000000000000000FF
:102BD60000000000080000080000080000080000CF
:102BE60008000008000008000008000008000008AF
:102BF600000000000000000000000000380000385F
:102C06000000380000000000000000000000000086
:102C160000000000000000000000000000060000A8
:102C26001C000070000180000E0000380000C0008B
:102C36000700001C0000300000000000000000003B
:102C46007F8001FFE003807006001804000804007E
:102C56000806001803807001FFE0007F8000000076
:102C66000000000000000100080100080100080340
:102C7600FFF807FFF8000008000008000008000041
:102C86000000000000000001C03802C0580400988F
:102C9600040118040218040418061C1803F8180185
:102CA600E0F800000000000000000001C0E003C0E2
:102CB600F004000804080804080806180803F418B5
:102CC60001E7F00001E00000000000000000000045
:102CD6000300000D000011000061000081080301DF
:102CE6000807FFF80FFFF8000108000108000000C0
:102CF6000000000000E007FCD006080806100806E1
:102D06001008061008061838060FF00607C000005F
:102D160000000000000000003F8001FFE003843057
:102D260002081804100804100804100807181003F5
:102D36000FF00007C000000000000000000003C004
:102D4600000700000600000600F80607F80618004F
:102D560006E0000700000600000000000000000179
:102D6600E1E003F7F0063410041808041808040C10
:102D760008040C0806161803F3F001C1E000000071
:102D860000000000F80003FC3003063804020804C3
:102D960002080402080404100308F001FFC0007FC3
:102DA600000000000000000000000000000000001D
:102DB6000000000070380070380070380000000015
:102DC60000000000000000000000000000000000FD
:102DD6000000000000000000301A00301C00000057
:102DE60000000000000000000000000000000000DD
:102DF60000000008000014000022000041000080CE
:102E060080010040020020040010080008000000B5
:102E16000000000021000021000021000021000028
:102E260021000021000021000021000021000021D6
:102E36000000000000000000000008000804001068
:102E460002002001004000808000410000220000B6
:102E5600140000080000000000000003C00004C0C9
:102E660000040000080038080F3808083808100069
:102E76000C300007E00003C0000000000000000066
:102E86003F8000FFE0038070020F1006708804C0C8
:102E960088048308047F8802C09003012000FE4056
:102EA6000000080000180001F8003E0801C20007F3
:102EB600020007E20000FE00001FC80001F8000043
:102EC6003800000804000807FFF807FFF8040808A0
:102ED60004080804080804080806180803F418017A
:102EE600E7F00001E0000000000000003F8001FF65
:102EF600E0038070020018040008040008040008BB
:102F06000400100600200780C00000000400080727
:102F1600FFF807FFF804000804000804000804008E
:102F26001802001003807001FFE0007F800000009F
:102F360004000807FFF807FFF80408080408080457
:102F46000808040808043E080400080600180100E2
:102F56006000000004000807FFF807FFF8040808EF
:102F6600040800040800040800043E0006000006E9
:102F76000000018000000000000000003F8001FF0B
:102F8600E003807006001804000804020804020822
:102F96000203F00783F000020000020004000807A5
:102FA600FFF807FFF80408080008000008000008FA
:102FB6000000080004080807FFF807FFF8040008E7
:102FC60000000000000004000804000804000807D0
:102FD600FFF807FFF80400080400080400080000D2
:102FE60000000000000000000006000007000001CD
:102FF60004000104000104000307FFFE07FFFC04B0
:10300600000004000004000004000807FFF807FFA2
:10301600F8040C08001800003E0004C7800503C829
:103026000600F80400380400180000080400080729
:10303600FFF807FFF8040008000008000008000079
:1030460008000008000008000018000060000000EA
:1030560004000807FFF807800807FC00007FC0008F
:1030660003F80007C000780007800807FFF807FF8D
:10307600F804000804000807FFF807000803C0006A
:1030860000E000003800001E000007000001C00438
:1030960000F007FFF8040000000000007F8001FF39
:1030A600E0038070060018040008040008060018F3
:1030B60003003001FFE0007F8000000004000807E5
:1030C600FFF807FFF80404080404000404000404DD
:1030D60000040400060C0003F80001F000000000E4
:1030E600000000007F8001FFE00380700600880476
:1030F60000880400C806003C03003E01FFE6007F8E
:103106008400000004000807FFF807FFF804080819
:10311600040800040C00040F00040BC00610F003A2
:10312600F03801E00800000800000001E0F803F0B4
:1031360030063010041808041808040C08040C089B
:103146000206180207F00781E00000000180000671
:10315600000004000004000004000807FFF807FF51
:10316600F8040008040000040000060000018000C6
:1031760004000007FFE007FFF00400180000080045
:10318600000800000800000800000804001007FFFF
:10319600E004000004000006000007E00007FE004F
:1031A600041FE00001F80000380001E0043E0007BB
:1031B600C00006000004000004000007E00007FF4E
:1031C600C0041FF80007C007F80007FF80043FF897
:1031D6000007C004F8000700000400000000000417
:1031E600000806001807C07805F1C8003E00001F59
:1031F600800463E80780F806001804000800000051
:1032060004000006000007800007E008047C0800B0
:103216001FF80007F800180804E008070000060079
:10322600000400000000000100080600380400F851
:103236000403E8040F08047C0805F00807C0080723
:1032460000180400600000000000000000000000FC
:10325600000000000000003FFFFE200002200002E8
:1032660020000220000220000200000000000000F2
:10327600000008000007000000C00000380000063B
:10328600000001C000003000000E00000100000038
:1032960000000000000020000220000220000220A2
:1032A60000022000023FFFFE0000000000000000B8
:1032B6000000000000000000000000000008000000
:1032C6001000003000002000003000001000000850
:1032D60000000000000000000000010000010000E6
:1032E60001000001000001000001000001000001D2
:1032F60000000100000100000100000100000000C4
:103306000000000000200000200000100000100057
:1033160000000000000000000000000000000000A7
:103326000000000000F00019F8001B180022080039
:103336002608002408002410003FF8001FF80000AB
:103346000800001800000004000007FFF80FFFF057
:103356000018180010080020080020080030180087
:103366001FF0000FC00000000000000007C0001F93
:10337600F0001830002008002008002008003C0853
:10338600001C1000006000000000000000000000AB
:1033960007C0001FF0003818002008002008002091
:1033A6000804101007FFF80FFFF0000010000000DF
:1033B6000000000000000007C0001FF000123000EF
:1033C6002218002208002208003208001E10000EF3
:1033D6002000000000000000200000200800200857
:1033E60001FFF803FFF80620080420080420080758
:1033F600200003000000000000000000000E000E88
:103406006E001FF30031B10020B10020B1003191F0
:10341600001F13002E1E00200E00300000000004C6
:10342600000807FFF80FFFF8001008002000002032
:1034360000002008003FF8001FF800000800000008
:1034460000000000000000200800200800200806F8
:103456003FF8063FF80000080000080000080000DA
:103466000000000000000000000000000300000350
:10347600002001002001002003063FFE063FFC005D
