:0300000002427643
:10427600787FE4F6D8FD750D10750E007581210264
:0242860042C331
:040003007F4EDFFE4F
:0100070022D6
:104986007D027C00ED1D70011C144C70F7EF1F704A
:06499600011E144E70EA40
:01499C0022F8
:10499D007D0B7C00ED1D70011C144C70F7EF1F702A
:0649AD00011E144E70EA29
:0149B30022E1
:1049B4007D167C00ED1D70011C144C70F7EF1F7008
:0649C400011E144E70EA12
:0149CA0022CA
:1049CB007DA37C08ED1D70011C144C70F7EF1F705C
:0649DB00011E144E70EAFB
:0149E10022B3
:102B8200EFD394077480948040037F0122121C5873
:102B9200FED394037480948040037F0222EF70443A
:102BA200EE700B900001121C71F452935294121C9D
:102BB200586401700B900001121C714293F45294FC
:102BC200121C58FE6402700A900001121C7142939A
:102BD2004294EE6403700D900001121C71FEF452D7
:102BE20093EE4294EF64017046121C58FE700B90F3
:102BF2000001121C71F452915292EE6401700B901A
:102C02000001121C714291F45292121C586402701B
:102C12000A900001121C7142914292121C586403E4
:102C2200700D900001121C71FEF45291EE4292EF6F
:102C320064027046121C58FE700B900001121C7147
:102C4200F452955296EE6401700B900001121C71C1
:102C52004295F45296121C586402700A90000112B6
:102C62001C7142954296121C586403700D9000012B
:102C7200121C71FEF45295EE4296EF6403704612F6
:102C82001C58FE700B900001121C71F452B152B22A
:102C9200EE6401700B900001121C7142B1F452B249
:102CA200121C586402700A900001121C7142B14257
:102CB200B2121C586403700D900001121C71FEF4D4
:102CC20052B1EE42B2EF64047046121C58FE700B11
:102CD200900001121C71F452B352B4EE6401700BF5
:102CE200900001121C7142B3F452B4121C586402D7
:102CF200700A900001121C7142B342B4121C586453
:102D020003700D900001121C71FEF452B3EE42B436
:102D1200EF64057046121C58FE700B900001121CE5
:102D220071F452C952CAEE6401700B900001121C78
:102D32007142C9F452CA121C586402700A9000010E
:102D4200121C7142C942CA121C586403700D9000D1
:102D520001121C71FEF452C9EE42CAEF64067046BB
:102D6200121C58FE700B900001121C71F452CB52CF
:102D7200CCEE6401700B900001121C7142CBF45234
:102D8200CC121C586402700A900001121C7142CBD2
:102D920042CC121C586403700D900001121C71FE8B
:102DA200F452CBEE42CCEF64077049121C58FF7EFE
:102DB20000700B900001121C71F452E152E2EF64B8
:102DC200014E700B900001121C7142E1F452E212AA
:102DD2001C586402700A900001121C7142E142E226
:102DE200121C586403700D900001121C71FFF45202
:072DF200E1EF42E27F002245
:03001B00020008D8
:03000800B2EE3223
:0300630002001E7A
:03001E00B2ED320E
:03009B00020096CA
:03009600B2EC3297
:0300A30002009EBA
:03009E00B2EB3290
:10285100AD07EDD394047480948040037F0122ED91
:102861006003022926C28C900002121C716401705F
:1028710004D2A98002C2A9900001121C71FED39456
:10288100037480948040037F0222EEFF7E00700576
:1028910053B7FDC2B9EF64014E700553B7FDD2B90C
:1028A100EF64024E700543B702C2B9EF64034E7084
:1028B1000543B702D2B9121C58FEC3940374809425
:1028C1008040037F0222E58954FC4EF58990000384
:1028D100121C71FF7E0064017003538E7FEF4E70F6
:1028E10003438E80EF64024E7005438904800353D5
:1028F10089FB900004121C7164017005438F0180F3
:1029010003538FFE900005121D1FE5F0F58C90001A
:1029110005121D1FF58A900007121C7164017002D7
:10292100D28C7F0022ED640160030229F3C28E90F4
:102931000002121C7164017004D2AB8002C2AB9020
:102941000001121C71FED394037480948040037FB4
:102951000222EEFF7E00700553B7F7C2BBEF6401A0
:102961004E700553B7F7D2BBEF64024E700543B703
:1029710008C2BBEF64034E700543B708D2BB121CFB
:1029810058FEC394037480948040037F0222EEC4F6
:1029910054F0FFE58954CF4FF589900003121C7163
:1029A100FF7E0064017003538EBFEF4E7003438EB0
:1029B10040EF64024E700543894080035389BF9004
:1029C1000004121C7164017005438F028003538F50
:1029D100FD900005121D1FE5F0F58D900005121DFB
:1029E1001FF58B900007121C7164017002D28E7F5B
:1029F1000022ED6402707C538EEF900002121C7174
:102A01006401700543AF04800353AFFB90000312D0
:102A11001C71FED394027480948040037F0222EEE5
:102A2100FF7E0064017003538EFBEF4E7003438EF3
:102A310004EF64024E7005438E088003538EF790B5
:102A41000004121C7164017005438F048003538FCD
:102A5100FB900005121D1FE5F0F5D6900005121D33
:102A61001FF5D7900007121C7164017003438E108B
:102A71007F0022ED6403707C53D1F7900002121C99
:102A8100716401700543AF20800353AFDF900003F1
:102A9100121C71FED394027480948040037F022241
:102AA100EEFF7E006401700353D1FDEF4E700343CE
:102AB100D102EF64024E700543D104800353D1FB70
:102AC100900004121C716401700543D1018003530D
:102AD100D1FE900005121D1FE5F0F5D490000512FE
:102AE1001D1FF5D5900007121C716401700343D1BD
:102AF100087F0022ED64046003022B7F53D17F9095
:102B01000002121C716401700543AF40800353AF92
:102B1100BF900003121C71FD7C00D3940274809459
:102B21008040037F0222ED64014C700353D1DF909A
:102B31000003121C71700343D120900003121C7119
:102B41006402700543D140800353D1BF9000041249
:102B51001C716401700543D110800353D1EF9000C3
:102B610005121D1FFDACF0ECF5D2AF058FD390001F
:102B710007121C716401700343D1807F00227F0220
:012B81002231
:0B3051009005ECEBF0A3EAF0A3E9F01F
:10305C00EF6401600302329490040104F0E4A3F0E5
:10306C00A3F0A3F0A3F0A3F0A3F0FFEFC39480743C
:10307C00809480500F74882FF582E43404F583E437
:10308C00F00F80E7E4FFEFC3948074809480500FBE
:10309C0074082FF582E43404F583E4F00F80E79094
:1030AC0005ECE0FBA3E0FAA3E0F990000A121C7116
:1030BC00FD7C00D394037480948040037F0222ED46
:1030CC004C700553B7EFC2BC9005ECE0FBA3E0FAE3
:1030DC00A3E0F990000A121C716401700553B7EF5C
:1030EC00D2BC90000A121C71FF7E00640270054372
:1030FC00B710C2BCEF64034E700543B710D2BC12BC
:10310C001C58FD7C00D394C07480948040037F02D3
:10311C0022121C58FFE598543F4FF598ED64C04CB3
:10312C006008EF64406003023217900002121E9890
:10313C007F007E607D547C00121DE29005EF121E14
:10314C00C8E4FFFE7D01FC9005EFE0F8A3E0F9A3D5
:10315C00E0FAA3E0FBC3121E7440037F0222900529
:10316C00EFE0F8A3E0F9A3E0FAA3E0FBC3E49BFFD4
:10317C00E49AFE740199FDE498FC9005EF121EC8C8
:10318C009005ECE0FBA3E0FAA3E0F9900001121C1F
:10319C0071FB7A0064017038C28E538EFE5389BF66
:1031AC005389CF438E409005EFE0FCA3E0FDA3E0F4
:1031BC00FEA3E0FF7808121E858F8D9005EFA3A368
:1031CC00A3E0F58BC2AB5389BF538FFDD28E807AAF
:1031DC00EB64024A7032538EEF438E01538EF743E9
:1031EC008E049005EFE0FCA3E0FDA3E0FEA3E0FF5E
:1031FC007808121E858FD69005EFA3A3A3E0F5D710
:10320C0053AFFB438E1080427F02229005ECE0FB13
:10321C00A3E0FAA3E0F9121C58FF7E007014900092
:10322C0008121C7164017005438E20801D538EDFC3
:10323C008018EF64804E7012900008121C716401AB
:10324C007005438780800353877F9005ECE0FBA3D8
:10325C00E0FAA3E0F9900009121C7164017004D229
:10326C00AC8002C2AC900007121C7164017004D2D5
:10327C009C8002C29C90000B121C7154C0FFE5A2F2
:0A328C00543F4FF5A27F00227F029D
:013296002215
:1047E700900403E02488F582E43404F583EFF09025
:1047F7000403E004F0C39480748094804002E4F0E2
:0B480700900404E0700404F0D2992239
:104A2100121C58FF600C1247E7740129F9E43AFAA5
:034A310080EE22F2
:0A4A6E006E6F742066696E6421000B
:103F8E00602305086D656E750000000000000000DE
:103F9E000000000000000000000000000000000013
:103FAE00000000000000006046052B68656C6C6F19
:103FBE0000000000000000000000000000000001F2
:103FCE000001000000000000000000000000636F10
:103FDE00756E74000000000000000000000000007C
:103FEE0000000100020000000000000000000000C0
:103FFE00006046057148656C6C6F20576F726C647B
:10400E00210000000000000000020101000000007D
:10401E000000000000FF4A7848656C6C6F20433545
:10402E00312100000000000000000000020102002B
:0B403E000000000000000000FF4A81AD
:0F4A3400124A4312491D1244A5124A8AD2AF22D8
:10396A009005B77401F0A37405F0A3742BF0F9A3C2
:10397A007401F0A37405F0A3E9F09005D17402F084
:10398A00A314F0A3F0124A349005E37401F0A3746F
:10399A0005F0A3742BF07B017A057908123297900F
:1039AA0005E37401F0A37405F0A3744EF07B017A69
:1039BA000579081232979005E37401F0A37405F0B3
:1039CA00A37471F07B017A0579081232979005E3A6
:1039DA007401F0A37405F0A37494F07B017A05795D
:1039EA00081232977B017A0579BD90FFFD121F9468
:1039FA00EBF0A3EAF0A3E9F07B017A057908123427
:103A0A00D79005B7EBF0A3EAF0A3E9F09005B7E089
:103A1A00FBA3E0FAA3E04A4B604F9005B7A3A3E0EB
:103A2A00F9123AA01249399005B7E0FBA3E0FAA3CC
:103A3A00E0F9900020121F05E94A4B60579005B73C
:103A4A00E0FBA3E0FAA3E0F9C003C002C0019005BD
:103A5A00B7A3A3E0900020121F0589828A83D001B0
:103A6A00D002D003121F92802B9005E67440F0E436
:103A7A00A3F07B7F7D38FF1247617BFF7A4A796E1C
:103A8A009005E87408F0A37401F07D3AE4FF12414E
:063A9A002712493980FEED
:094A780012483C1249397F00226A
:094A81001248641249397F002239
:0C404900440673000000004206710000F5
:10481200E49005E0F0A304F0A3F0E4A3F0A3F0A376
:1048220074A9F0A3749AF0A37401F07B017A05795C
:09483200E0E4FF122851EF70F2DE
:01483B00225A
:034A8A00024812CD
:03000B0002452883
:10452800C0E0C0F0C083C082C0D075D000C000C059
:0745380004C005C006C00726
:10453F00900672E004F07006900671E004F0C390EC
:10454F000672E094E8900671E094034021E4F0A332
:10455F00F0A3E0FCA3E0FDA3E0FEA3E02401FFE451
:0E456F003EFEE43DFDE43CFC900673121EC8C7
:10457D00D007D006D005D004D000D0D0D082D083C3
:05458D00D0F0D0E03287
:1048D8000D0A5354433848384B3634552055415205
:1048E800543120546573742050726F6772616D6D16
:0548F80065210D0A001E
:1040550043066901040142066E048842066C0408A1
:0440650041067000A0
:0E4A5200900634EFF0124A8D900634E0FF22F9
:10496E00A2B172B0E4339005E0F0E4A3F07B017ADB
:08497E000579E07F03022B82A2
:100066009005E07440F0A37401F0A3121ED40001C1
:10007600C200E49005E6F0A304F0E4A3F0A304F0C4
:10008600E4A3F0A3F07B017A0579E07F0102305109
:0F4A430012496E1200667BFF7A4879D802255718
:034A8D000247E7F6
:034A9000024A21B6
:10439700900669E0FBA3E0FAA3E0F9900005121C80
:1043A70071D3940074809480406C90000574FF1260
:1043B7001C9E7062900004121C71FFD394007480DD
:1043C70094804052900670EFF0E490068FF09006CC
:1043D70069E0FBA3E0FAA3E0F9900004121C71FF67
:1043E70090068FE0FEC39F501B90066CE0FCA3E095
:1043F7002EF582E43CF583E0FF124A8D90068FE0AC
:1044070004F080CA900669E0FBA3E0FAA3E0F99004
:064417000004E4121CD1B8
:01441D00227C
:0300230002441E76
:10441E00C0E0C083C082C0D075D000C006C00730D7
:10442E009831C298900407E07029900405E0C39477
:10443E0080748094804002E4F0900405E0FF04F064
:10444E0074082FF582E43404F583E599F0900406A0
:10445E007405F0309934C299900403E0FF90040281
:10446E00E0FE6F602074882EF582E43404F583E05C
:10447E00F599900402E004F0C39480748094804017
:10448E0009E4F08005900404E4F0D007D006D0D003
:07449E00D082D083D0E03290
:04406900410690017B
:10491D009005E17404F0E49005E0F07B017A0579EF
:0B492D00E07F03122B82EF70F2D2B289
:01493800225C
:10478F00EF60069006907401F0900690E0601120A3
:10479F00B20EE4F07F0AFE1249CB20B20C7F012249
:0B47AF0030B2069006907401F07F000D
:0147BA0022DC
:1000A6000000000000000000000060FAFA60000096
:1000B60000C0C000C0C0000028FEFE28FEFE2800CA
:1000C6002474D6D65C48000062660C18306646007A
:1000D6000C5EF2BEEA5E12002070C0000000000056
:1000E600001C3E63410000000041633E1C0000000E
:1000F600082A3E1C1C3E2A0808083E3E0808000046
:1001060000010706000000000808080808080000AB
:100116000000060600000000060C183060C08000D3
:100126007CFEE2B29AFE7C003262FEFE0202000013
:1001360046CE9A92F666000044C69292FE6C000085
:10014600183868CAFEFE0A00E4E6A2A2AE9C0000C9
:100156003C7ED2929E1C0000C0C08E9EF0E0000045
:100166006CFE9292FE6C000060F29296FC780000A3
:1001760000006666000000000001676600000000DF
:1001860010386CC6820000004242424242420000E1
:100196000082C66C3810000040C08A9AF0600000E9
:1001A6007CFE82BABAF878003FFFC8C8FF3F00005D
:1001B60082FEFE9292FE6C00387CC68282C64400A5
:1001C60082FEFE82C67C380082FEFE92BA82C6009D
:1001D60082FEFE92B880C00038FEC6828ACE4E00ED
:1001E600FEFE1818FEFE00000082FEFE82000000E1
:1001F6000C0E0282FEFC800082FEFE1038EEC60067
:1002060082FEFE8202060E00FEFE703870FEFE00C2
:10021600FEFE601806FEFE00387CC682C67C3800EC
:1002260082FEFE9290F0600078FC848EFE7A0000DA
:10023600FEFE9098FE66000064F6B29ACE4C000070
:10024600C082FEFE82C00000FEFE0202FEFE00002C
:10025600F8FC0606FCF80000FEFE0C180CFEFE007C
:10026600C2E63C183CE6C200E0F21E1EF2E00000C8
:10027600E2C68E9AB2E6CE0000FEFE828200000042
:1002860080C06030180C0600008282FEFE0000006E
:10029600103060C060301000010101010101010150
:1002A6000000C0E020000000042E6A4A6A3E0200F8
:1002B60082FEFC12121E0C001C3E22223614000086
:1002C6000C1E1292FCFE02001C3E2A2A3A1800005E
:1002D60012FEFE92C0400000193D25251F3E20005B
:1002E60082FEFE10203E1E000022BEBE020000005E
:1002F60006070101BFBE000082FEFE081C36220072
:100306000082FEFE020000003E3E181C383E1E0023
:100316003E3E20203E1E00001C3E22223E1C0000C7
:10032600213F1F25253C1800183C24251F3F21008E
:10033600243E1E3220381800123A2A2A2E240000A3
:1003460000207CFE222400003C3E02023C3E0200CD
:10035600383C06063C3800003C3E0E1C0E3E3C0077
:1003660022361C081C362200393D05053F3E00009A
:1003760032262E3A3226000010107CEE82820000D1
:100386000000007E7E0000008282EE7C10100000DD
:1003960040C080C040C08000000000000000000097
:1003A60000000000000000003F40000000000000C8
:1003B60000003000400030004000000009000BC083
:1003C6003D000BC03D00090018C024407FE02240DC
:1003D60031800000180024C01B000D8032400180CF
:1003E60003801C4027401C8007400040100060002E
:1003F60000000000000000000000000000001F8058
:10040600204040200000402020401F8000000000C7
:10041600090006001F800600090000000400040011
:100426003F8004000400000000100060000000008F
:1004360000000000040004000400040004000000A2
:10044600000000400000000000000000002001C085
:1004560006003800400000001F8020402040204059
:100466001F800000000010403FC000400000000058
:1004760018C021402240244018400000108020402F
:10048600244024401B80000002000D0011003FC0E4
:10049600014000003C80244024402440238000008A
:1004A6001F80244024403440038000003000200098
:1004B60027C03800200000001B8024402440244030
:1004C6001B8000001C0022C0224022401F8000002A
:1004D60000000000084000000000000000000000CE
:1004E6000460000000000000000004000A00110083
:1004F60020804040090009000900090009000000A9
:1005060000004040208011000A000400180020006E
:1005160023402400180000001F8020402740294067
:100526001F400000004007C039000F0001C0004016
:1005360020403FC0244024401B8000001F802040F4
:10054600204020403080000020403FC02040204016
:100556001F80000020403FC024402E4030C00000D5
:1005660020403FC024402E00300000000F001080C5
:10057600204022403380020020403FC00400040097
:100586003FC02040204020403FC020402040000087
:100596000060202020203FC02000200020403FC0D7
:1005A60024400B0030C0204020403FC02040004087
:1005B600004000C03FC03C0003C03C003FC00000FC
:1005C60020403FC00C4023003FC020001F80204039
:1005D600204020401F80000020403FC024402400CF
:1005E600180000001F802140214020E01FA00000CD
:1005F60020403FC02440260019C0004018C02440B7
:100606002440224031800000300020403FC020407E
:100616003000000020003F80004000403F80200066
:1006260020003E0001C0070038002000380007C047
:100636003C0007C038000000204039C0060039C021
:10064600204000002000384007C03840200000004D
:10065600304021C02640384020C000000000000085
:100666007FE0402040200000000070000C00038066
:10067600004000000000402040207FE00000000015
:1006860000002000400020000000000000100010C4
:1006960000100010001000100000000040000000D4
:1006A60000000000000002800540054003C0004035
:1006B60020003FC004400440038000000000038087
:1006C600044004400640000000000380044024402B
:1006D6003FC0004000000380054005400340000085
:1006E600000004401FC0244024402000000002E017
:1006F600055005500650042020403FC00440040029
:1007060003C000400000044027C000400000000075
:1007160000100010041027E00000000020403FC039
:100726000140070004C00440204020403FC0004074
:100736000040000007C0040007C0040003C000001A
:10074600044007C00440040003C0004000000380CA
:100756000440044003800000041007F004500440E5
:1007660003800000000003800440045007F00010DE
:10077600044007C0024004000400000000000640D8
:100786000540054004C00000000004001F8004402E
:1007960000400000040007800040044007C00040FD
:1007A6000400070004C0018006000400060001C022
:1007B600070001C006000000044006C0010006C094
:1007C600044000000410071004E001800600040045
:1007D6000000044005C00640044000000000000080
:1007E60004007BE040200000000000000000FFF055
:1007F60000000000000040207BE004000000000034
:100806004000800040002000200040000000000062
:1008160000000000000000000000000000000000D2
:1008260000001FCC000C00000000000000000800C3
:10083600300060000800300060000000022003FC69
:100846001E20022003FC1E200220000000000E18BD
:1008560011043FFF10840C78000000000F00108484
:100866000F3800C0077818840078000000780F84DD
:1008760010C411240E9800E40084000808006800E3
:1008860070000000000000000000000000000000F2
:10089600000007E018182004400200000000400293
:1008A6002004181807E00000000000000240024083
:1008B60001800FF0018002400240000000800080AD
:1008C60000800FF800800080008000000001000D0D
:1008D600000E000000000000000000000000008084
:1008E6000080008000800080008000800000000CF6
:1008F600000C0000000000000000000000000006E0
:10090600001800600180060018002000000007F0B3
:10091600080810041004080807F000000000080486
:1009260008041FFC000400040000000000000E0C78
:1009360010141024104411840E0C000000000C1832
:1009460010041104110412880C700000000000E06D
:100956000320042408241FFC0024000000001F9824
:10096600108411041104108810700000000007F0B4
:1009760008881104110418880070000000001C008B
:10098600100010FC13001C001000000000000E38C0
:1009960011441084108411440E3800000000070032
:1009A600088C10441044088807F00000000000007E
:1009B6000000030C030C0000000000000000000013
:1009C6000001010600000000000000000000008099
:1009D6000140022004100808100400000220022032
:1009E6000220022002200220022000000000100443
:1009F60008080410022001400080000000000E00DC
:100A06001200100C106C10800F00000003E00C1890
:100A160013E4142417C4082807D000000004003C7F
:100A260003C41C40074000E4001C000410041FFC23
:100A36001104110411040E880070000003E00C1864
:100A460010041004100410081C10000010041FFCF1
:100A5600100410041004080807F0000010041FFC1E
:100A66001104110417C410040818000010041FFC18
:100A76001104110017C010000800000003E00C1854
:100A86001004100410441C780040000010041FFCE1
:100A960010840080008010841FFC100400001004E5
:100AA60010041FFC100410040000000000030001E5
:100AB600100110011FFE10001000000010041FFCA2
:100AC600110403801464181C1004000010041FFC99
:100AD6001004000400040004000C000010041FFCB5
:100AE6001F0000FC1F001FFC1004000010041FFC68
:100AF6000C04030000E010181FFC100007F00808A3
:100B0600100410041004080807F0000010041FFC6D
:100B160010841080108010800F00000007F0081865
:100B260010241024101C080A07F2000010041FFCF1
:100B36001104110011C011300E0C000400000E1C2F
:100B460011041084108410441C3800001800100092
:100B560010041FFC100410001800000010001FF8FD
:100B660010040004000410041FF8100010001E00FA
:100B760011E0001C007013801C0010001FC0103C08
:100B860000E01F0000E0103C1FC000001004180C1D
:100B9600163401C001C01634180C100410001C00D5
:100BA600130400FC13041C00100000000804101CB1
:100BB6001064108413041C041018000000000000C8
:100BC60000007FFE400240024002000000003000AC
:100BD6000C0003800060001C0003000000004002BF
:100BE600400240027FFE00000000000000000000FE
:100BF60020004000400040002000000000010001ED
:100C06000001000100010001000100010000400098
:100C160040002000000000000000000000000098D6
:100C2600012401440144014400FC000410001FFC9F
:100C360000880104010400880070000000000070B4
:100C4600008801040104010400880000000000700F
:100C560000880104010411081FFC0004000000F8CC
:100C6600014401440144014400C80000000001049D
:100C760001040FFC1104110411001800000000D635
:100C860001290129012901C90106000010041FFCE0
:100C9600008401000100010400FC000400000104BE
:100CA600190419FC00040004000000000000000301
:100CB60000010101190119FE0000000010041FFCCB
:100CC6000024004001B4010C0104000000001004DF
:100CD60010041FFC0004000400000000010401FCD5
:100CE6000104010001FC0104010000FC010401FCF7
:100CF600008401000100010400FC0004000000F86B
:100D0600010401040104010400F80000010101FFCF
:100D160000850104010400880070000000000070D6
:100D2600008801040104010501FF0001010401041A
:100D360001FC00840104010001800000000000CCD9
:100D4600012401240124012401980000000001006F
:100D5600010007F80104010400000000010001F889
:100D6600000400040004010801FC000401000180E5
:100D76000170000C001001600180010001F0010CFF
:100D8600003001C00030010C01F001000000010438
:100D9600018C00740170018C0104000001010181C5
:100DA6000171000E0018016001800100000001843D
:100DB600010C013401440184010C00000000000014
:100DC6000000000001003EFC40024002000000005E
:100DD60000000000FFFF00000000000000004002CD
:100DE60040023EFC01000000000000000000600020
:100DF600800080004000400020002000000000002D
:100E060000000000000000000000000000000000DC
:100E160000000000000000000000000000000000CC
:100E26000000000000000000000000000000000FAD
:100E360080380FFE380F80380000000000000000E8
:100E46000000000000000000000001000006000095
:100E56000C00003800003100000600000C000038CD
:100E66000000300000000000000000006180006704
:100E7600F807F98000618000618000618000618070
:100E86000067F807F980006180000000000000009C
:100E9600000001C0E003E0F00630080418081FFF58
:100EA600FE040E080787F00381E000000000000042
:100EB60001F000060C00040408060C7001F9C000DD
:100EC6000E00003BE000EC18070808040C180003AD
:100ED600E00000000001E00007F003F818041C0819
:100EE60004170807E1D003C0E00023B0003C080067
:100EF6002008000010000000000000010000310082
:100F0600003200001C00000000000000000000008D
:100F160000000000000000000000000000000000CB
:100F26000000000000000000000000007F0001FF3C
:100F3600C00780F00C00181000042000020000001A
:100F46000000002000021000040C00180780F001C9
:100F5600FFC0007F0000000000000000000000004D
:100F6600000000000000000042000066000066006D
:100F7600003C0000180003FFC0001800003C000001
:100F8600660000660000420000000000080000083D
:100F96000000080000080000080001FFC00008006B
:100FA600000800000800000800000800000000001B
:100FB600000100003100003200001C0000000000AB
:100FC600000000000000000000000000000000001B
:100FD60000000000080000080000080000080000EB
:100FE60008000008000008000008000008000008CB
:100FF600000000000000000000000000380000387B
:1010060000003800000000000000000000000000A2
:1010160000000000000000000000000000060000C4
:101026001C000070000180000E0000380000C000A7
:101036000700001C00003000000000000000000057
:101046007F8001FFE003807006001804000804009A
:101056000806001803807001FFE0007F8000000092
:10106600000000000000010008010008010008035C
:10107600FFF807FFF800000800000800000800005D
:101086000000000000000001C03802C058040098AB
:10109600040118040218040418061C1803F81801A1
:1010A600E0F800000000000000000001C0E003C0FE
:1010B600F004000804080804080806180803F418D1
:1010C60001E7F00001E00000000000000000000061
:1010D6000300000D000011000061000081080301FB
:1010E6000807FFF80FFFF8000108000108000000DC
:1010F6000000000000E007FCD006080806100806FD
:101106001008061008061838060FF00607C000007B
:1011160000000000000000003F8001FFE003843073
:101126000208180410080410080410080718100311
:101136000FF00007C000000000000000000003C020
:10114600000700000600000600F80607F80618006B
:1011560006E0000700000600000000000000000195
:10116600E1E003F7F0063410041808041808040C2C
:1011760008040C0806161803F3F001C1E00000008D
:1011860000000000F80003FC3003063804020804DF
:1011960002080402080404100308F001FFC0007FDF
:1011A6000000000000000000000000000000000039
:1011B6000000000070380070380070380000000031
:1011C6000000000000000000000000000000000019
:1011D6000000000000000000301A00301C00000073
:1011E60000000000000000000000000000000000F9
:1011F60000000008000014000022000041000080EA
:1012060080010040020020040010080008000000D1
:101216000000000021000021000021000021000044
:1012260021000021000021000021000021000021F2
:101236000000000000000000000008000804001084
:1012460002002001004000808000410000220000D2
:10125600140000080000000000000003C00004C0E5
:1012660000040000080038080F3808083808100085
:101276000C300007E00003C0000000000000000082
:101286003F8000FFE0038070020F1006708804C0E4
:1012960088048308047F8802C09003012000FE4072
:1012A6000000080000180001F8003E0801C200070F
:1012B600020007E20000FE00001FC80001F800005F
:1012C6003800000804000807FFF807FFF8040808BC
:1012D60004080804080804080806180803F4180196
:1012E600E7F00001E0000000000000003F8001FF81
:1012F600E0038070020018040008040008040008D7
:101306000400100600200780C00000000400080743
:10131600FFF807FFF80400080400080400080400AA
:101326001802001003807001FFE0007F80000000BB
:1013360004000807FFF807FFF80408080408080473
:101346000808040808043E080400080600180100FE
:101356006000000004000807FFF807FFF80408080B
:10136600040800040800040800043E000600000605
:101376000000018000000000000000003F8001FF27
:10138600E00380700600180400080402080402083E
:101396000203F00783F000020000020004000807C1
:1013A600FFF807FFF8040808000800000800000816
:1013B6000000080004080807FFF807FFF804000803
:1013C60000000000000004000804000804000807EC
:1013D600FFF807FFF80400080400080400080000EE
:1013E60000000000000000000006000007000001E9
:1013F60004000104000104000307FFFE07FFFC04CC
:10140600000004000004000004000807FFF807FFBE
:10141600F8040C08001800003E0004C7800503C845
:101426000600F80400380400180000080400080745
:10143600FFF807FFF8040008000008000008000095
:101446000800000800000800001800006000000006
:1014560004000807FFF807800807FC00007FC000AB
:1014660003F80007C000780007800807FFF807FFA9
:10147600F804000804000807FFF807000803C00086
:1014860000E000003800001E000007000001C00454
:1014960000F007FFF8040000000000007F8001FF55
:1014A600E00380700600180400080400080600180F
:1014B60003003001FFE0007F800000000400080701
:1014C600FFF807FFF80404080404000404000404F9
:1014D60000040400060C0003F80001F00000000000
:1014E600000000007F8001FFE00380700600880492
:1014F60000880400C806003C03003E01FFE6007FAA
:101506008400000004000807FFF807FFF804080835
:10151600040800040C00040F00040BC00610F003BE
:10152600F03801E00800000800000001E0F803F0D0
:1015360030063010041808041808040C08040C08B7
:101546000206180207F00781E0000000018000068D
:10155600000004000004000004000807FFF807FF6D
:10156600F8040008040000040000060000018000E2
:1015760004000007FFE007FFF00400180000080061
:10158600000800000800000800000804001007FF1B
:10159600E004000004000006000007E00007FE006B
:1015A600041FE00001F80000380001E0043E0007D7
:1015B600C00006000004000004000007E00007FF6A
:1015C600C0041FF80007C007F80007FF80043FF8B3
:1015D6000007C004F8000700000400000000000433
:1015E600000806001807C07805F1C8003E00001F75
:1015F600800463E80780F80600180400080000006D
:1016060004000006000007800007E008047C0800CC
:101616001FF80007F800180804E008070000060095
:10162600000400000000000100080600380400F86D
:101636000403E8040F08047C0805F00807C008073F
:101646000018040060000000000000000000000018
:10165600000000000000003FFFFE20000220000204
:10166600200002200002200002000000000000000E
:10167600000008000007000000C000003800000657
:10168600000001C000003000000E00000100000054
:1016960000000000000020000220000220000220BE
:1016A60000022000023FFFFE0000000000000000D4
:1016B600000000000000000000000000000800001C
:1016C600100000300000200000300000100000086C
:1016D6000000000000000000000001000001000002
:1016E60001000001000001000001000001000001EE
:1016F60000000100000100000100000100000000E0
:101706000000000000200000200000100000100073
:1017160000000000000000000000000000000000C3
:101726000000000000F00019F8001B180022080055
:101736002608002408002410003FF8001FF80000C7
:101746000800001800000004000007FFF80FFFF073
:1017560000181800100800200800200800301800A3
:101766001FF0000FC00000000000000007C0001FAF
:10177600F0001830002008002008002008003C086F
:10178600001C1000006000000000000000000000C7
:1017960007C0001FF00038180020080020080020AD
:1017A6000804101007FFF80FFFF0000010000000FB
:1017B6000000000000000007C0001FF0001230000B
:1017C6002218002208002208003208001E10000E0F
:1017D6002000000000000000200000200800200873
:1017E60001FFF803FFF80620080420080420080774
:1017F600200003000000000000000000000E000EA4
:101806006E001FF30031B10020B10020B10031910C
:10181600001F13002E1E00200E00300000000004E2
:10182600000807FFF80FFFF800100800200000204E
:1018360000002008003FF8001FF800000800000024
:101846000000000000000020080020080020080614
:101856003FF8063FF80000080000080000080000F6
:10186600000000000000000000000000030000036C
:10187600002001002001002003063FFE063FFC0079
:10188600000000000000000000000004000807FF40
:10189600F80FFFF8000188000300002FC00038F899
:1018A60000203800200800000800000000000000AA
:1018B600000004000804000804000807FFF80FFFF2
:1018C600F800000800000800000800000000000002
:1018D600002008003FF8003FF80010080020000034
:1018E6003FF8003FF8001008002000003FF8003FD6
:1018F600F8000008000000002008003FF8003FF84C
:10190600001008001000002000002008003FF8002A
:101916001FF80000080000000000000007C0000FCC
:10192600F0001830003008002008002008003008B9
:10193600001830000FF00007C00000000000000093
:101946002001003FFF003FFF00101100200900208A
:1019560008002008003038001FF0000FC00000000B
:101966000000000007C0001FF00038180020080023
:101976002008002009001011001FFF003FFF000093
:1019860001000000002008002008002008003FF8A1
:10199600003FF8000808001008002008002000009A
:1019A6003000003000000000000000000000000CC5
:1019B60078001E180033080023080021080021883B
:1019C6000021980030F000386000000000000000A0
:1019D600200000200000200000FFF003FFF8002098
:1019E6000800200800200800003000000000000069
:1019F600000000002000003FF0007FF80000180003
:101A06000008000008002010003FF8007FF00000EA
:101A160010000000000000002000003000003C0024
:101A2600003F800023F00000780000700023800053
:101A36003C00003000002000002000003C00003F79
:101A4600E00023F80000E0002700003E00003FE031
:101A56000021F80001E0003E000020000000000028
:101A66002008002008003838003E68002780000360
:101A7600C8002CF8003838002018002008000000A4
:101A8600000000002000003003003C01003F8300FE
:101A960023EC000070002380003C000020000020A2
:101AA6000000000000000000000000380800203898
:101AB6000020F80023E8002F88003E0800380800C0
:101AC6002018000070000000000000000000000068
:101AD600000000000000000008000014001FF7FCD2
:101AE6003000062000020000000000000000000098
:101AF6000000000000000000000000000000FFFFE2
:101B0600FF000000000000000000000000000000D0
:101B16000000000000002000023000061FF7FC0055
:101B26001400000800000000000000000000000093
:101B360000000000000000180000600000400000E7
:101B4600400000200000100000080000040000040F
:0C1B560000000C00001000000000000067
:0845ED009005FCEFF0A3EDF0D6
:1045F500A3121ED4000000019005FDE0FF14F0EFAA
:104605006020A3E0F8A3E0F9A3E0FAA3E0FB90059E
:10461500FCE0FFE4FCFDFE121D579005FE121EC8CE
:1046250080D69005FEE0FCA3E0FDA3E0FEA3E0FF3D
:014635002262
:034A9300024732A5
:034A960002488C47
:034A99000248B21E
:0B000E0090067CE0900682F00246366F
:034A9C000246BD12
:034A9F000246F9D3
:104939007FB0124A99E4FF124A997F10124A997B73
:0C494900017A0079017D007C04024A9C88
:1049E200E4FD7F8D124A93E4FD7F14124A93E4FDA5
:0549F2007FAF024A93B3
:1049F700E4FD7F8D124A93E4FD7F10124A93E4FD94
:054A07007FAE024A939E
:10002600E4FFEFC3940874809480502DE4FEEEC381
:10003600948074809480501E75F008EEA42401F517
:1000460082E5F03400F583E5822FF582E43583F509
:0C00560083E4F00E80D80F80C902493905
:10407200FF900640A3E0FE900636E02EFD90063942
:02408200E0FB61
:10408400E4900605F0EFD3947F748094804003029B
:104094004126ED943F748094804003024126ED1341
:1040A4001313541FFEC374079E900604F0ED5407C7
:1040B400FEC374079EFEF87401088002C333D8FC63
:1040C400900605F0EB900604602AE0FE75F008EF18
:1040D400A42401F582E5F03400F583E5822EF5820F
:1040E400E43583F583C083C082E0FF900605E0FEDB
:1040F400EF4E8029E0FE75F008EFA42401F582E577
:10410400F03400F583E5822EF582E43583F583C02F
:1041140083C082E0FF900605E0F4FEEF5ED082D01B
:0241240083F026
:014126002276
:0C208C00900638F0900687E0900639F0CE
:0C209800900635EFF0A3EDF0F9A3EBF09B
:1020A400C39FFEE4940090063AF0A3CEF0E9FF90BB
:1020B4000638E0C39FFEE4940090063CF0A3CEF003
:1020C400783E7C067D017BFF7A1B795E7E007F046F
:1020D400121C32E4FC90063CE07002A3E07073C36F
:1020E40090063AE0648094805031E0FEA3E0FFC3A0
:1020F400E49FFFE49E90063AF0A3EFF0900635E0EB
:10210400FF900637E0FEEF6E900635F0E0FFEE6FCD
:10211400FE900637F0EF6E900635F090063AE0FE3A
:10212400A3E0FF90063EE0FAA3E0FBD39FEE6480B9
:10213400F8EA64809840030224EB900635E02B1201
:10214400407290063FE004F070D190063EE004F047
:1021540080C990063AE07002A3E060030221E0C364
:1021640090063CE0648094805031E0FEA3E0FFC31D
:10217400E49FFFE49E90063CF0A3EFF0900636E067
:10218400FF900638E0FEEF6E900636F0E0FFEE6F4B
:10219400FE900638F0EF6E900636F090063CE0FEB6
:1021A400A3E0FF900640E0FAA3E0FBD39FEE648037
:1021B400F8EA64809840030224EB90063EA3E0FF13
:1021C400900635E02FFFA3E02B12407E900641E0FD
:1021D40004F070C7900640E004F080BFD390063B43
:1021E400E0940090063AE0648094804018D390060E
:1021F4003DE0940090063CE0648094804007EC4409
:1022040001FC022307D390063BE0940090063AE0D9
:1022140064809480402D90063CE0FEA3E0FFEE64D1
:10222400809480501EEC4402FCC3E49FFFE49E9023
:10223400063CF0A3EFF0900636E025E0FF90063868
:10224400022301C390063AE0648094805075C390E1
:10225400063CE064809480506AEC4404FC90063AA6
:10226400E0FEA3E0FFC3E49FFFE49E90063AF0A3E0
:10227400EFF0A3E0FEA3E0FFC3E49FFFE49E90061B
:102284003CF0A3EFF0900635E0FF900637E0FEEF58
:102294006E900635F0E0FFEE6FFE900637F0EF6EBD
:1022A400900635F0A3E0FF900638E0FEEF6E90064E
:1022B40036F0E0FFEE6FFE900638F0EF6E900636D3
:1022C400F0804090063AE0FEA3E0FFC3EE64809401
:1022D40080503090063DE0940090063CE064809489
:1022E400804020EC4408FCE49FFFE49E90063AF012
:1022F400A3EFF0900635E025E0FF900637E0FEC33B
:10230400EF9EF090063CE0FEA3E0FFC390063BE0A6
:102314009FEE6480F890063AE0648098505EEC4446
:1023240010FC900637E0900648F0900638E0FF90E5
:102334000649F0900636E0FE900635E0FDC39E2F78
:10234400FF900637F0EDF404FDEE2DFE900648E014
:102354002EF9900638F0900635E0FBC3EF9BFEE4BF
:10236400940090063AF0A3CEF0900636E0FFE9C35D
:102374009FFEE4940090063CF0A3CEF090063CE06F
:10238400FAA3E0FB25E0FEEA33900642F0A3CEF088
:1023940090063AE0FEA3E0FFC3EB9FFFEA9EFEEF48
:1023A40025E0FFEE33900644F0A3EFF090063DE005
:1023B40025E0FF90063CE033FE90063AE0FAA3E005
:1023C400FBC3EF9BFFEE9A900646F0A3EFF0900656
:1023D4003EA3E0FF900635E02F12407290063FE0E6
:1023E40004F0700690063EE004F090063AE0FEA386
:1023F400E0FFD390063FE09FEE6480F890063EE055
:1024040064809840030224EBC3900646E064809401
:102414008050059006428011900641E004F0700659
:10242400900640E004F0900644E0FEA3E0FF90062E
:1024340047E02FF0900646E03EF0EC540F24FE6097
:102444003524FE600B24FC605C240760030224DA5C
:10245400EC30E411900640A3E0FF900635E02FFF36
:1024640090063E806690063EA3E0FF900635E02F7E
:10247400FF9006408055EC30E411900640A3E0FF45
:10248400900635E02FFF90063E800F90063EA3E0B5
:10249400FF900635E02FFF900640A3E0FE9006363D
:1024A400E0C39E802EEC30E412900640A3E0FF903F
:1024B4000635E0C39FFF90063E801090063EA3E0E1
:1024C400FF900635E0C39FFF900640A3E0FE900610
:1024D40036E02E12407E90063FE004F0700690062F
:0724E4003EE004F00223EECC
:0124EB0022CE
:10459200900684EDF0900683EFF0900685EBF090A4
:1045A2000684E0FD12208C900683E0FF900686E0F0
:1045B200FD900685E0FB900638ED12208F90068371
:1045C200E0FBFFA3E0FD900686E012208C900685BA
:1045D200E0FBFF900684E0FD900686E0900638F04E
:0B45E200900687E0900639F002209858
:0E3DB80090064BEDF0A3EBF0A3EAF0A3E9F0C8
:103DC600EFD3947F748094804003023EA790064B05
:103DD600E0FE943F748094804003023EA790065212
:103DE600EFF0A3EEF0900650E0FF131313541FFEFE
:103DF600EF540760047F0180027F00EE2FFF9006DC
:103E06004FE0FEEF8EF0A4900654F0E4A3F0900687
:103E160054E0FFA3E0C39F4003023EA790064CE098
:103E2600FBA3E0FAA3E0F9121C58FCE4FAEAC394F7
:103E360008748094805057EC30E70F900652E0FFEC
:103E4600A3E0FD900651E0FB8014900652E0FFA32C
:103E5600E0FD900651E070047B0180027B00124079
:103E660084EC25E0FC900653E004F090064BE0FF5E
:103E7600900653E0C39FFE900650E0B5060D9006EF
:103E860053EFF0900652E004F080030A809F9006FC
:103E96004DE475F001121CF3900655E004F0023E65
:013EA6001407
:013EA70022F8
:074761009005E4EDF0A9034F
:10476800AC07ECD399501F9005E4E0FA9005E6E019
:10477800FFEAD39F500DAF04AD02A3E0FB124084C3
:064788000A80E90C80DC50
:01478E002208
:0C382F009005FCEFF09005FEEBF0A90501
:10383B00900602E9F09005FFE0640870089006031B
:10384B007408F080289005FFE0FF131313541FFE3C
:10385B00EF540760047F0180027F00EE2FFF90057D
:10386B00FFE0C313FEEF8EF0A4900603F09005FE6D
:10387B00E024E0F0E4FC900603E0FFECC39F400380
:10388B000239699005FFE0FF7E0064087012900515
:10389B00FEE075F008A424A6F582E5F03400804E16
:1038AB00EF640C4E70129005FEE075F00CA4249E94
:1038BB00F582E5F0340380369005FFE0FF7E00646F
:1038CB001070129005FEE075F010A42412F582E53D
:1038DB00F034088019EF64184E60030239699005C3
:1038EB00FEE075F024A42402F582E5F0340EF58396
:1038FB00E5822CF582E43583F583E493900601F0A1
:10390B00E4FAEAC3940874809480504E900601E068
:10391B0030E70E9005FCE0FFAD01900600E0FB8068
:10392B00139005FCE0FFAD01900600E070047B01F5
:10393B0080027B00124084900601E025E0F009A391
:10394B00E0FFC3E99FFE9005FFE0B5060AA90790CB
:0E395B0005FCE004F080030A80A80C0238810D
:01396900223B
:083BBB009005F0EFF0A3EDF01E
:103BC300E49005FBF09005F9F09005F6E0FF900511
:103BD300F9E0FEC39F4003023CC1C3EF9E14FD7F87
:103BE3000A1245EDA804A905AA06AB079005F2E061
:103BF300FCA3E0FDA3E0FEA3E0FF121DE2E47B0AC9
:103C0300FAF9F8121DE29005FAEBF0A3E070629066
:103C130005F6E014FF9005F9E0FEC39F5053A3E0BF
:103C230070499005F7E064087015E0FC8EF0A4FF7E
:103C33009005F0E02FFFA3E0FD9005FFEC801F90BF
:103C430005F7E0FEC313FF9005F9E0FDEF8DF0A447
:103C5300FF9005F0E02FFFA3E0FD9005FFEEF0904D
:103C630005F8E0900600F07B2080479005FB740187
:103C7300F09005F7E06408700E9005F9E0FF9005F9
:103C8300F7E0FE8FF080109005F7E0FEC313FF907E
:103C930005F9E0FDEF8DF0A4FF9005F0E02FFFA301
:103CA300E0FD9005FAE02430FB9005FFEEF0A374ED
:0E3CB30001F012382F9005F9E004F0023BCC2E
:013CC10022E0
:084308009005E3EFF0A3EDF0D6
:10431000E49005EBF09005E5E0FCA3E0FDA3E0FEF2
:10432000A3E0FF9005EC121EC89005ECE0FCA3E0B2
:10433000FDA3E0FEA3E0FFE47B0AFAF9F8121DE218
:104340009005EC121EC89005EBE004F0A3E0FCA37E
:10435000E0FDA3E0FEA3E0FFEC4D4E4F70CB9005D7
:10436000E5E0FCA3E0FDA3E0FEA3E0FF9005F21270
:104370001EC89005EBE09005F6F09005E9E0900589
:10438000F7F09005EAE09005F8F09005E4E0FD9084
:0743900005E3E0FF023BBB67
:083EA800900656EFF0A3EDF0C7
:103EB000E490065FF0900658A3A3A3E0FFEF75F02F
:103EC0000A84FF90065FE004F0EF70F1900658E07E
:103ED000FCA3E0FDA3E0FEA3E0FF9005E5121EC8F1
:103EE00090065DE09005E9F090065EE09005EAF04E
:103EF000900657E0FD900656E0FF12430890065DDD
:103F0000E06408700AE0FE90065FE08EF08010909A
:103F1000065DE0FEC313FF90065FE0FDEF8DF0A4A9
:103F2000FF900656E02FFFA3E0FD9005FFEEF09016
:103F3000065EE0900600F07B2E12382F90065DE0C2
:103F4000FB6408700990065FE0048BF0800F900618
:103F50005DE0FBC313FF90065FE0048FF0A4FF90C9
:103F60000656E02FFFC00790065CE0FFE4FCFDFE74
:103F70009005E5121EC89005E9EBF090065EE09012
:0D3F800005EAF0900657E0FDD00712430857
:013F8D002211
:104127009005E3EFF0A3EDF0A3EBF0A3EAF0A3E92A
:10413700F09005E5E0FBA3E0FAA3E0F9121C58FFB5
:10414700D3947E40030241DBEFC394205003024126
:10415700DB9005E8E0FF13FEC374809EFE9005E345
:10416700E0D39E4006E4F0A3E02FF09005E8E0FFDF
:10417700C374409FFF9005E4E0D39F400AE4900595
:10418700E3F0A3F01200269005E3E0FFA3E0FDA310
:10419700E0FBA3E0FAA3E0F9121C58FB9005E8E066
:1041A7009005FFF09005E9E0900600F012382F9097
:1041B70005E8E0FF6408700280079005E8E0C31394
:1041C700FF9005E3E02FF09005E6E475F001121C7F
:0541D700F30241382253
:034AA200024A0CB9
:1044A500124AA27FAE124A997FD5124A997F5012BD
:1044B5004A997FA8124A997F3F124A997FD3124A97
:1044C50099E4FF124A997F40124A997F8D124A99C1
:1044D5007F14124A997F20124A997F01124A997FC7
:1044E500A1124A997FC0124A997FDA124A997F121E
:1044F500124A997F81124A997FEF124A997FD91200
:104505004A997FF1124A997FDB124A997F30124A04
:10451500997FA4124A997FA6124A997FAF124A99A8
:034525000200266B
:10467C0048656C6C6F20576F726C64210048656CD8
:10468C006C6F204335312100746172676574206D45
:10469C00656E753A20006C6576656C3A2000706129
:1046AC007256616C3A200073656C6656616C3A20E8
:0146BC0000FD
:04406D004106910077
:10483C009005E67440F0E4A3F07B7F7D38FF1247CF
:10484C00617BFF7A46797C9005E87408F0A37401CB
:08485C00F07D38E4FF02412762
:104864009005E67440F0E4A3F07B7F7D38FF1247A7
:10487400617BFF7A4679899005E87408F0A3740196
:08488400F07D38E4FF0241273A
:103AA0009005E0EBF0A3EAF0A3E9F07BFF7A46791A
:103AB000949005E87408F0A37401F0E4FDFF12414E
:103AC000279005E67410F0E4A3F07B7F7D087F105B
:103AD0001247619005E0E0FBA3E0FAA3E0F990054E
:103AE000E87408F0A37401F07D087F101241277B71
:103AF000FF7A4679A29005E87408F0A37401F07D7E
:103B000010E4FF1241279005E0E0FBA3E0FAA3E0F8
:103B1000F9900014121C71FFE4FCFDFE9005E51203
:103B20001EC89005E97408F0A37401F07D107F5061
:103B30001243087BFF7A4679AA9005E87408F0A33F
:103B40007401F07D18E4FF1241279005E0E0FBA32B
:103B5000E0FAA3E0F9900015121C71FFE4FCFDFEF1
:103B60009005E5121EC89005E97408F0A37401F0F1
:103B70007D187F501243087BFF7A4679B39005E8A1
:103B80007408F0A37401F07D20E4FF124127900532
:103B9000E0E0FBA3E0FAA3E0F9900016121C71FF2D
:103BA000E4FCFDFE9005E5121EC89005E97408F0DE
:0B3BB000A37401F07D207F5002430849
:104A0C009005E07402F0A37430F07B017A0579E034
:054A1C007F02022B8265
:1047320090068DEF12495F7F781247C71248FD90AD
:10474200068EE060047F408002E4FF1247C71248F1
:0F475200FD90068DE0FF1247C71248FD024A6036
:10488C00900692EFF01249637F781247C71248FDE9
:10489C007F401247C71248FD900692E0FF1247C7AF
:0648AC001248FD024A6003
:1048B2009005EAEFF01249637F781247C71248FD6C
:1048C200E4FF1247C71248FD9005EAE0FF1247C70E
:0648D2001248FD024A60DD
:1046360090067D1249557F781247C71248FD9006AD
:1046460082E060047F408002E4FF1247C71248FD03
:1046560090068074FFF5F0121D0945F0601590066E
:104666007D1247BB1248FD90067EE475F001121CD0
:06467600F380DD024A6042
:1046BD009005EA1249557F781247C71248FD7F4091
:1046CD001247C71248FD9005ED74FFF5F0121D0954
:1046DD0045F060159005EA1247BB1248FD9005EBB9
:0C46ED00E475F001121CF380DD024A604D
:1046F9009006881249557F781247C71248FDE48011
:104709001C90068B74FFF5F0121D0945F060179097
:104719000688E0FBA3E0FAA3E0F9121C58FF124750
:09472900C71248FD80DB024A6062
:0E495500EBF0A3EAF0A3E9F0A3ECF0A3EDF081
:0B496300D2A4D2A500C2A400C2A5226D
:0E4A6000C2A4D2A500D2A47F027E0002498625
:1048FD00E4FFD2A4D2A50030A4110FEFD394FA7423
:0F490D0080948040F2124A607F0122C2A57F0091
:01491C002278
:0C47BB00E0FBA3E0FAA3E0F9121C58FF99
:1047C700E4FEEEC39408748094805013EF3392A4F0
:0F47D700EF25E0FFD2A500000000C2A50E80E391
:0147E60022B0
:1041DC002564202564202564206E616D653A2025B8
:1041EC00730D0A0063616E277420636F6E6E6563D6
:1041FC007420696620746F2073797374656D2C203C
:10420C006279206E6F742066696E642069742773FE
:10421C002070726576206D656E75210D0A006361E4
:10422C006E27742064656C6574652C20627920653A
:10423C0072726F72206D656E755F44656C65746526
:10424C0020706172616D210D0A0063616E2774200C
:10425C0064656C6574652C206279206E6F742066C1
:0A426C00696E64206974210D0A00D8
:103CC20090FFFD121F94EBF0A3EAF0A3E9F090FF3E
:043CD200FD121F942C
:103CD600900003121FB8E0F9A3E0FAA3E0850D8374
:103CE600850E82C9F0A3EAF0A3E9F0850D83850E5F
:103CF60082E0FBA3E0FAA3E04A4B7003023DB285E3
:103D06000D83850E82E0FBA3E0FAA3E0F990001490
:103D1600121C71FF90060FE4F0A3EFF0900015124D
:103D26001C71FF900611E4F0A3EFF0900016121C30
:103D360071FF900613E4F0A3EFF0A3EBF0A3EAF013
:103D4600A3E9F07BFF7A4179DC122557850D83853F
:103D56000E82E0FBA3E0FAA3E0F990001D121F0516
:103D6600E94A4B6017850D83850E82E0FBA3E0FAD6
:103D7600A3E0F990001D121F05123CC2850D838534
:103D86000E82E0FBA3E0FAA3E0F990001A121F05E9
:103D9600E94A4B6017850D83850E82E0FBA3E0FAA6
:0C3DA600A3E0F990001A121F05123CC2A5
:063DB200900006021F94C0
:08368800E0FBA3E0FAA3E0F966
:1036900090FFFD121F94EBF0A3EAF0A3E9F090FF76
:0436A000FA121F9467
:1036A400900006121FB8E0F9A3E0FAA3E0850D83A9
:1036B400850E82C9F0A3EAF0A3E9F07B007A0079D1
:1036C40000900003121FB8EBF0A3EAF0A3E9F08521
:1036D4000D83850E82E0FBA3E0FAA3E04A4B70065B
:1036E400FBFAF9023829900009121FB8E0FBA3E0A5
:1036F400FAA3E0F9900014121C71FF850D83850E66
:1037040082E0FBA3E0FAA3E0F9900014121C71FE1E
:10371400D39F40097B007A007900023829EEB5076F
:103724002F900009121FB8E0FBA3E0FAA3E0F99080
:103734000016121C71FF850D83850E82E0FBA3E049
:10374400FAA3E0F9900016121C71B5070302382998
:10375400850D83850E82E0FBA3E0FAA3E0F99000D7
:103764001D121F05E94A4B6041900009121FB8E081
:10377400FBA3E0FAA3E0F990FFFD121F94EBF0A382
:10378400EAF0A3E9F0900003121FB8E0FBA3E0FA0B
:10379400A3E0F990001D121F051236909000031249
:1037A4001FB8EBF0A3EAF0A3E9F0900003121FB8EE
:1037B400E0FBA3E0FAA3E04A4B6002805A850D8344
:1037C400850E82E0FBA3E0FAA3E0F990001A121F31
:1037D40005E94A4B6041900009121FB8E0FBA3E0E1
:1037E400FAA3E0F990FFFD121F94EBF0A3EAF0A313
:1037F400E9F0900003121FB8E0FBA3E0FAA3E0F99C
:1038040090001A121F05123690900003121FB8EB95
:10381400F0A3EAF0A3E9F0900003121FB8E0FBA3C1
:05382400E0FAA3E0F949
:0638290090000C021F9448
:1034D70090FFFD121F94EBF0A3EAF0A3E9F090FF31
:0434E700FA121F9422
:1034EB00900006121FB8E0F9A3E0FAA3E0850D8364
:1034FB00850E82C9F0A3EAF0A3E9F07B007A00798C
:10350B0000900003121FB8EBF0A3EAF0A3E9F085DB
:10351B000D83850E82E0FBA3E0FAA3E04A4B700615
:10352B00FBFAF9023682900009121FB8E0FBA3E008
:10353B00FAA3E0F9900014121C71FF14FE850D83A1
:10354B00850E82E0FBA3E0FAA3E0F9900014121CB5
:10355B0071FDD39E40097B007A007900023682D33D
:10356B00EF9400748094804039900009121FB8E0EA
:10357B00FBA3E0FAA3E0F9900014121C7114B5053B
:10358B0021900015121C71FF850D83850E82E0FBC7
:10359B00A3E0FAA3E0F9900016121C71B507030221
:1035AB003682850D83850E82E0FBA3E0FAA3E0F95A
:1035BB0090001D121F05E94A4B6041900009121F34
:1035CB00B8E0FBA3E0FAA3E0F990FFFD121F94EB28
:1035DB00F0A3EAF0A3E9F0900003121FB8E0FBA3FD
:1035EB00E0FAA3E0F990001D121F051234D79000EA
:1035FB0003121FB8EBF0A3EAF0A3E9F0900003125B
:10360B001FB8E0FBA3E0FAA3E04A4B6002805A85A7
:10361B000D83850E82E0FBA3E0FAA3E0F990001A7C
:10362B00121F05E94A4B6041900009121FB8E0FBDD
:10363B00A3E0FAA3E0F990FFFD121F94EBF0A3EACD
:10364B00F0A3E9F0900003121FB8E0FBA3E0FAA38C
:10365B00E0F990001A121F051234D7900003121FC5
:10366B00B8EBF0A3EAF0A3E9F0900003121FB8E067
:07367B00FBA3E0FAA3E0F954
:0636820090000C021F94F1
:0B3297009005E0EBF0A3EAF0A3E9F0E3
:1032A200900609E4F0A3F0A3F09005E3E0FBA3E0AD
:1032B200FAA3E0F9900014121C71149005FAF09030
:1032C2000015121C719005FCF07B017A0579E690DD
:1032D200FFFD121F94EBF0A3EAF0A3E9F09005E0E2
:1032E200123688900609EBF0A3EAF0A3E9F0900603
:1032F20009E0FBA3E0FAA3E04A4B70030234C29058
:103302000609A3A3E0F990001D121F05E94A4B70BC
:10331200229005E3E0FBA3E0FAA3E0F9C003C002B8
:10332200C001900609E0FBA3E0FAA3E0F990001DBA
:1033320002349B900609E0FBA3E0FAA3E0F99000B7
:103342001D80419005E3E0FBA3E0FAA3E0F99000C1
:1033520016121C71FF900609E0FBA3E0FAA3E0F944
:10336200900016121C71FED39F502990001A121F52
:1033720005E94A4B601E900609E0FBA3E0FAA3E0D0
:10338200F990001A121F05900609EBF0A3EAF0A3C8
:10339200E9F080AFEFC39E400302347C900609E05F
:1033A200FBA3E0FAA3E0F9900017121F05900014A6
:1033B200121C71FF9005E3E0FBA3E0FAA3E0F99091
:1033C2000014121C71FEEFC39E501CC003C002C049
:1033D20001900609E0FBA3E0FAA3E0F990001712BE
:1033E2001F0590001D80259005E3E0FBA3E0FAA3F2
:1033F200E0F9C003C002C001900609E0FBA3E0FAB5
:10340200A3E0F9900017121F0590001A121F3590C1
:103412000609E0FBA3E0FAA3E0F9900017121F05EA
:10342200C003C002C0019005E3E0FBA3E0FAA3E001
:10343200F9900017121F359005E3E0FBA3E0FAA311
:10344200E0F9C003C002C001900609E0FBA3E0FA64
:10345200A3E0F9900017121F35900609E0FBA3E0E4
:10346200FAA3E0F9C003C002C0019005E3E0FBA3A8
:10347200E0FAA3E0F990001A80419005E3E0FBA393
:10348200E0FAA3E0F9C003C002C001900609E0FB24
:10349200A3E0FAA3E0F990001A121F35900609E0A2
:1034A200FBA3E0FAA3E0F9C003C002C0019005E368
:1034B200E0FBA3E0FAA3E0F9900017121F358009A0
:1034C2007BFF7A4179F01225579005E0E0FBA3E0FB
:0434D200FAA3E0F980
:0134D60022D3
:0B2DF900900660EBF0A3EAF0A3E9F005
:102E0400900666E4F0A3F0A3F0900663E0FBA3E071
:102E1400FAA3E0F990FFFD121F94EBF0A3EAF0A3EC
:102E2400E9F0900660123688900666EBF0A3EAF0AB
:102E3400A3E9F0900666E0FBA3E0FAA3E04A4B7036
:102E440003023007900660E0FBA3E0FAA3E0F9C0B8
:102E540003C002C001900666E0FBA3E0FAA3E0F918
:102E6400D082D083D0E06B7008E965827003EA6594
:102E7400837003023007900666E0FBA3E0FAA3E048
:102E8400F990001A121F05E94A4B6003022F1E90A5
:102E94000666E0FBA3E0FAA3E0F9900017121F0511
:102EA400900014121C71FF900666E0FBA3E0FAA3E5
:102EB400E0F9900014121C71FEEFC39E7B007A00AF
:102EC4007900501CC003C002C001900666E0FBA359
:102ED400E0FAA3E0F9900017121F0590001D801A74
:102EE400C003C002C001900666E0FBA3E0FAA3E0C1
:102EF400F9900017121F0590001A121F357B007AF3
:102F0400007900C003C002C001900666E0FBA3E0A4
:102F1400FAA3E0F9900017023002900666E0FBA3E2
:102F2400E0FAA3E0F9900017121F05900014121C98
:102F340071FF900666E0FBA3E0FAA3E0F9900014A9
:102F4400121C71FEEFC39E502290001A121F05C07E
:102F540003C002C001900666E0FBA3E0FAA3E0F917
:102F6400900017121F0590001D802B900666E0FB51
:102F7400A3E0FAA3E0F990001A121F05C003C002EF
:102F8400C001900666E0FBA3E0FAA3E0F990001705
:102F9400121F0590001A121F35900666E0FBA3E08D
:102FA400FAA3E0F9900017121F05C003C002C00184
:102FB400900666E0FBA3E0FAA3E0F990001A121F62
:102FC40005900017121F357B007A007900C003C0FA
:102FD40002C001900666E0FBA3E0FAA3E0F99000CA
:102FE40017121F357B007A007900C003C002C001AC
:102FF400900666E0FBA3E0FAA3E0F990001A121F22
:1030040035803E900660E0FBA3E0FAA3E0F9C0033C
:10301400C002C001900666E0FBA3E0FAA3E0F9D089
:1030240082D083D0E06B7008E965827003EA65831F
:103034007BFF70067A42792A80047A4279561225F7
:0C30440057900660E0FBA3E0FAA3E0F95F
:01305000225D
:1042880002396AE493A3F8E493A34003F68001F2A9
:1042980008DFF48029E493A3F85407240CC8C33337
:1042A800C4540F4420C8834004F456800146F6DF06
:1042B800E4800B0102040810204080903F8EE47EC9
:1042C800019360BCA3FF543F30E509541FFEE493FB
:1042D800A360010ECF54C025E060A840B8E493A3C2
:1042E800FAE493A3F8E493A3C8C582C8CAC583CAED
:1042F800F0A3C8C582C8CAC583CADFE9DEE780BEA5
:01407100004E
:101B6200E709F608DFFA8046E709F208DFFA803E65
:101B720088828C83E709F0A3DFFA8032E309F60852
:101B8200DFFA8078E309F208DFFA807088828C83BA
:101B9200E309F0A3DFFA806489828A83E0A3F6086E
:101BA200DFFA805889828A83E0A3F208DFFA804C48
:101BB20080D280FA80C680D4806980F2803380101F
:101BC20080A680EA809A80A880DA80E280CA803388
:101BD20089828A83ECFAE493A3C8C582C8CCC58300
:101BE200CCF0A3C8C582C8CCC583CCDFE9DEE780D0
:101BF2000D89828A83E493A3F608DFF9ECFAA9F04F
:101C0200EDFB2289828A83ECFAE0A3C8C582C8CCA4
:101C1200C583CCF0A3C8C582C8CCC583CCDFEADEBD
:101C2200E880DB89828A83E493A3F208DFF980CC1F
:101C320088F0EF60010E4E60C388F0ED2402B40418
:101C42000050B9F582EB2402B4040050AF232345BF
:061C52008223901BB27317
:101C5800BB010689828A83E0225002E722BBFE028A
:091C6800E32289828A83E49322BD
:101C7100BB010CE58229F582E5833AF583E0225028
:101C810006E92582F8E622BBFE06E92582F8E22272
:0D1C9100E58229F582E5833AF583E493228C
:101C9E00BB010FF8E58229F582E5833AF583E0284A
:101CAE00F0225009C58229F8E58226F622BBFE09EC
:101CBE00C58229F8E22582F222F8EA2583F583E926
:031CCE0093282236
:101CD100F8BB010DE58229F582E5833AF583E8F049
:101CE100225006E92582C8F622BBFE05E92582C8F5
:021CF100F222DD
:101CF300C5F0F8A3E028F0C5F0F8E582158270027C
:061D03001583E038F02218
:101D0900A3F8E0C5F025F0F0E5821582700215838D
:061D1900E0C838F0E822EA
:101D1F00BB0110E58229F582E5833AF583E0F5F002
:101D2F00A3E0225009E92582F886F008E622BBFEDF
:101D3F000AE92582F8E2F5F008E222E5832AF58325
:081D4F00E993F5F0A3E99322EA
:101D5700E88FF0A4CC8BF0A42CFCE98EF0A42CFC2B
:101D67008AF0EDA42CFCEA8EF0A4CDA8F08BF0A4A9
:101D77002DCC3825F0FDE98FF0A42CCD35F0FCEB08
:101D87008EF0A4FEA9F0EB8FF0A4CFC5F02ECD39CD
:0F1D9700FEE43CFCEAA42DCE35F0FDE43CFC223A
:101DA60075F008758200EF2FFFEE33FECD33CDCCF4
:101DB60033CCC58233C5829BED9AEC99E582984077
:101DC6000CF582EE9BFEED9AFDEC99FC0FD5F0D654
:101DD600E4CEFBE4CDFAE4CCF9A88222B800C1B97E
:101DE6000059BA002DEC8BF084CFCECDFCE5F0CBBC
:101DF600F97818EF2FFFEE33FEED33FDEC33FCEBF5
:101E060033FB10D703994004EB99FB0FD8E5E4F9AF
:101E1600FA227818EF2FFFEE33FEED33FDEC33FC9C
:101E2600C933C910D7059BE99A4007EC9BFCE99A90
:101E3600F90FD8E0E4C9FAE4CCFB2275F010EF2FD5
:101E4600FFEE33FEED33FDCC33CCC833C810D707D5
:101E56009BEC9AE899400AED9BFDEC9AFCE899F810
:0E1E66000FD5F0DAE4CDFBE4CCFAE4C8F922A3
:101E7400EB9FF5F0EA9E42F0E99D42F0E89C45F0C4
:011E8400223B
:101E8500E8600FECC313FCED13FDEE13FEEF13FF3B
:031E9500D8F1225F
:101E9800BB010DE58229F582E5833AF583021FE44B
:101EA8005007E92582F8021FD7BBFE07E92582F80B
:101EB800021FF0E58229F582E5833AF583021FFDCA
:0C1EC800ECF0A3EDF0A3EEF0A3EFF0228D
:101ED400A8828583F0D083D082121EEB121EEB12EF
:101EE4001EEB121EEBE473E493A3C583C5F0C58314
:101EF400C8C582C8F0A3C583C5F0C583C8C582C858
:011F040022BA
:101F0500BB010DE58229F582E5833AF58302201FA1
:101F15005007E92582F802200DBBFE07E92582F866
:101F2500022048E58229F582E5833AF58302205AA5
:101F3500BB0120E58229F582E5833AF583D0F0D00F
:101F4500E0F8D0E0F9D0E0FAD0E0FBE8C0E0C0F07E
:101F550002203F5018E92582F8D083D082D0E0F9DD
:101F6500D0E0FAD0E0FBC082C083022016BBFE1889
:101F7500E92582F8D083D082D0E0F9D0E0FAD0E02C
:091F8500FBC082C083022051223E
:061F8E008A838982E473DE
:101F9400E50E2582F582E50D3583F583B50D0485BF
:101FA400820E2210AF0685820EF50D2285820EF573
:041FB4000DD2AF2279
:0D1FB800E50E2582F582E50D3583F58322C7
:1024EC00E508240FF582E43406F583E00508229014
:1024FC00060C30070390060FE475F0011220280239
:10250C001C582000E97F2ED2008018EF540F249025
:10251C00D43440D4FF30040BEF24BFB41A00500362
:10252C002461FFE50960021509050CE50C70020534
:10253C000B30070E90060CE475F001122028EF0208
:10254C001FC5024A527403D2078003E4C207F50880
:10255C0090060C12203FE4F509F50BF50CE509602B
:10256C00077F2012252F80F5750AFFC201C200C219
:10257C0002C203C205C206C2081224FBFF700D3052
:10258C0007057F00122540AF0CAE0B22B4255FC2AD
:10259C00D5C2041224FBFF24D0B40A00501A75F0E3
:1025AC000A780930D50508B6FF0106C6A426F62020
:1025BC00D5047002D20380D924CFB41A00EF500492
:1025CC00C2E5D204022741D20180C6D20080C0D21B
:1025DC000280BCD2D580BAD20580B47F2012252FC0
:1025EC002002077401B5090040F11224ECFF1225FA
:1025FC002F022569D208D20680951224ECFB1224F6
:10260C00ECFA1224ECF94A4B700679127A287BFF0B
:10261C0020022EE509602A7E008E82758300121C32
:10262C007160060EEE650A70F0C2D5EBC0E0EAC030
:10263C00E0E9C0E0EE122788D0E0F9D0E0FAD0E073
:10264C00FB121C58FF60AAEBC0E0EAC0E0E9C0E056
:10265C0012252FD0E02401F9D0E03400FAD0E0FBB1
:10266C00E50A0460DCD50AD980877BFF7A27798458
:10267C00D202809C791080027908C206C2088008B8
:10268C00D2D5790A8004790AC2D5E50A047002F51C
:10269C000AE4FAFDFEFF1224ECFC7B082001131265
:1026AC0024ECFD7B1030000A1224ECFE1224ECFF0B
:1026BC007B20EC3382D592D55013C3E43000069FB7
:1026CC00FFE49EFEE42001039DFDE49CFCE4CBF8BA
:1026DC00C201EC700CCFCECDCCE824F8F870F380AE
:1026EC0017C3EF33FFEE33FEED33FDEC33FCEB336E
:1026FC00FB994002FB0FD8E9EB300105F8D0E0C4A0
:10270C0048B201C0E00AEC4D4E4F78207B0070C2FD
:10271C00EAB50A0040BCC0E012278AD0F0D0E02015
:10272C000104C4C0E0C4B201C0F0122518D0F0D529
:10273C00F0EB02256912206626065326805825D711
:10274C004C25D34226844F268C44268C4925EC43B9
:08275C002692552676462676EA
:102764004526764728325025DB2D25DF2E26022BE1
:1027740025E323260020281B2A259B48000025FA50
:102784003F3F3F00790AA2D5200314300509B91050
:10279400020404B9080104A2D52006025001042051
:1027A40002689202B509005034C0E07F203003195A
:1027B4007F30A20272067205500F1227E1C202C2D4
:1027C40006C205C2087F30800F300503E9C0E0125D
:1027D400252F300503D0E0F9D0E0B509CC3005173A
:1027E4007F30B9100C12252F7F583004077F788072
:1027F40003B9080312252F3002057F2D02252F7FF0
:10280400202008F87F2B2006F322920280CF286E26
:10281400756C6C2900D2011224EC3001F8C20178E5
:102824000930D50108F602259B2D5043495812243E
:10283400EC2403B405004001E490282D93122520D4
:0D284400743A122520D20375090402268083
:101FC500BB010689828A83F0225002F722BBFE01FB
:021FD500F322F5
:0D1FD700E6FB08E6F908E6FA08E6CBF8227A
:0C1FE400E0F8A3E0F9A3E0FAA3E0FB2280
:0D1FF000E2FB08E2F908E2FA08E2CBF82271
:101FFD00E493F8740193F9740293FA740393FB223A
:09200D00E6FB08E6FA08E6F922F8
:09201600EBF608EAF608E9F622EF
:09201F00E0FBA3E0FAA3E0F922C2
:10202800F8E0FBA3A3E0F925F0F0E5821582700241
:072038001583E0FA38F022E5
:09203F00EBF0A3EAF0A3E9F022A2
:09204800E2FB08E2FA08E2F922C9
:09205100EBF208EAF208E9F222C0
:0C205A00E493FB740193FA740293F922E2
:10206600D083D082F8E4937012740193700DA3A309
:1020760093F8740193F5828883E47374029368601D
:06208600EFA3A3A380DF1D
:00000001FF
