:0300000002426F4A
:10426F00787FE4F6D8FD750D10750E00758121026B
:02427F0042BC3F
:040003007F4EDFFE4F
:0100070022D6
:104A3D007D027C00ED1D70011C144C70F7EF1F7092
:064A4D00011E144E70EA88
:014A53002240
:104A54007D0B7C00ED1D70011C144C70F7EF1F7072
:064A6400011E144E70EA71
:014A6A002229
:104A6B007D167C00ED1D70011C144C70F7EF1F7050
:064A7B00011E144E70EA5A
:014A81002212
:104A82007DA37C08ED1D70011C144C70F7EF1F70A4
:064A9200011E144E70EA43
:014A980022FB
:102B7C00EFD394077480948040037F0122121C5879
:102B8C00FED394037480948040037F0222EF704440
:102B9C00EE700B900001121C71F452935294121CA3
:102BAC00586401700B900001121C714293F4529402
:102BBC00121C58FE6402700A900001121C714293A0
:102BCC004294EE6403700D900001121C71FEF452DD
:102BDC0093EE4294EF64017046121C58FE700B90F9
:102BEC000001121C71F452915292EE6401700B9020
:102BFC000001121C714291F45292121C5864027022
:102C0C000A900001121C7142914292121C586403EA
:102C1C00700D900001121C71FEF45291EE4292EF75
:102C2C0064027046121C58FE700B900001121C714D
:102C3C00F452955296EE6401700B900001121C71C7
:102C4C004295F45296121C586402700A90000112BC
:102C5C001C7142954296121C586403700D90000131
:102C6C00121C71FEF45295EE4296EF6403704612FC
:102C7C001C58FE700B900001121C71F452B152B230
:102C8C00EE6401700B900001121C7142B1F452B24F
:102C9C00121C586402700A900001121C7142B1425D
:102CAC00B2121C586403700D900001121C71FEF4DA
:102CBC0052B1EE42B2EF64047046121C58FE700B17
:102CCC00900001121C71F452B352B4EE6401700BFB
:102CDC00900001121C7142B3F452B4121C586402DD
:102CEC00700A900001121C7142B342B4121C586459
:102CFC0003700D900001121C71FEF452B3EE42B43D
:102D0C00EF64057046121C58FE700B900001121CEB
:102D1C0071F452C952CAEE6401700B900001121C7E
:102D2C007142C9F452CA121C586402700A90000114
:102D3C00121C7142C942CA121C586403700D9000D7
:102D4C0001121C71FEF452C9EE42CAEF64067046C1
:102D5C00121C58FE700B900001121C71F452CB52D5
:102D6C00CCEE6401700B900001121C7142CBF4523A
:102D7C00CC121C586402700A900001121C7142CBD8
:102D8C0042CC121C586403700D900001121C71FE91
:102D9C00F452CBEE42CCEF64077049121C58FF7E04
:102DAC0000700B900001121C71F452E152E2EF64BE
:102DBC00014E700B900001121C7142E1F452E212B0
:102DCC001C586402700A900001121C7142E142E22C
:102DDC00121C586403700D900001121C71FFF45208
:072DEC00E1EF42E27F00224B
:03001B00020008D8
:03000800B2EE3223
:0300630002009602
:03009600B2ED3296
:03009B0002009EC2
:03009E00B2EC328F
:0300A300024B29E4
:034B2900B2EB32BA
:10284B00AD07EDD394047480948040037F0122ED97
:10285B006003022920C28C900002121C716401706B
:10286B0004D2A98002C2A9900001121C71FED3945C
:10287B00037480948040037F0222EEFF7E0070057C
:10288B0053B7FDC2B9EF64014E700553B7FDD2B912
:10289B00EF64024E700543B702C2B9EF64034E708A
:1028AB000543B702D2B9121C58FEC394037480942B
:1028BB008040037F0222E58954FC4EF5899000038A
:1028CB00121C71FF7E0064017003538E7FEF4E70FC
:1028DB0003438E80EF64024E7005438904800353DB
:1028EB0089FB900004121C7164017005438F0180F9
:1028FB0003538FFE900005121D1FE5F0F58C900021
:10290B0005121D1FF58A900007121C7164017002DD
:10291B00D28C7F0022ED640160030229EDC28E9000
:10292B000002121C7164017004D2AB8002C2AB9026
:10293B000001121C71FED394037480948040037FBA
:10294B000222EEFF7E00700553B7F7C2BBEF6401A6
:10295B004E700553B7F7D2BBEF64024E700543B709
:10296B0008C2BBEF64034E700543B708D2BB121C01
:10297B0058FEC394037480948040037F0222EEC4FC
:10298B0054F0FFE58954CF4FF589900003121C7169
:10299B00FF7E0064017003538EBFEF4E7003438EB6
:1029AB0040EF64024E700543894080035389BF900A
:1029BB000004121C7164017005438F028003538F56
:1029CB00FD900005121D1FE5F0F58D900005121D01
:1029DB001FF58B900007121C7164017002D28E7F61
:1029EB000022ED6402707C538EEF900002121C717A
:1029FB006401700543AF04800353AFFB90000312D7
:102A0B001C71FED394027480948040037F0222EEEB
:102A1B00FF7E0064017003538EFBEF4E7003438EF9
:102A2B0004EF64024E7005438E088003538EF790BB
:102A3B000004121C7164017005438F048003538FD3
:102A4B00FB900005121D1FE5F0F5D6900005121D39
:102A5B001FF5D7900007121C7164017003438E1091
:102A6B007F0022ED6403707C53D1F7900002121C9F
:102A7B00716401700543AF20800353AFDF900003F7
:102A8B00121C71FED394027480948040037F022247
:102A9B00EEFF7E006401700353D1FDEF4E700343D4
:102AAB00D102EF64024E700543D104800353D1FB76
:102ABB00900004121C716401700543D10180035313
:102ACB00D1FE900005121D1FE5F0F5D49000051204
:102ADB001D1FF5D5900007121C716401700343D1C3
:102AEB00087F0022ED64046003022B7953D17F90A1
:102AFB000002121C716401700543AF40800353AF99
:102B0B00BF900003121C71FD7C00D394027480945F
:102B1B008040037F0222ED64014C700353D1DF90A0
:102B2B000003121C71700343D120900003121C711F
:102B3B006402700543D140800353D1BF900004124F
:102B4B001C716401700543D110800353D1EF9000C9
:102B5B0005121D1FFDACF0ECF5D2AF058FD3900025
:102B6B0007121C716401700343D1807F00227F0226
:012B7B002237
:0B304B009005C3EBF0A3EAF0A3E9F04E
:10305600EF6401600302328E90040104F0E4A3F0F1
:10306600A3F0A3F0A3F0A3F0A3F0FFEFC394807442
:10307600809480500F74882FF582E43404F583E43D
:10308600F00F80E7E4FFEFC3948074809480500FC4
:1030960074082FF582E43404F583E4F00F80E7909A
:1030A60005C3E0FBA3E0FAA3E0F990000A121C7145
:1030B600FD7C00D394037480948040037F0222ED4C
:1030C6004C700553B7EFC2BC9005C3E0FBA3E0FA12
:1030D600A3E0F990000A121C716401700553B7EF62
:1030E600D2BC90000A121C71FF7E00640270054378
:1030F600B710C2BCEF64034E700543B710D2BC12C2
:103106001C58FD7C00D394C07480948040037F02D9
:1031160022121C58FFE598543F4FF598ED64C04CB9
:103126006008EF64406003023211900002121E989C
:103136007F007E607D547C00121DE29005C6121E43
:10314600C8E4FFFE7D01FC9005C6E0F8A3E0F9A304
:10315600E0FAA3E0FBC3121E7440037F022290052F
:10316600C6E0F8A3E0F9A3E0FAA3E0FBC3E49BFF03
:10317600E49AFE740199FDE498FC9005C6121EC8F7
:103186009005C3E0FBA3E0FAA3E0F9900001121C4E
:1031960071FB7A0064017038C28E538EFE5389BF6C
:1031A6005389CF438E409005C6E0FCA3E0FDA3E023
:1031B600FEA3E0FF7808121E858F8D9005C6A3A397
:1031C600A3E0F58BC2AB5389BF538FFDD28E807AB5
:1031D600EB64024A7032538EEF438E01538EF743EF
:1031E6008E049005C6E0FCA3E0FDA3E0FEA3E0FF8D
:1031F6007808121E858FD69005C6A3A3A3E0F5D73F
:1032060053AFFB438E1080427F02229005C3E0FB42
:10321600A3E0FAA3E0F9121C58FF7E007014900098
:1032260008121C7164017005438E20801D538EDFC9
:103236008018EF64804E7012900008121C716401B1
:103246007005438780800353877F9005C3E0FBA307
:10325600E0FAA3E0F9900009121C7164017004D22F
:10326600AC8002C2AC900007121C7164017004D2DB
:103276009C8002C29C90000B121C7154C0FFE5A2F8
:0A328600543F4FF5A27F00227F02A3
:01329000221B
:10489C00900403E02488F582E43404F583EFF0906F
:1048AC000403E004F0C39480748094804002E4F02C
:0B48BC00900404E0700404F0D2992284
:104AD900121C58FF600C12489C740129F9E43AFA37
:034AE90080EE223A
:103F4700602305086D656E75000000000000000025
:103F5700000000000000000000000000000000005A
:103F6700000000000000006046052B68656C6C6F60
:103F77000000000000000000000000000000000139
:103F87000001000000000000000000000000636F57
:103F9700756E7400000000000000000000000000C3
:103FA7000000010002000000000000000000000007
:103FB700006046057148656C6C6F20576F726C64C2
:103FC70021000000000000000002010100000000C5
:103FD7000000000000FF4B1748656C6C6F204335ED
:103FE7003121000000000000000000000201020073
:0B3FF7000000000000000000FF4B2055
:10452100124AEC1249D212449E124B2C9005BA74D5
:1045310001F0A37405F0A3742BF07B017A057908CF
:104541001232919005BA7401F0A37405F0A3744E70
:10455100F07B017A0579081232919005BA7401F065
:10456100A37405F0A37471F07B017A057908123206
:10457100919005BA7401F0A37405F0A37494F07BD3
:0B458100017A057908123291D2AF22B6
:05001E0012452180FEE7
:094B17001248F11249EE7F002260
:094B20001249191249EE7F00222E
:0C40020044066A0000000042066800004E
:1048C700E49005B7F0A304F0A3F0E4A3F0A3F0A3EA
:1048D70074A9F0A3749AF0A37401F07B017A0579A7
:0948E700B7E4FF12284BEF70F258
:0148F00022A5
:034B2C000248C775
:03000B0002458C1F
:10458C00C0E0C0F0C083C082C0D075D000C000C0F5
:07459C0004C005C006C007C2
:1045A300900669E004F07006900668E004F0C3909A
:1045B3000669E094E8900668E094034021E4F0A3E0
:1045C300F0A3E0FCA3E0FDA3E0FEA3E02401FFE4ED
:0E45D3003EFEE43DFDE43CFC90066A121EC86C
:1045E100D007D006D005D004D000D0D0D082D0835F
:0545F100D0F0D0E03223
:10498D000D0A5354433848384B363455205541524F
:10499D00543120546573742050726F6772616D6D60
:0549AD0065210D0A0068
:10400E0043065901040142065E048842065C040818
:04401E0041066000F7
:0E4AFB0090060BEFF0124B2F90060BE0FF22FF
:104A0A00A2B172B0E4339005B8F0E49005B7F07B38
:0A4A1A00017A0579B77F03022B7CB7
:100066009005B77440F0A37401F0A3121ED40001EA
:10007600C200E49005BDF0A304F0E4A3F0A304F0ED
:10008600E4A3F0A3F07B017A0579B77F0102304B38
:0F4AEC00124A0A1200667BFF7A49798D02255122
:034B2F0002489C9D
:034B3200024AD95B
:10439000900659E0FBA3E0FAA3E0F9900005121C97
:1043A00071D3940074809480406C90000574FF1267
:1043B0001C9E7062900004121C71FFD394007480E4
:1043C00094804052900660EFF0E4900692F09006E0
:1043D00059E0FBA3E0FAA3E0F9900004121C71FF7E
:1043E000900692E0FEC39F501B90065CE0FCA3E0A9
:1043F0002EF582E43CF583E0FF124B2F900692E00D
:1044000004F080CA900659E0FBA3E0FAA3E0F9901B
:064410000004E4121CD1BF
:014416002283
:030023000244177D
:10441700C0E0C083C082C0D075D000C006C00730DE
:104427009831C298900407E07029900405E0C3947E
:1044370080748094804002E4F0900405E0FF04F06B
:1044470074082FF582E43404F583E599F0900406A7
:104457007405F0309934C299900403E0FF90040288
:10446700E0FE6F602074882EF582E43404F583E063
:10447700F599900402E004F0C3948074809480401E
:1044870009E4F08005900404E4F0D007D006D0D00A
:07449700D082D083D0E03297
:0440220041069301BF
:1049D2009005B87404F0E49005B7F07B017A05798C
:0B49E200B77F03122B7CEF70F2D2B203
:0149ED0022A7
:10484400EF60069006937401F0900693E0601120E7
:10485400B20EE4F07F0AFE124A8220B20C7F0122DB
:0B48640030B2069006937401F07F0054
:01486F002226
:1000A6000000000000000000000060FAFA60000096
:1000B60000C0C000C0C0000028FEFE28FEFE2800CA
:1000C6002474D6D65C48000062660C18306646007A
:1000D6000C5EF2BEEA5E12002070C0000000000056
:1000E600001C3E63410000000041633E1C0000000E
:1000F600082A3E1C1C3E2A0808083E3E0808000046
:1001060000010706000000000808080808080000AB
:100116000000060600000000060C183060C08000D3
:100126007CFEE2B29AFE7C003262FEFE0202000013
:1001360046CE9A92F666000044C69292FE6C000085
:10014600183868CAFEFE0A00E4E6A2A2AE9C0000C9
:100156003C7ED2929E1C0000C0C08E9EF0E0000045
:100166006CFE9292FE6C000060F29296FC780000A3
:1001760000006666000000000001676600000000DF
:1001860010386CC6820000004242424242420000E1
:100196000082C66C3810000040C08A9AF0600000E9
:1001A6007CFE82BABAF878003FFFC8C8FF3F00005D
:1001B60082FEFE9292FE6C00387CC68282C64400A5
:1001C60082FEFE82C67C380082FEFE92BA82C6009D
:1001D60082FEFE92B880C00038FEC6828ACE4E00ED
:1001E600FEFE1818FEFE00000082FEFE82000000E1
:1001F6000C0E0282FEFC800082FEFE1038EEC60067
:1002060082FEFE8202060E00FEFE703870FEFE00C2
:10021600FEFE601806FEFE00387CC682C67C3800EC
:1002260082FEFE9290F0600078FC848EFE7A0000DA
:10023600FEFE9098FE66000064F6B29ACE4C000070
:10024600C082FEFE82C00000FEFE0202FEFE00002C
:10025600F8FC0606FCF80000FEFE0C180CFEFE007C
:10026600C2E63C183CE6C200E0F21E1EF2E00000C8
:10027600E2C68E9AB2E6CE0000FEFE828200000042
:1002860080C06030180C0600008282FEFE0000006E
:10029600103060C060301000010101010101010150
:1002A6000000C0E020000000042E6A4A6A3E0200F8
:1002B60082FEFC12121E0C001C3E22223614000086
:1002C6000C1E1292FCFE02001C3E2A2A3A1800005E
:1002D60012FEFE92C0400000193D25251F3E20005B
:1002E60082FEFE10203E1E000022BEBE020000005E
:1002F60006070101BFBE000082FEFE081C36220072
:100306000082FEFE020000003E3E181C383E1E0023
:100316003E3E20203E1E00001C3E22223E1C0000C7
:10032600213F1F25253C1800183C24251F3F21008E
:10033600243E1E3220381800123A2A2A2E240000A3
:1003460000207CFE222400003C3E02023C3E0200CD
:10035600383C06063C3800003C3E0E1C0E3E3C0077
:1003660022361C081C362200393D05053F3E00009A
:1003760032262E3A3226000010107CEE82820000D1
:100386000000007E7E0000008282EE7C10100000DD
:1003960040C080C040C08000000000000000000097
:1003A60000000000000000003F40000000000000C8
:1003B60000003000400030004000000009000BC083
:1003C6003D000BC03D00090018C024407FE02240DC
:1003D60031800000180024C01B000D8032400180CF
:1003E60003801C4027401C8007400040100060002E
:1003F60000000000000000000000000000001F8058
:10040600204040200000402020401F8000000000C7
:10041600090006001F800600090000000400040011
:100426003F8004000400000000100060000000008F
:1004360000000000040004000400040004000000A2
:10044600000000400000000000000000002001C085
:1004560006003800400000001F8020402040204059
:100466001F800000000010403FC000400000000058
:1004760018C021402240244018400000108020402F
:10048600244024401B80000002000D0011003FC0E4
:10049600014000003C80244024402440238000008A
:1004A6001F80244024403440038000003000200098
:1004B60027C03800200000001B8024402440244030
:1004C6001B8000001C0022C0224022401F8000002A
:1004D60000000000084000000000000000000000CE
:1004E6000460000000000000000004000A00110083
:1004F60020804040090009000900090009000000A9
:1005060000004040208011000A000400180020006E
:1005160023402400180000001F8020402740294067
:100526001F400000004007C039000F0001C0004016
:1005360020403FC0244024401B8000001F802040F4
:10054600204020403080000020403FC02040204016
:100556001F80000020403FC024402E4030C00000D5
:1005660020403FC024402E00300000000F001080C5
:10057600204022403380020020403FC00400040097
:100586003FC02040204020403FC020402040000087
:100596000060202020203FC02000200020403FC0D7
:1005A60024400B0030C0204020403FC02040004087
:1005B600004000C03FC03C0003C03C003FC00000FC
:1005C60020403FC00C4023003FC020001F80204039
:1005D600204020401F80000020403FC024402400CF
:1005E600180000001F802140214020E01FA00000CD
:1005F60020403FC02440260019C0004018C02440B7
:100606002440224031800000300020403FC020407E
:100616003000000020003F80004000403F80200066
:1006260020003E0001C0070038002000380007C047
:100636003C0007C038000000204039C0060039C021
:10064600204000002000384007C03840200000004D
:10065600304021C02640384020C000000000000085
:100666007FE0402040200000000070000C00038066
:10067600004000000000402040207FE00000000015
:1006860000002000400020000000000000100010C4
:1006960000100010001000100000000040000000D4
:1006A60000000000000002800540054003C0004035
:1006B60020003FC004400440038000000000038087
:1006C600044004400640000000000380044024402B
:1006D6003FC0004000000380054005400340000085
:1006E600000004401FC0244024402000000002E017
:1006F600055005500650042020403FC00440040029
:1007060003C000400000044027C000400000000075
:1007160000100010041027E00000000020403FC039
:100726000140070004C00440204020403FC0004074
:100736000040000007C0040007C0040003C000001A
:10074600044007C00440040003C0004000000380CA
:100756000440044003800000041007F004500440E5
:1007660003800000000003800440045007F00010DE
:10077600044007C0024004000400000000000640D8
:100786000540054004C00000000004001F8004402E
:1007960000400000040007800040044007C00040FD
:1007A6000400070004C0018006000400060001C022
:1007B600070001C006000000044006C0010006C094
:1007C600044000000410071004E001800600040045
:1007D6000000044005C00640044000000000000080
:1007E60004007BE040200000000000000000FFF055
:1007F60000000000000040207BE004000000000034
:100806004000800040002000200040000000000062
:1008160000000000000000000000000000000000D2
:1008260000001FCC000C00000000000000000800C3
:10083600300060000800300060000000022003FC69
:100846001E20022003FC1E200220000000000E18BD
:1008560011043FFF10840C78000000000F00108484
:100866000F3800C0077818840078000000780F84DD
:1008760010C411240E9800E40084000808006800E3
:1008860070000000000000000000000000000000F2
:10089600000007E018182004400200000000400293
:1008A6002004181807E00000000000000240024083
:1008B60001800FF0018002400240000000800080AD
:1008C60000800FF800800080008000000001000D0D
:1008D600000E000000000000000000000000008084
:1008E6000080008000800080008000800000000CF6
:1008F600000C0000000000000000000000000006E0
:10090600001800600180060018002000000007F0B3
:10091600080810041004080807F000000000080486
:1009260008041FFC000400040000000000000E0C78
:1009360010141024104411840E0C000000000C1832
:1009460010041104110412880C700000000000E06D
:100956000320042408241FFC0024000000001F9824
:10096600108411041104108810700000000007F0B4
:1009760008881104110418880070000000001C008B
:10098600100010FC13001C001000000000000E38C0
:1009960011441084108411440E3800000000070032
:1009A600088C10441044088807F00000000000007E
:1009B6000000030C030C0000000000000000000013
:1009C6000001010600000000000000000000008099
:1009D6000140022004100808100400000220022032
:1009E6000220022002200220022000000000100443
:1009F60008080410022001400080000000000E00DC
:100A06001200100C106C10800F00000003E00C1890
:100A160013E4142417C4082807D000000004003C7F
:100A260003C41C40074000E4001C000410041FFC23
:100A36001104110411040E880070000003E00C1864
:100A460010041004100410081C10000010041FFCF1
:100A5600100410041004080807F0000010041FFC1E
:100A66001104110417C410040818000010041FFC18
:100A76001104110017C010000800000003E00C1854
:100A86001004100410441C780040000010041FFCE1
:100A960010840080008010841FFC100400001004E5
:100AA60010041FFC100410040000000000030001E5
:100AB600100110011FFE10001000000010041FFCA2
:100AC600110403801464181C1004000010041FFC99
:100AD6001004000400040004000C000010041FFCB5
:100AE6001F0000FC1F001FFC1004000010041FFC68
:100AF6000C04030000E010181FFC100007F00808A3
:100B0600100410041004080807F0000010041FFC6D
:100B160010841080108010800F00000007F0081865
:100B260010241024101C080A07F2000010041FFCF1
:100B36001104110011C011300E0C000400000E1C2F
:100B460011041084108410441C3800001800100092
:100B560010041FFC100410001800000010001FF8FD
:100B660010040004000410041FF8100010001E00FA
:100B760011E0001C007013801C0010001FC0103C08
:100B860000E01F0000E0103C1FC000001004180C1D
:100B9600163401C001C01634180C100410001C00D5
:100BA600130400FC13041C00100000000804101CB1
:100BB6001064108413041C041018000000000000C8
:100BC60000007FFE400240024002000000003000AC
:100BD6000C0003800060001C0003000000004002BF
:100BE600400240027FFE00000000000000000000FE
:100BF60020004000400040002000000000010001ED
:100C06000001000100010001000100010000400098
:100C160040002000000000000000000000000098D6
:100C2600012401440144014400FC000410001FFC9F
:100C360000880104010400880070000000000070B4
:100C4600008801040104010400880000000000700F
:100C560000880104010411081FFC0004000000F8CC
:100C6600014401440144014400C80000000001049D
:100C760001040FFC1104110411001800000000D635
:100C860001290129012901C90106000010041FFCE0
:100C9600008401000100010400FC000400000104BE
:100CA600190419FC00040004000000000000000301
:100CB60000010101190119FE0000000010041FFCCB
:100CC6000024004001B4010C0104000000001004DF
:100CD60010041FFC0004000400000000010401FCD5
:100CE6000104010001FC0104010000FC010401FCF7
:100CF600008401000100010400FC0004000000F86B
:100D0600010401040104010400F80000010101FFCF
:100D160000850104010400880070000000000070D6
:100D2600008801040104010501FF0001010401041A
:100D360001FC00840104010001800000000000CCD9
:100D4600012401240124012401980000000001006F
:100D5600010007F80104010400000000010001F889
:100D6600000400040004010801FC000401000180E5
:100D76000170000C001001600180010001F0010CFF
:100D8600003001C00030010C01F001000000010438
:100D9600018C00740170018C0104000001010181C5
:100DA6000171000E0018016001800100000001843D
:100DB600010C013401440184010C00000000000014
:100DC6000000000001003EFC40024002000000005E
:100DD60000000000FFFF00000000000000004002CD
:100DE60040023EFC01000000000000000000600020
:100DF600800080004000400020002000000000002D
:100E060000000000000000000000000000000000DC
:100E160000000000000000000000000000000000CC
:100E26000000000000000000000000000000000FAD
:100E360080380FFE380F80380000000000000000E8
:100E46000000000000000000000001000006000095
:100E56000C00003800003100000600000C000038CD
:100E66000000300000000000000000006180006704
:100E7600F807F98000618000618000618000618070
:100E86000067F807F980006180000000000000009C
:100E9600000001C0E003E0F00630080418081FFF58
:100EA600FE040E080787F00381E000000000000042
:100EB60001F000060C00040408060C7001F9C000DD
:100EC6000E00003BE000EC18070808040C180003AD
:100ED600E00000000001E00007F003F818041C0819
:100EE60004170807E1D003C0E00023B0003C080067
:100EF6002008000010000000000000010000310082
:100F0600003200001C00000000000000000000008D
:100F160000000000000000000000000000000000CB
:100F26000000000000000000000000007F0001FF3C
:100F3600C00780F00C00181000042000020000001A
:100F46000000002000021000040C00180780F001C9
:100F5600FFC0007F0000000000000000000000004D
:100F6600000000000000000042000066000066006D
:100F7600003C0000180003FFC0001800003C000001
:100F8600660000660000420000000000080000083D
:100F96000000080000080000080001FFC00008006B
:100FA600000800000800000800000800000000001B
:100FB600000100003100003200001C0000000000AB
:100FC600000000000000000000000000000000001B
:100FD60000000000080000080000080000080000EB
:100FE60008000008000008000008000008000008CB
:100FF600000000000000000000000000380000387B
:1010060000003800000000000000000000000000A2
:1010160000000000000000000000000000060000C4
:101026001C000070000180000E0000380000C000A7
:101036000700001C00003000000000000000000057
:101046007F8001FFE003807006001804000804009A
:101056000806001803807001FFE0007F8000000092
:10106600000000000000010008010008010008035C
:10107600FFF807FFF800000800000800000800005D
:101086000000000000000001C03802C058040098AB
:10109600040118040218040418061C1803F81801A1
:1010A600E0F800000000000000000001C0E003C0FE
:1010B600F004000804080804080806180803F418D1
:1010C60001E7F00001E00000000000000000000061
:1010D6000300000D000011000061000081080301FB
:1010E6000807FFF80FFFF8000108000108000000DC
:1010F6000000000000E007FCD006080806100806FD
:101106001008061008061838060FF00607C000007B
:1011160000000000000000003F8001FFE003843073
:101126000208180410080410080410080718100311
:101136000FF00007C000000000000000000003C020
:10114600000700000600000600F80607F80618006B
:1011560006E0000700000600000000000000000195
:10116600E1E003F7F0063410041808041808040C2C
:1011760008040C0806161803F3F001C1E00000008D
:1011860000000000F80003FC3003063804020804DF
:1011960002080402080404100308F001FFC0007FDF
:1011A6000000000000000000000000000000000039
:1011B6000000000070380070380070380000000031
:1011C6000000000000000000000000000000000019
:1011D6000000000000000000301A00301C00000073
:1011E60000000000000000000000000000000000F9
:1011F60000000008000014000022000041000080EA
:1012060080010040020020040010080008000000D1
:101216000000000021000021000021000021000044
:1012260021000021000021000021000021000021F2
:101236000000000000000000000008000804001084
:1012460002002001004000808000410000220000D2
:10125600140000080000000000000003C00004C0E5
:1012660000040000080038080F3808083808100085
:101276000C300007E00003C0000000000000000082
:101286003F8000FFE0038070020F1006708804C0E4
:1012960088048308047F8802C09003012000FE4072
:1012A6000000080000180001F8003E0801C200070F
:1012B600020007E20000FE00001FC80001F800005F
:1012C6003800000804000807FFF807FFF8040808BC
:1012D60004080804080804080806180803F4180196
:1012E600E7F00001E0000000000000003F8001FF81
:1012F600E0038070020018040008040008040008D7
:101306000400100600200780C00000000400080743
:10131600FFF807FFF80400080400080400080400AA
:101326001802001003807001FFE0007F80000000BB
:1013360004000807FFF807FFF80408080408080473
:101346000808040808043E080400080600180100FE
:101356006000000004000807FFF807FFF80408080B
:10136600040800040800040800043E000600000605
:101376000000018000000000000000003F8001FF27
:10138600E00380700600180400080402080402083E
:101396000203F00783F000020000020004000807C1
:1013A600FFF807FFF8040808000800000800000816
:1013B6000000080004080807FFF807FFF804000803
:1013C60000000000000004000804000804000807EC
:1013D600FFF807FFF80400080400080400080000EE
:1013E60000000000000000000006000007000001E9
:1013F60004000104000104000307FFFE07FFFC04CC
:10140600000004000004000004000807FFF807FFBE
:10141600F8040C08001800003E0004C7800503C845
:101426000600F80400380400180000080400080745
:10143600FFF807FFF8040008000008000008000095
:101446000800000800000800001800006000000006
:1014560004000807FFF807800807FC00007FC000AB
:1014660003F80007C000780007800807FFF807FFA9
:10147600F804000804000807FFF807000803C00086
:1014860000E000003800001E000007000001C00454
:1014960000F007FFF8040000000000007F8001FF55
:1014A600E00380700600180400080400080600180F
:1014B60003003001FFE0007F800000000400080701
:1014C600FFF807FFF80404080404000404000404F9
:1014D60000040400060C0003F80001F00000000000
:1014E600000000007F8001FFE00380700600880492
:1014F60000880400C806003C03003E01FFE6007FAA
:101506008400000004000807FFF807FFF804080835
:10151600040800040C00040F00040BC00610F003BE
:10152600F03801E00800000800000001E0F803F0D0
:1015360030063010041808041808040C08040C08B7
:101546000206180207F00781E0000000018000068D
:10155600000004000004000004000807FFF807FF6D
:10156600F8040008040000040000060000018000E2
:1015760004000007FFE007FFF00400180000080061
:10158600000800000800000800000804001007FF1B
:10159600E004000004000006000007E00007FE006B
:1015A600041FE00001F80000380001E0043E0007D7
:1015B600C00006000004000004000007E00007FF6A
:1015C600C0041FF80007C007F80007FF80043FF8B3
:1015D6000007C004F8000700000400000000000433
:1015E600000806001807C07805F1C8003E00001F75
:1015F600800463E80780F80600180400080000006D
:1016060004000006000007800007E008047C0800CC
:101616001FF80007F800180804E008070000060095
:10162600000400000000000100080600380400F86D
:101636000403E8040F08047C0805F00807C008073F
:101646000018040060000000000000000000000018
:10165600000000000000003FFFFE20000220000204
:10166600200002200002200002000000000000000E
:10167600000008000007000000C000003800000657
:10168600000001C000003000000E00000100000054
:1016960000000000000020000220000220000220BE
:1016A60000022000023FFFFE0000000000000000D4
:1016B600000000000000000000000000000800001C
:1016C600100000300000200000300000100000086C
:1016D6000000000000000000000001000001000002
:1016E60001000001000001000001000001000001EE
:1016F60000000100000100000100000100000000E0
:101706000000000000200000200000100000100073
:1017160000000000000000000000000000000000C3
:101726000000000000F00019F8001B180022080055
:101736002608002408002410003FF8001FF80000C7
:101746000800001800000004000007FFF80FFFF073
:1017560000181800100800200800200800301800A3
:101766001FF0000FC00000000000000007C0001FAF
:10177600F0001830002008002008002008003C086F
:10178600001C1000006000000000000000000000C7
:1017960007C0001FF00038180020080020080020AD
:1017A6000804101007FFF80FFFF0000010000000FB
:1017B6000000000000000007C0001FF0001230000B
:1017C6002218002208002208003208001E10000E0F
:1017D6002000000000000000200000200800200873
:1017E60001FFF803FFF80620080420080420080774
:1017F600200003000000000000000000000E000EA4
:101806006E001FF30031B10020B10020B10031910C
:10181600001F13002E1E00200E00300000000004E2
:10182600000807FFF80FFFF800100800200000204E
:1018360000002008003FF8001FF800000800000024
:101846000000000000000020080020080020080614
:101856003FF8063FF80000080000080000080000F6
:10186600000000000000000000000000030000036C
:10187600002001002001002003063FFE063FFC0079
:10188600000000000000000000000004000807FF40
:10189600F80FFFF8000188000300002FC00038F899
:1018A60000203800200800000800000000000000AA
:1018B600000004000804000804000807FFF80FFFF2
:1018C600F800000800000800000800000000000002
:1018D600002008003FF8003FF80010080020000034
:1018E6003FF8003FF8001008002000003FF8003FD6
:1018F600F8000008000000002008003FF8003FF84C
:10190600001008001000002000002008003FF8002A
:101916001FF80000080000000000000007C0000FCC
:10192600F0001830003008002008002008003008B9
:10193600001830000FF00007C00000000000000093
:101946002001003FFF003FFF00101100200900208A
:1019560008002008003038001FF0000FC00000000B
:101966000000000007C0001FF00038180020080023
:101976002008002009001011001FFF003FFF000093
:1019860001000000002008002008002008003FF8A1
:10199600003FF8000808001008002008002000009A
:1019A6003000003000000000000000000000000CC5
:1019B60078001E180033080023080021080021883B
:1019C6000021980030F000386000000000000000A0
:1019D600200000200000200000FFF003FFF8002098
:1019E6000800200800200800003000000000000069
:1019F600000000002000003FF0007FF80000180003
:101A06000008000008002010003FF8007FF00000EA
:101A160010000000000000002000003000003C0024
:101A2600003F800023F00000780000700023800053
:101A36003C00003000002000002000003C00003F79
:101A4600E00023F80000E0002700003E00003FE031
:101A56000021F80001E0003E000020000000000028
:101A66002008002008003838003E68002780000360
:101A7600C8002CF8003838002018002008000000A4
:101A8600000000002000003003003C01003F8300FE
:101A960023EC000070002380003C000020000020A2
:101AA6000000000000000000000000380800203898
:101AB6000020F80023E8002F88003E0800380800C0
:101AC6002018000070000000000000000000000068
:101AD600000000000000000008000014001FF7FCD2
:101AE6003000062000020000000000000000000098
:101AF6000000000000000000000000000000FFFFE2
:101B0600FF000000000000000000000000000000D0
:101B16000000000000002000023000061FF7FC0055
:101B26001400000800000000000000000000000093
:101B360000000000000000180000600000400000E7
:101B4600400000200000100000080000040000040F
:0C1B560000000C00001000000000000067
:0846A20090066EEFF0A3EDF0AD
:1046AA00A3121ED40000000190066FE0FF14F0EF81
:1046BA006020A3E0F8A3E0F9A3E0FAA3E0FB9006E8
:1046CA006EE0FFE4FCFDFE121D57900670121EC834
:1046DA0080D6900670E0FCA3E0FDA3E0FEA3E0FF15
:0146EA0022AD
:034B35000247E74D
:034B3800024941EE
:034B3B00024967C5
:0B000E00900679E090067FF00246EBC0
:034B3E00024772B9
:034B41000247AE7A
:1049EE007FB0124B3BE4FF124B3B7F10124B3B7BD5
:0C49FE00017A0079017D007C04024B3E30
:104AAF00E4FD7F8D124B35E4FD7F14124B35E4FD91
:054ABF007FAF024B3542
:104AC400E4FD7F8D124B35E4FD7F10124B35E4FD80
:054AD4007FAE024B352E
:10002600E4FFEFC3940874809480502DE4FEEEC381
:10003600948074809480501E75F008EEA42401F517
:1000460082E5F03400F583E5822FF582E43583F509
:0C00560083E4F00E80D80F80C90249EE50
:10410500FF900617A3E0FE90060DE02EFD90061029
:02411500E0FBCD
:10411700E49005C7F0EFD3947F7480948040030246
:1041270041B9ED943F7480948040030241B9ED1387
:104137001313541FFEC374079E9005C6F0ED540772
:10414700FEC374079EFEF87401088002C333D8FCCF
:104157009005C7F0EB9005C6602AE0FE75F008EF02
:10416700A42401F582E5F03400F583E5822EF5827B
:10417700E43583F583C083C082E0FF9005C7E0FE86
:10418700EF4E8029E0FE75F008EFA42401F582E5E3
:10419700F03400F583E5822EF582E43583F583C09C
:1041A70083C082E0FF9005C7E0F4FEEF5ED082D0C7
:0241B70083F093
:0141B90022E3
:0C20860090060FF0900684E0900610F029
:0C20920090060CEFF0A3EDF0F9A3EBF0CA
:10209E00C39FFEE49400900611F0A3CEF0E9FF90EA
:1020AE00060FE0C39FFEE49400900613F0A3CEF05B
:1020BE0078157C067D017BFF7A1B795E7E007F049E
:1020CE00121C32E4FC900613E07002A3E07073C39E
:1020DE00900611E0648094805031E0FEA3E0FFC3CF
:1020EE00E49FFFE49E900611F0A3EFF090060CE043
:1020FE00FF90060EE0FEEF6E90060CF0E0FFEE6F26
:10210E00FE90060EF0EF6E90060CF0900611E0FEBB
:10211E00A3E0FF900615E0FAA3E0FBD39FEE6480E8
:10212E00F8EA64809840030224E590060CE02B1236
:10213E004105900616E004F070D1900615E004F00B
:10214E0080C9900611E07002A3E060030221DAC399
:10215E00900613E0648094805031E0FEA3E0FFC34C
:10216E00E49FFFE49E900613F0A3EFF090060DE0BF
:10217E00FF90060FE0FEEF6E90060DF0E0FFEE6FA3
:10218E00FE90060FF0EF6E90060DF0900613E0FE37
:10219E00A3E0FF900617E0FAA3E0FBD39FEE648066
:1021AE00F8EA64809840030224E5900615A3E0FF48
:1021BE0090060CE02FFFA3E02B124111900618E0C1
:1021CE0004F070C7900617E004F080BFD39006129B
:1021DE00E09400900611E0648094804018D390063D
:1021EE0014E09400900613E0648094804007EC4461
:1021FE0001FC022301D3900612E09400900611E038
:10220E0064809480402D900613E0FEA3E0FFEE6400
:10221E00809480501EEC4402FCC3E49FFFE49E9029
:10222E000613F0A3EFF090060DE025E0FF90060FE9
:10223E000222FBC3900611E0648094805075C39017
:10224E000613E064809480506AEC4404FC900611FE
:10225E00E0FEA3E0FFC3E49FFFE49E900611F0A30F
:10226E00EFF0A3E0FEA3E0FFC3E49FFFE49E900621
:10227E0013F0A3EFF090060CE0FF90060EE0FEEFD9
:10228E006E90060CF0E0FFEE6FFE90060EF0EF6E15
:10229E0090060CF0A3E0FF90060FE0FEEF6E9006A6
:1022AE000DF0E0FFEE6FFE90060FF0EF6E90060D54
:1022BE00F08040900611E0FEA3E0FFC3EE64809430
:1022CE00805030900614E09400900613E0648094E1
:1022DE00804020EC4408FCE49FFFE49E900611F041
:1022EE00A3EFF090060CE025E0FF90060EE0FEC393
:1022FE00EF9EF0900613E0FEA3E0FFC3900612E0FF
:10230E009FEE6480F8900611E0648098505EEC4475
:10231E0010FC90060EE090061FF090060FE0FF9066
:10232E000620F090060DE0FE90060CE0FDC39E2FF9
:10233E00FF90060EF0EDF404FDEE2DFE90061FE06C
:10234E002EF990060FF090060CE0FBC3EF9BFEE417
:10235E009400900611F0A3CEF090060DE0FFE9C3B5
:10236E009FFEE49400900613F0A3CEF0900613E0C7
:10237E00FAA3E0FB25E0FEEA33900619F0A3CEF0B7
:10238E00900611E0FEA3E0FFC3EB9FFFEA9EFEEF77
:10239E0025E0FFEE3390061BF0A3EFF0900614E05D
:1023AE0025E0FF900613E033FE900611E0FAA3E05D
:1023BE00FBC3EF9BFFEE9A90061DF0A3EFF0900685
:1023CE0015A3E0FF90060CE02F124105900616E0D3
:1023DE0004F07006900615E004F0900611E0FEA3DE
:1023EE00E0FFD3900616E09FEE6480F8900615E0AD
:1023FE0064809840030224E5C390061DE064809437
:10240E008050059006198011900618E004F07006B1
:10241E00900617E004F090061BE0FEA3E0FF900686
:10242E001EE02FF090061DE03EF0EC540F24FE60EF
:10243E003524FE600B24FC605C240760030224D468
:10244E00EC30E411900617A3E0FF90060CE02FFF8E
:10245E009006158066900615A3E0FF90060CE02FFF
:10246E00FF9006178055EC30E411900617A3E0FF9D
:10247E0090060CE02FFF900615800F900615A3E036
:10248E00FF90060CE02FFF900617A3E0FE90060DBE
:10249E00E0C39E802EEC30E412900617A3E0FF906E
:1024AE00060CE0C39FFF9006158010900615A3E062
:1024BE00FF90060CE0C39FFF900617A3E0FE900668
:1024CE000DE02E124111900616E004F070069006F3
:0724DE0015E004F00223E801
:0124E50022D4
:1045F600900681EDF0900680EFF0900682EBF09049
:104606000681E0FD122086900680E0FF900683E09A
:10461600FD900682E0FB90060FED12208990068041
:10462600E0FBFFA3E0FD900683E012208690068261
:10463600E0FBFF900681E0FD900683E090060FF018
:0B464600900684E0900610F002209225
:0E3D710090062FEDF0A3EBF0A3EAF0A3E9F02B
:103D7F00EFD3947F748094804003023E6090062FAF
:103D8F00E0FE943F748094804003023E60900636BC
:103D9F00EFF0A3EEF0900634E0FF131313541FFE61
:103DAF00EF540760047F0180027F00EE2FFF900623
:103DBF0033E0FEEF8EF0A4900638F0E4A3F0900607
:103DCF0038E0FFA3E0C39F4003023E60900630E05F
:103DDF00FBA3E0FAA3E0F9121C58FCE4FAEAC3943F
:103DEF0008748094805057EC30E70F900636E0FF50
:103DFF00A3E0FD900635E0FB8014900636E0FFA3AC
:103E0F00E0FD900635E070047B0180027B001241DB
:103E1F0017EC25E0FC900637E004F090062FE0FF4A
:103E2F00900637E0C39FFE900634E0B5060D90066E
:103E3F0037EFF0900636E004F080030A809F90067B
:103E4F0031E475F001121CF3900639E004F0023DE5
:013E5F00CD95
:013E6000223F
:074816009005B8EDF0A903C5
:10481D00AC07ECD399501F9005B8E0FA9005BAE0BB
:10482D00FFEAD39F500DAF04AD02A3E0FB12411779
:06483D000A80E90C80DC9A
:014843002252
:0C3829009005BEEFF09005C0EBF0A90583
:103835009005C4E9F09005C1E0640870089005C5DD
:103845007408F080289005C1E0FF131313541FFE80
:10385500EF540760047F0180027F00EE2FFF900583
:10386500C1E0C313FEEF8EF0A49005C5F09005C02E
:10387500E024E0F0E4FC9005C5E0FFECC39F4003C5
:103885000239639005C1E0FF7E006408701290055F
:10389500C0E075F008A424A6F582E5F03400804E5A
:1038A500EF640C4E70129005C0E075F00CA4249ED8
:1038B500F582E5F0340380369005C1E0FF7E0064B3
:1038C5001070129005C0E075F010A42412F582E581
:1038D500F034088019EF64184E60030239639005CF
:1038E500C0E075F024A42402F582E5F0340EF583DA
:1038F500E5822CF582E43583F583E4939005C3F0E6
:10390500E4FAEAC3940874809480504E9005C3E0AD
:1039150030E70E9005BEE0FFAD019005C2E0FB80EB
:10392500139005BEE0FFAD019005C2E070047B0178
:1039350080027B001241179005C3E025E0F009A342
:10394500E0FFC3E99FFE9005C1E0B5060AA907900F
:0E39550005BEE004F080030A80A80C02387B57
:013963002241
:083A7F0090063AEFF0A3EDF010
:103A8700E4900645F0900643F0900640E0FF90066C
:103A970043E0FEC39F4003023B85C3EF9E14FD7FB7
:103AA7000A1246A2A804A905AA06AB0790063CE09D
:103AB700FCA3E0FDA3E0FEA3E0FF121DE2E47B0A06
:103AC700FAF9F8121DE2900644EBF0A3E070629059
:103AD7000640E014FF900643E0FEC39F5053A3E067
:103AE7007049900641E064087015E0FC8EF0A4FF71
:103AF70090063AE02FFFA3E0FD9005C1EC801F90F0
:103B07000641E0FEC313FF900643E0FDEF8DF0A4EE
:103B1700FF90063AE02FFFA3E0FD9005C1EEF0907D
:103B27000642E09005C2F07B20804790064574016D
:103B3700F0900641E06408700E900643E0FF90069F
:103B470041E0FE8FF08010900641E0FEC313FF9026
:103B57000643E0FDEF8DF0A4FF90063AE02FFFA3A8
:103B6700E0FD900644E02430FB9005C1EEF0A3741D
:0E3B770001F0123829900643E004F0023A9063
:013B8500221D
:08430100900621EFF0A3EDF09E
:10430900E4900629F0900623E0FCA3E0FDA3E0FE7B
:10431900A3E0FF90062A121EC890062AE0FCA3E03B
:10432900FDA3E0FEA3E0FFE47B0AFAF9F8121DE21F
:1043390090062A121EC8900629E004F0A3E0FCA307
:10434900E0FDA3E0FEA3E0FFEC4D4E4F70CB9006DD
:1043590023E0FCA3E0FDA3E0FEA3E0FF90063C12EE
:104369001EC8900629E0900640F0900627E09006C6
:1043790041F0900628E0900642F0900622E0FD9078
:074389000621E0FF023A7F6C
:083E6100900646EFF0A3EDF01E
:103E6900E490064FF0900648A3A3A3E0FFEF75F096
:103E79000A84FF90064FE004F0EF70F1900648E0E5
:103E8900FCA3E0FDA3E0FEA3E0FF900623121EC8F9
:103E990090064DE0900627F090064EE0900628F037
:103EA900900647E0FD900646E0FF12430190064D5B
:103EB900E06408700AE0FE90064FE08EF0801090F2
:103EC900064DE0FEC313FF90064FE0FDEF8DF0A411
:103ED900FF900646E02FFFA3E0FD9005C1EEF090AC
:103EE900064EE09005C2F07B2E12382990064DE06F
:103EF900FB6408700990064FE0048BF0800F900670
:103F09004DE0FBC313FF90064FE0048FF0A4FF9030
:103F19000646E02FFFC00790064CE0FFE4FCFDFEDB
:103F2900900623121EC8900627EBF090064EE090EB
:0D3F39000628F0900647E0FDD00712430176
:013F46002258
:1041BA009005B7EFF0A3EDF0A3EBF0A3EAF0A3E9C3
:1041CA00F09005B9E0FBA3E0FAA3E0F9121C58FF4E
:1041DA00D3947E400302426EEFC3942050030242FE
:1041EA006E9005BCE0FF13FEC374809EFE9005B777
:1041FA00E0D39E4006E4F0A3E02FF09005BCE0FF78
:10420A00C374409FFF9005B8E0D39F400AE490052D
:10421A00B7F0A3F01200269005B7E0FFA3E0FDA3D4
:10422A00E0FBA3E0FAA3E0F9121C58FB9005BCE0FE
:10423A009005C1F09005BDE09005C2F012382990B2
:10424A0005BCE0FF6408700280079005BCE0C31358
:10425A00FF9005B7E02FF09005BAE475F001121C43
:05426A00F30241CB222C
:034B4400024A9989
:10449E00124B447FAE124B3B7FD5124B3B7F5012DB
:1044AE004B3B7FA8124B3B7F3F124B3B7FD3124BB4
:1044BE003BE4FF124B3B7F40124B3B7F8D124B3B3D
:1044CE007F14124B3B7F20124B3B7F01124B3B7FE5
:1044DE00A1124B3B7FC0124B3B7FDA124B3B7F123C
:1044EE00124B3B7F81124B3B7FEF124B3B7FD9121E
:1044FE004B3B7FF1124B3B7FDB124B3B7F30124B22
:10450E003B7FA4124B3B7FA6124B3B7FAF124B3B24
:03451E0002002672
:1047310048656C6C6F20576F726C64210048656C22
:104741006C6F204335312100746172676574206D8F
:10475100656E753A20006C6576656C3A2000706173
:104761007256616C3A200073656C6656616C3A2032
:014771000047
:0440260041069400BB
:1048F1009005BA7440F0E4A3F07B7F7D38FF124845
:10490100167BFF7A4779319005BC7408F0A37401D6
:08491100F07D38E4FF0241BA19
:104919009005BA7440F0E4A3F07B7F7D38FF12481C
:10492900167BFF7A47793E9005BC7408F0A37401A1
:08493900F07D38E4FF0241BAF1
:1039640090068AEBF0A3EAF0A3E9F07BFF7A4779AB
:10397400499005BC7408F0A37401F0E4FDFF124102
:10398400BA9005BA7410F0E4A3F07B7F7D087F1031
:1039940012481690068AE0FBA3E0FAA3E0F990052A
:1039A400BC7408F0A37401F07D087F101241BA7B47
:1039B400FF7A4779579005BC7408F0A37401F07D31
:1039C40010E4FF1241BA90068AE0FBA3E0FAA3E0F8
:1039D400F9900014121C71FFE4FCFDFE9006231202
:1039E4001EC89006277408F0A37401F07D107F5060
:1039F4001243017BFF7A47795F9005BC7408F0A3FA
:103A04007401F07D18E4FF1241BA90068AE0FBA32A
:103A1400E0FAA3E0F9900015121C71FFE4FCFDFE2E
:103A2400900623121EC89006277408F0A37401F0B0
:103A34007D187F501243017BFF7A4779689005BC5B
:103A44007408F0A37401F07D20E4FF1241BA9006DB
:103A54008AE0FBA3E0FAA3E0F9900016121C71FFC0
:103A6400E4FCFDFE900623121EC89006277408F09D
:0B3A7400A37401F07D207F500243018D
:104A99009005B87430F09005B77402F07B017A057F
:064AA90079B7FF022B7C2F
:1047E700900690EF124A2E7F7812487C1249B290B9
:1047F7000691E060047F408002E4FF12487C124982
:0F480700B2900690E0FF12487C1249B2024B09B2
:10494100900695EFF0124A327F7812487C1249B2F4
:104951007F4012487C1249B2900695E0FF12487CD4
:064961001249B2024B09ED
:104967009005BEEFF0124A327F7812487C1249B2A6
:10497700E4FF12487C1249B29005BEE0FF12487C62
:064987001249B2024B09C7
:1046EB0090067A124A247F7812487C1249B29006BF
:1046FB007FE060047F408002E4FF12487C1249B2E5
:10470B0090067D74FFF5F0121D0945F060159006BB
:10471B007A1248701249B290067BE475F001121CB4
:06472B00F380DD024B09E2
:104772009005BE124A247F7812487C1249B27F40CB
:1047820012487C1249B29005C174FFF5F0121D095E
:1047920045F060159005BE1248701249B29005BFEF
:0C47A200E475F001121CF380DD024B09ED
:1047AE00900685124A247F7812487C1249B2E48022
:1047BE001C90068874FFF5F0121D0945F0601790E5
:1047CE000685E0FBA3E0FAA3E0F9121C58FF12489D
:0947DE007C1249B280DB024B0998
:0E4A2400EBF0A3EAF0A3E9F0A3ECF0A3EDF0B1
:0B4A3200D2A4D2A500C2A400C2A5229D
:0E4B0900C2A4D2A500D2A47F027E00024A3DC3
:1049B200E4FFD2A4D2A50030A4110FEFD394FA746D
:0F49C20080948040F2124B097F0122C2A57F0032
:0149D10022C3
:0C487000E0FBA3E0FAA3E0F9121C58FFE3
:10487C00E4FEEEC39408748094805013EF3392A43A
:0F488C00EF25E0FFD2A500000000C2A50E80E3DB
:01489B0022FA
:103C7C002564202564202564206E616D653A20251D
:103C8C00730D0A00746865206D656E7520222573AE
:103C9C0022206469646E27742068617665207375D0
:103CAC00624D656E75210D0A003D3D3D3D3D3D3D2E
:103CBC003D3D3D3D3D3D3D3D3D3D3D3D3D3D3D3D28
:103CCC003D3D3D3D3D3D3D3D3D3D3D3D3D3D3D3D18
:103CDC003D3D3D0D0A0025642E2025730D0A006321
:103CEC00616E277420636F6E6E6563742069662045
:103CFC00746F2073797374656D2C206279206E6FEC
:103D0C00742066696E6420697427732070726576FE
:103D1C00206D656E75210D0A0063616E2774206439
:103D2C00656C6574652C206279206572726F7220E7
:103D3C006D656E755F44656C65746520706172614C
:103D4C006D210D0A0063616E27742064656C6574C7
:103D5C00652C206279206E6F742066696E64206910
:053D6C0074210D0A00A6
:103B860090FFFD121F8EEBF0A3EAF0A3E9F090FF81
:043B9600FD121F8E6F
:103B9A00900003121FB2E0F9A3E0FAA3E0850D83B7
:103BAA00850E82C9F0A3EAF0A3E9F0850D83850E9C
:103BBA0082E0FBA3E0FAA3E04A4B7003023C76855D
:103BCA000D83850E82E0FBA3E0FAA3E0F9900014CE
:103BDA00121C71FF9005E6E4F0A3EFF090001512B5
:103BEA001C71FF9005E8E4F0A3EFF0900016121C98
:103BFA0071FF9005EAE4F0A3EFF0A3EBF0A3EAF07B
:103C0A00A3E9F07BFF7A3C797C122551850D8385E7
:103C1A000E82E0FBA3E0FAA3E0F990001D121F0553
:103C2A00E94A4B6017850D83850E82E0FBA3E0FA13
:103C3A00A3E0F990001D121F05123B86850D8385AE
:103C4A000E82E0FBA3E0FAA3E0F990001A121F0526
:103C5A00E94A4B6017850D83850E82E0FBA3E0FAE3
:0C3C6A00A3E0F990001A121F05123B861F
:063C7600900006021F8E03
:1046510090068DEBF0A3EAF0A3E9F090001D121F84
:1046610005E94A4B90068D601CE0FBA3E0FAA3E04C
:10467100F990001D121F0590068DEBF0A3EAF0A33F
:10468100E9F0023B86E0F9A3E0FAA3E09005E6C970
:10469100F0A3EAF0A3E9F07BFF7A3C79901225516F
:0146A10022F6
:0B402B00900661EBF0A3EAF0A3E9F0BF
:10403600E4A3F0A3EBF0A3EAF0A3E9F07BFF7A3C5C
:1040460079B5122551900665E0FBA3E0FAA3E0F9E5
:1040560090001D121F05E94A4B6071900665E0FB52
:10406600A3E0FAA3E0F990001D121F05900665EB88
:10407600F0A3EAF0A3E9F0900664E004F0E090050E
:10408600E6F0900665E0F9A3E0FAA3E09005E7C93B
:10409600F0A3EAF0A3E9F07BFF7A3C79E21225511E
:1040A600900665E0FBA3E0FAA3E0F990001A121F60
:1040B60005900665EBF0A3EAF0A3E9F0900665E04B
:1040C600FBA3E0FAA3E04A4B70AD801E900665E0C4
:1040D600F9A3E0FAA3E09005E6C9F0A3EAF0A3E9A4
:1040E600F07BFF7A3C79901225517BFF7A3C79B5BB
:0E40F600122551900661E0FBA3E0FAA3E0F969
:014104002298
:08368200E0FBA3E0FAA3E0F96C
:10368A0090FFFD121F8EEBF0A3EAF0A3E9F090FF82
:04369A00FA121F8E73
:10369E00900006121FB2E0F9A3E0FAA3E0850D83B5
:1036AE00850E82C9F0A3EAF0A3E9F07B007A0079D7
:1036BE0000900003121FB2EBF0A3EAF0A3E9F0852D
:1036CE000D83850E82E0FBA3E0FAA3E04A4B700661
:1036DE00FBFAF9023823900009121FB2E0FBA3E0B7
:1036EE00FAA3E0F9900014121C71FF850D83850E6C
:1036FE0082E0FBA3E0FAA3E0F9900014121C71FE25
:10370E00D39F40097B007A007900023823EEB5077B
:10371E002F900009121FB2E0FBA3E0FAA3E0F9908C
:10372E000016121C71FF850D83850E82E0FBA3E04F
:10373E00FAA3E0F9900016121C71B50703023823A4
:10374E00850D83850E82E0FBA3E0FAA3E0F99000DD
:10375E001D121F05E94A4B6041900009121FB2E08D
:10376E00FBA3E0FAA3E0F990FFFD121F8EEBF0A38E
:10377E00EAF0A3E9F0900003121FB2E0FBA3E0FA17
:10378E00A3E0F990001D121F0512368A9000031255
:10379E001FB2EBF0A3EAF0A3E9F0900003121FB200
:1037AE00E0FBA3E0FAA3E04A4B6002805A850D834A
:1037BE00850E82E0FBA3E0FAA3E0F990001A121F37
:1037CE0005E94A4B6041900009121FB2E0FBA3E0ED
:1037DE00FAA3E0F990FFFD121F8EEBF0A3EAF0A31F
:1037EE00E9F0900003121FB2E0FBA3E0FAA3E0F9A8
:1037FE0090001A121F0512368A900003121FB2EBA8
:10380E00F0A3EAF0A3E9F0900003121FB2E0FBA3CD
:05381E00E0FAA3E0F94F
:0638230090000C021F8E54
:1034D10090FFFD121F8EEBF0A3EAF0A3E9F090FF3D
:0434E100FA121F8E2E
:1034E500900006121FB2E0F9A3E0FAA3E0850D8370
:1034F500850E82C9F0A3EAF0A3E9F07B007A007992
:1035050000900003121FB2EBF0A3EAF0A3E9F085E7
:103515000D83850E82E0FBA3E0FAA3E04A4B70061B
:10352500FBFAF902367C900009121FB2E0FBA3E01A
:10353500FAA3E0F9900014121C71FF14FE850D83A7
:10354500850E82E0FBA3E0FAA3E0F9900014121CBB
:1035550071FDD39E40097B007A00790002367CD349
:10356500EF9400748094804039900009121FB2E0F6
:10357500FBA3E0FAA3E0F9900014121C7114B50541
:1035850021900015121C71FF850D83850E82E0FBCD
:10359500A3E0FAA3E0F9900016121C71B507030227
:1035A500367C850D83850E82E0FBA3E0FAA3E0F966
:1035B50090001D121F05E94A4B6041900009121F3A
:1035C500B2E0FBA3E0FAA3E0F990FFFD121F8EEB3A
:1035D500F0A3EAF0A3E9F0900003121FB2E0FBA309
:1035E500E0FAA3E0F990001D121F051234D19000F6
:1035F50003121FB2EBF0A3EAF0A3E9F09000031267
:103605001FB2E0FBA3E0FAA3E04A4B6002805A85B3
:103615000D83850E82E0FBA3E0FAA3E0F990001A82
:10362500121F05E94A4B6041900009121FB2E0FBE9
:10363500A3E0FAA3E0F990FFFD121F8EEBF0A3EAD9
:10364500F0A3E9F0900003121FB2E0FBA3E0FAA398
:10365500E0F990001A121F051234D1900003121FD1
:10366500B2EBF0A3EAF0A3E9F0900003121FB2E079
:07367500FBA3E0FAA3E0F95A
:06367C0090000C021F8EFD
:0B3291009005B7EBF0A3EAF0A3E9F012
:10329C009005E0E4F0A3F0A3F09005BAE0FBA3E006
:1032AC00FAA3E0F9900014121C71149005D1F0905F
:1032BC000015121C719005D3F07B017A0579BD9035
:1032CC00FFFD121F8EEBF0A3EAF0A3E9F09005B717
:1032DC001236829005E0EBF0A3EAF0A3E9F090053A
:1032EC00E0E0FBA3E0FAA3E04A4B70030234BC908D
:1032FC0005E0A3A3E0F990001D121F05E94A4B70ED
:10330C00229005BAE0FBA3E0FAA3E0F9C003C002E7
:10331C00C0019005E0E0FBA3E0FAA3E0F990001DEA
:10332C000234959005E0E0FBA3E0FAA3E0F99000ED
:10333C001D80419005BAE0FBA3E0FAA3E0F99000F0
:10334C0016121C71FF9005E0E0FBA3E0FAA3E0F974
:10335C00900016121C71FED39F502990001A121F58
:10336C0005E94A4B601E9005E0E0FBA3E0FAA3E000
:10337C00F990001A121F059005E0EBF0A3EAF0A3F8
:10338C00E9F080AFEFC39E40030234769005E0E095
:10339C00FBA3E0FAA3E0F9900017121F05900014AC
:1033AC00121C71FF9005BAE0FBA3E0FAA3E0F990C0
:1033BC000014121C71FEEFC39E501CC003C002C04F
:1033CC00019005E0E0FBA3E0FAA3E0F990001712EE
:1033DC001F0590001D80259005BAE0FBA3E0FAA321
:1033EC00E0F9C003C002C0019005E0E0FBA3E0FAE5
:1033FC00A3E0F9900017121F0590001A121F3590C8
:10340C0005E0E0FBA3E0FAA3E0F9900017121F051A
:10341C00C003C002C0019005BAE0FBA3E0FAA3E030
:10342C00F9900017121F359005BAE0FBA3E0FAA340
:10343C00E0F9C003C002C0019005E0E0FBA3E0FA94
:10344C00A3E0F9900017121F359005E0E0FBA3E014
:10345C00FAA3E0F9C003C002C0019005BAE0FBA3D7
:10346C00E0FAA3E0F990001A80419005BAE0FBA3C2
:10347C00E0FAA3E0F9C003C002C0019005E0E0FB54
:10348C00A3E0FAA3E0F990001A121F359005E0E0D2
:10349C00FBA3E0FAA3E0F9C003C002C0019005BA97
:1034AC00E0FBA3E0FAA3E0F9900017121F358009A6
:1034BC007BFF7A3C79EB1225519005B7E0FBA3E03A
:0434CC00FAA3E0F986
:0134D00022D9
:0B2DF300900650EBF0A3EAF0A3E9F01B
:102DFE00900656E4F0A3F0A3F0900653E0FBA3E098
:102E0E00FAA3E0F990FFFD121F8EEBF0A3EAF0A3F8
:102E1E00E9F0900650123682900656EBF0A3EAF0D7
:102E2E00A3E9F0900656E0FBA3E0FAA3E04A4B704C
:102E3E0003023001900650E0FBA3E0FAA3E0F9C0D4
:102E4E0003C002C001900656E0FBA3E0FAA3E0F92E
:102E5E00D082D083D0E06B7008E965827003EA659A
:102E6E00837003023001900656E0FBA3E0FAA3E064
:102E7E00F990001A121F05E94A4B6003022F1890B1
:102E8E000656E0FBA3E0FAA3E0F9900017121F0527
:102E9E00900014121C71FF900656E0FBA3E0FAA3FB
:102EAE00E0F9900014121C71FEEFC39E7B007A00B5
:102EBE007900501CC003C002C001900656E0FBA36F
:102ECE00E0FAA3E0F9900017121F0590001D801A7A
:102EDE00C003C002C001900656E0FBA3E0FAA3E0D7
:102EEE00F9900017121F0590001A121F357B007AF9
:102EFE00007900C003C002C001900656E0FBA3E0BB
:102F0E00FAA3E0F9900017022FFC900656E0FBA3FF
:102F1E00E0FAA3E0F9900017121F05900014121C9E
:102F2E0071FF900656E0FBA3E0FAA3E0F9900014BF
:102F3E00121C71FEEFC39E502290001A121F05C084
:102F4E0003C002C001900656E0FBA3E0FAA3E0F92D
:102F5E00900017121F0590001D802B900656E0FB67
:102F6E00A3E0FAA3E0F990001A121F05C003C002F5
:102F7E00C001900656E0FBA3E0FAA3E0F99000171B
:102F8E00121F0590001A121F35900656E0FBA3E0A3
:102F9E00FAA3E0F9900017121F05C003C002C0018A
:102FAE00900656E0FBA3E0FAA3E0F990001A121F78
:102FBE0005900017121F357B007A007900C003C000
:102FCE0002C001900656E0FBA3E0FAA3E0F99000E0
:102FDE0017121F357B007A007900C003C002C001B2
:102FEE00900656E0FBA3E0FAA3E0F990001A121F38
:102FFE0035803E900650E0FBA3E0FAA3E0F9C00353
:10300E00C002C001900656E0FBA3E0FAA3E0F9D09F
:10301E0082D083D0E06B7008E965827003EA658325
:10302E007BFF70067A3D792580047A3D7951122511
:0C303E0051900650E0FBA3E0FAA3E0F97B
:01304A002263
:1042810002001EE493A3F8E493A34003F68001F235
:1042910008DFF48029E493A3F85407240CC8C3333E
:1042A100C4540F4420C8834004F456800146F6DF0D
:1042B100E4800B0102040810204080903F47E47E17
:1042C100019360BCA3FF543F30E509541FFEE49302
:1042D100A360010ECF54C025E060A840B8E493A3C9
:1042E100FAE493A3F8E493A3C8C582C8CAC583CAF4
:1042F100F0A3C8C582C8CAC583CADFE9DEE780BEAC
:01402A000095
:101B6200E709F608DFFA8046E709F208DFFA803E65
:101B720088828C83E709F0A3DFFA8032E309F60852
:101B8200DFFA8078E309F208DFFA807088828C83BA
:101B9200E309F0A3DFFA806489828A83E0A3F6086E
:101BA200DFFA805889828A83E0A3F208DFFA804C48
:101BB20080D280FA80C680D4806980F2803380101F
:101BC20080A680EA809A80A880DA80E280CA803388
:101BD20089828A83ECFAE493A3C8C582C8CCC58300
:101BE200CCF0A3C8C582C8CCC583CCDFE9DEE780D0
:101BF2000D89828A83E493A3F608DFF9ECFAA9F04F
:101C0200EDFB2289828A83ECFAE0A3C8C582C8CCA4
:101C1200C583CCF0A3C8C582C8CCC583CCDFEADEBD
:101C2200E880DB89828A83E493A3F208DFF980CC1F
:101C320088F0EF60010E4E60C388F0ED2402B40418
:101C42000050B9F582EB2402B4040050AF232345BF
:061C52008223901BB27317
:101C5800BB010689828A83E0225002E722BBFE028A
:091C6800E32289828A83E49322BD
:101C7100BB010CE58229F582E5833AF583E0225028
:101C810006E92582F8E622BBFE06E92582F8E22272
:0D1C9100E58229F582E5833AF583E493228C
:101C9E00BB010FF8E58229F582E5833AF583E0284A
:101CAE00F0225009C58229F8E58226F622BBFE09EC
:101CBE00C58229F8E22582F222F8EA2583F583E926
:031CCE0093282236
:101CD100F8BB010DE58229F582E5833AF583E8F049
:101CE100225006E92582C8F622BBFE05E92582C8F5
:021CF100F222DD
:101CF300C5F0F8A3E028F0C5F0F8E582158270027C
:061D03001583E038F02218
:101D0900A3F8E0C5F025F0F0E5821582700215838D
:061D1900E0C838F0E822EA
:101D1F00BB0110E58229F582E5833AF583E0F5F002
:101D2F00A3E0225009E92582F886F008E622BBFEDF
:101D3F000AE92582F8E2F5F008E222E5832AF58325
:081D4F00E993F5F0A3E99322EA
:101D5700E88FF0A4CC8BF0A42CFCE98EF0A42CFC2B
:101D67008AF0EDA42CFCEA8EF0A4CDA8F08BF0A4A9
:101D77002DCC3825F0FDE98FF0A42CCD35F0FCEB08
:101D87008EF0A4FEA9F0EB8FF0A4CFC5F02ECD39CD
:0F1D9700FEE43CFCEAA42DCE35F0FDE43CFC223A
:101DA60075F008758200EF2FFFEE33FECD33CDCCF4
:101DB60033CCC58233C5829BED9AEC99E582984077
:101DC6000CF582EE9BFEED9AFDEC99FC0FD5F0D654
:101DD600E4CEFBE4CDFAE4CCF9A88222B800C1B97E
:101DE6000059BA002DEC8BF084CFCECDFCE5F0CBBC
:101DF600F97818EF2FFFEE33FEED33FDEC33FCEBF5
:101E060033FB10D703994004EB99FB0FD8E5E4F9AF
:101E1600FA227818EF2FFFEE33FEED33FDEC33FC9C
:101E2600C933C910D7059BE99A4007EC9BFCE99A90
:101E3600F90FD8E0E4C9FAE4CCFB2275F010EF2FD5
:101E4600FFEE33FEED33FDCC33CCC833C810D707D5
:101E56009BEC9AE899400AED9BFDEC9AFCE899F810
:0E1E66000FD5F0DAE4CDFBE4CCFAE4C8F922A3
:101E7400EB9FF5F0EA9E42F0E99D42F0E89C45F0C4
:011E8400223B
:101E8500E8600FECC313FCED13FDEE13FEEF13FF3B
:031E9500D8F1225F
:101E9800BB010DE58229F582E5833AF583021FDE51
:101EA8005007E92582F8021FD1BBFE07E92582F811
:101EB800021FEAE58229F582E5833AF583021FF7D6
:0C1EC800ECF0A3EDF0A3EEF0A3EFF0228D
:101ED400A8828583F0D083D082121EEB121EEB12EF
:101EE4001EEB121EEBE473E493A3C583C5F0C58314
:101EF400C8C582C8F0A3C583C5F0C583C8C582C858
:011F040022BA
:101F0500BB010DE58229F582E5833AF583022019A7
:101F15005007E92582F8022007BBFE07E92582F86C
:101F2500022042E58229F582E5833AF583022054B1
:101F3500BB0120E58229F582E5833AF583D0F0D00F
:101F4500E0F8D0E0F9D0E0FAD0E0FBE8C0E0C0F07E
:101F55000220395018E92582F8D083D082D0E0F9E3
:101F6500D0E0FAD0E0FBC082C083022010BBFE188F
:101F7500E92582F8D083D082D0E0F9D0E0FAD0E02C
:091F8500FBC082C08302204B2244
:101F8E00E50E2582F582E50D3583F583B50D0485C5
:101F9E00820E2210AF0685820EF50D2285820EF579
:041FAE000DD2AF227F
:0D1FB200E50E2582F582E50D3583F58322CD
:1024E600E50824E6F582E43405F583E00508229044
:1024F60005E33007039005E6E475F0011220220299
:102506001C582000E97F2ED2008018EF540F24902B
:10251600D43440D4FF30040BEF24BFB41A00500368
:102526002461FFE50960021509050CE50C7002053A
:102536000B30070E9005E3E475F001122022EF023E
:102546001FBF024AFB7403D2078003E4C207F508E3
:102556009005E3122039E4F509F50BF50CE5096061
:10256600077F2012252980F5750AFFC201C200C225
:1025760002C203C205C206C2081224F5FF700D305E
:1025860007057F0012253AAF0CAE0B22B4255FC2B9
:10259600D5C2041224F5FF24D0B40A00501A75F0EF
:1025A6000A780930D50508B6FF0106C6A426F62026
:1025B600D5047002D20380D924CFB41A00EF500498
:1025C600C2E5D20402273BD20180C6D20080C0D227
:1025D6000280BCD2D580BAD20580B47F20122529CC
:1025E6002002077401B5090040F11224E6FF122506
:1025F60029022563D208D20680951224E6FB12240E
:10260600E6FA1224E6F94A4B7006790C7A287BFF23
:1026160020022EE509602A7E008E82758300121C38
:102626007160060EEE650A70F0C2D5EBC0E0EAC036
:10263600E0E9C0E0EE122782D0E0F9D0E0FAD0E07F
:10264600FB121C58FF60AAEBC0E0EAC0E0E9C0E05C
:10265600122529D0E02401F9D0E03400FAD0E0FBBD
:10266600E50A0460DCD50AD980877BFF7A27797E64
:10267600D202809C791080027908C206C2088008BE
:10268600D2D5790A8004790AC2D5E50A047002F522
:102696000AE4FAFDFEFF1224E6FC7B082001131271
:1026A60024E6FD7B1030000A1224E6FE1224E6FF23
:1026B6007B20EC3382D592D55013C3E43000069FBD
:1026C600FFE49EFEE42001039DFDE49CFCE4CBF8C0
:1026D600C201EC700CCFCECDCCE824F8F870F380B4
:1026E60017C3EF33FFEE33FEED33FDEC33FCEB3374
:1026F600FB994002FB0FD8E9EB300105F8D0E0C4A6
:1027060048B201C0E00AEC4D4E4F78207B0070C203
:10271600EAB50A0040BCC0E0122784D0F0D0E02021
:102726000104C4C0E0C4B201C0F0122512D0F0D535
:10273600F0EB022563122060260053267A5825D135
:102746004C25CD42267E4F26864426864925E643DD
:08275600268C55267046267002
:10275E0045267047282C5025D52D25D92E25FC2B06
:10276E0025DD2325FA2028152A259548000025F475
:10277E003F3F3F00790AA2D5200314300509B91056
:10278E00020404B9080104A2D52006025001042057
:10279E0002689202B509005034C0E07F2030031960
:1027AE007F30A20272067205500F1227DBC202C2E0
:1027BE0006C205C2087F30800F300503E9C0E01263
:1027CE002529300503D0E0F9D0E0B509CC30051746
:1027DE007F30B9100C1225297F583004077F78807E
:1027EE0003B908031225293002057F2D0225297F02
:1027FE00202008F87F2B2006F322920280CF286E2D
:10280E00756C6C2900D2011224E63001F8C20178F1
:10281E000930D50108F60225952D5043495812244A
:10282E00E62403B405004001E49028279312251AEC
:0D283E00743A12251AD20375090402267A95
:101FBF00BB010689828A83F0225002F722BBFE0101
:021FCF00F322FB
:0D1FD100E6FB08E6F908E6FA08E6CBF82280
:0C1FDE00E0F8A3E0F9A3E0FAA3E0FB2286
:0D1FEA00E2FB08E2F908E2FA08E2CBF82277
:101FF700E493F8740193F9740293FA740393FB2240
:09200700E6FB08E6FA08E6F922FE
:09201000EBF608EAF608E9F622F5
:09201900E0FBA3E0FAA3E0F922C8
:10202200F8E0FBA3A3E0F925F0F0E5821582700247
:072032001583E0FA38F022EB
:09203900EBF0A3EAF0A3E9F022A8
:09204200E2FB08E2FA08E2F922CF
:09204B00EBF208EAF208E9F222C6
:0C205400E493FB740193FA740293F922E8
:10206000D083D082F8E4937012740193700DA3A30F
:1020700093F8740193F5828883E473740293686023
:06208000EFA3A3A380DF23
:00000001FF
